{"contracts/PlaySudoku.sol":{"PlaySudoku":{"abi":[{"inputs":[],"stateMutability":"nonpayable","type":"constructor"},{"inputs":[{"internalType":"uint256","name":"","type":"uint256"},{"internalType":"uint256","name":"","type":"uint256"}],"name":"currentBoard","outputs":[{"internalType":"uint8","name":"","type":"uint8"}],"stateMutability":"view","type":"function"},{"inputs":[{"internalType":"address","name":"","type":"address"}],"name":"didThePlayerWin","outputs":[{"internalType":"bool","name":"","type":"bool"}],"stateMutability":"view","type":"function"},{"inputs":[],"name":"emptyCount","outputs":[{"internalType":"uint8","name":"","type":"uint8"}],"stateMutability":"view","type":"function"},{"inputs":[],"name":"generateBoard","outputs":[],"stateMutability":"nonpayable","type":"function"},{"inputs":[],"name":"getBoard","outputs":[{"internalType":"uint8[9][9]","name":"","type":"uint8[9][9]"}],"stateMutability":"view","type":"function"},{"inputs":[{"internalType":"uint8","name":"row","type":"uint8"},{"internalType":"uint8","name":"col","type":"uint8"},{"internalType":"uint8","name":"num","type":"uint8"}],"name":"isValid","outputs":[{"internalType":"bool","name":"","type":"bool"}],"stateMutability":"view","type":"function"},{"inputs":[{"internalType":"uint8","name":"row","type":"uint8"},{"internalType":"uint8","name":"col","type":"uint8"},{"internalType":"uint8","name":"num","type":"uint8"}],"name":"isValidSudoku","outputs":[{"internalType":"bool","name":"","type":"bool"}],"stateMutability":"view","type":"function"},{"inputs":[{"internalType":"uint8[9][9]","name":"newBoard","type":"uint8[9][9]"}],"name":"verifyWin","outputs":[],"stateMutability":"nonpayable","type":"function"}],"evm":{"bytecode":{"linkReferences":{},"object":"60806040523480156200001157600080fd5b506200001c62000022565b620006b3565b6200002f6000806200019b565b506009805460ff1916905560005b60028160ff161015620001985760006200005960094262000662565b9050600060096200006e60ff851643620005e8565b6200007b9190406200064b565b905060008260ff1660098110620000a257634e487b7160e01b600052603260045260246000fd5b018160ff1660098110620000c657634e487b7160e01b600052603260045260246000fd5b602081049091015460ff601f9092166101000a9004161562000180576000808360ff16600981106200010857634e487b7160e01b600052603260045260246000fd5b018260ff16600981106200012c57634e487b7160e01b600052603260045260246000fd5b60208104909101805460ff938416601f9093166101000a928302928402191691909117905560098054909116906000620001668362000628565b91906101000a81548160ff021916908360ff160217905550505b505080806200018f9062000628565b9150506200003d565b50565b60008160ff1660091415620001be576000915082620001ba8162000628565b9350505b8260ff1660091415620001d45750600162000390565b60008360ff1660098110620001f957634e487b7160e01b600052603260045260246000fd5b018260ff16600981106200021d57634e487b7160e01b600052603260045260246000fd5b602081049091015460ff601f9092166101000a90041615620002595762000251836200024b846001620005c0565b6200019b565b905062000390565b60015b60098160ff16116200038a576200027584848362000396565b1562000375578060008560ff1660098110620002a157634e487b7160e01b600052603260045260246000fd5b018460ff1660098110620002c557634e487b7160e01b600052603260045260246000fd5b602091828204019190066101000a81548160ff021916908360ff160217905550620002f9848460016200024b9190620005c0565b156200030a57600191505062000390565b6000808560ff16600981106200033057634e487b7160e01b600052603260045260246000fd5b018460ff16600981106200035457634e487b7160e01b600052603260045260246000fd5b602091828204019190066101000a81548160ff021916908360ff1602179055505b80620003818162000628565b9150506200025c565b50600090505b92915050565b6000805b60098160ff1610156200049d578260ff1660008660ff1660098110620003d057634e487b7160e01b600052603260045260246000fd5b018260ff1660098110620003f457634e487b7160e01b600052603260045260246000fd5b602081049091015460ff601f9092166101000a90041614806200047757508260ff1660008260ff16600981106200043b57634e487b7160e01b600052603260045260246000fd5b018560ff16600981106200045f57634e487b7160e01b600052603260045260246000fd5b602081049091015460ff601f9092166101000a900416145b1562000488576000915050620005b9565b80620004948162000628565b9150506200039a565b506000620004ad60038662000662565b620004b9908662000602565b90506000620004ca60038662000662565b620004d6908662000602565b905060005b60038160ff161015620005b15760005b60038160ff1610156200059b5760ff861660006200050a8487620005c0565b60ff16600981106200052c57634e487b7160e01b600052603260045260246000fd5b01620005398386620005c0565b60ff16600981106200055b57634e487b7160e01b600052603260045260246000fd5b602081049091015460ff601f9092166101000a900416141562000586576000945050505050620005b9565b80620005928162000628565b915050620004eb565b5080620005a88162000628565b915050620004db565b506001925050505b9392505050565b600060ff821660ff84168060ff03821115620005e057620005e062000687565b019392505050565b600082821015620005fd57620005fd62000687565b500390565b600060ff821660ff8416808210156200061f576200061f62000687565b90039392505050565b600060ff821660ff81141562000642576200064262000687565b60010192915050565b6000826200065d576200065d6200069d565b500690565b600060ff8316806200067857620006786200069d565b8060ff84160691505092915050565b634e487b7160e01b600052601160045260246000fd5b634e487b7160e01b600052601260045260246000fd5b610fce80620006c36000396000f3fe608060405234801561001057600080fd5b50600436106100885760003560e01c80639aa2c7e91161005b5780639aa2c7e9146100dd578063cf19f7ba146100fd578063d385c79b14610110578063fb18995b1461012357610088565b80632058e9061461008d5780633264a34b146100ab5780636cf5e0c1146100c057806371d3426b146100ca575b600080fd5b610095610136565b6040516100a29190610e48565b60405180910390f35b6100b361013f565b6040516100a29190610dd8565b6100c86101c7565b005b6100c86100d8366004610ca9565b61032d565b6100f06100eb366004610d96565b610486565b6040516100a29190610e3d565b6100f061010b366004610d96565b61068d565b6100f061011e366004610c82565b6108de565b610095610131366004610d75565b6108f3565b60095460ff1681565b610147610b0d565b6040805161012081019091526000600981835b828210156101be57604080516101208101918290529085840190600990826000855b825461010083900a900460ff1681526020600192830181810494850194909303909202910180841161017c57905050505050508152602001906001019061015a565b50505050905090565b6101d260008061092f565b506009805460ff1916905560005b60028160ff16101561032a5760006101f9600942610f34565b90506000600961020c60ff851643610ec6565b610217919040610f20565b905060008260ff166009811061023d57634e487b7160e01b600052603260045260246000fd5b018160ff166009811061026057634e487b7160e01b600052603260045260246000fd5b602081049091015460ff601f9092166101000a90041615610315576000808360ff16600981106102a057634e487b7160e01b600052603260045260246000fd5b018260ff16600981106102c357634e487b7160e01b600052603260045260246000fd5b60208104909101805460ff938416601f9093166101000a9283029284021916919091179055600980549091169060006102fb83610f00565b91906101000a81548160ff021916908360ff160217905550505b5050808061032290610f00565b9150506101e0565b50565b61033a6000826009610b3b565b5060005b60098160ff1610156104685760005b60098160ff161015610455576103c0828260008560ff166009811061038257634e487b7160e01b600052603260045260246000fd5b018460ff16600981106103a557634e487b7160e01b600052603260045260246000fd5b602081049091015460ff601f9092166101000a90041661068d565b1580610426575060008260ff16600981106103eb57634e487b7160e01b600052603260045260246000fd5b018160ff166009811061040e57634e487b7160e01b600052603260045260246000fd5b602081049091015460ff601f9092166101000a900416155b1561044357336000908152600a60205260409020805460ff191690555b8061044d81610f00565b91505061034d565b508061046081610f00565b91505061033e565b5050336000908152600a60205260409020805460ff19166001179055565b6000805b60098160ff161015610582578260ff1660008660ff16600981106104be57634e487b7160e01b600052603260045260246000fd5b018260ff16600981106104e157634e487b7160e01b600052603260045260246000fd5b602081049091015460ff601f9092166101000a900416148061056157508260ff1660008260ff166009811061052657634e487b7160e01b600052603260045260246000fd5b018560ff166009811061054957634e487b7160e01b600052603260045260246000fd5b602081049091015460ff601f9092166101000a900416145b15610570576000915050610686565b8061057a81610f00565b91505061048a565b506000610590600386610f34565b61059a9086610edd565b905060006105a9600386610f34565b6105b39086610edd565b905060005b60038160ff16101561067e5760005b60038160ff16101561066b5760ff861660006105e38487610ea1565b60ff166009811061060457634e487b7160e01b600052603260045260246000fd5b0161060f8386610ea1565b60ff166009811061063057634e487b7160e01b600052603260045260246000fd5b602081049091015460ff601f9092166101000a9004161415610659576000945050505050610686565b8061066381610f00565b9150506105c7565b508061067681610f00565b9150506105b8565b506001925050505b9392505050565b6000805b60098160ff1610156107ac578360ff168160ff161415801561071157508260ff1660008660ff16600981106106d657634e487b7160e01b600052603260045260246000fd5b018260ff16600981106106f957634e487b7160e01b600052603260045260246000fd5b602081049091015460ff601f9092166101000a900416145b8061078b57508460ff168160ff161415801561078b57508260ff1660008260ff166009811061075057634e487b7160e01b600052603260045260246000fd5b018560ff166009811061077357634e487b7160e01b600052603260045260246000fd5b602081049091015460ff601f9092166101000a900416145b1561079a576000915050610686565b806107a481610f00565b915050610691565b5060006107ba600386610f34565b6107c49086610edd565b905060006107d3600386610f34565b6107dd9086610edd565b905060005b60038160ff16101561067e5760005b60038160ff1610156108cb5760ff881661080b8386610ea1565b60ff161415801561082b575060ff87166108258285610ea1565b60ff1614155b80156108a7575060ff861660006108428487610ea1565b60ff166009811061086357634e487b7160e01b600052603260045260246000fd5b0161086e8386610ea1565b60ff166009811061088f57634e487b7160e01b600052603260045260246000fd5b602081049091015460ff601f9092166101000a900416145b156108b9576000945050505050610686565b806108c381610f00565b9150506107f1565b50806108d681610f00565b9150506107e2565b600a6020526000908152604090205460ff1681565b6000826009811061090357600080fd5b01816009811061091257600080fd5b602081049091015460ff601f9092166101000a9004169150829050565b60008160ff166009141561094f57600091508261094b81610f00565b9350505b8260ff166009141561096357506001610b07565b60008360ff166009811061098757634e487b7160e01b600052603260045260246000fd5b018260ff16600981106109aa57634e487b7160e01b600052603260045260246000fd5b602081049091015460ff601f9092166101000a900416156109e0576109d9836109d4846001610ea1565b61092f565b9050610b07565b60015b60098160ff1611610b01576109f9848483610486565b15610aef578060008560ff1660098110610a2357634e487b7160e01b600052603260045260246000fd5b018460ff1660098110610a4657634e487b7160e01b600052603260045260246000fd5b602091828204019190066101000a81548160ff021916908360ff160217905550610a77848460016109d49190610ea1565b15610a86576001915050610b07565b6000808560ff1660098110610aab57634e487b7160e01b600052603260045260246000fd5b018460ff1660098110610ace57634e487b7160e01b600052603260045260246000fd5b602091828204019190066101000a81548160ff021916908360ff1602179055505b80610af981610f00565b9150506109e3565b50600090505b92915050565b6040518061012001604052806009905b610b25610b85565b815260200190600190039081610b1d5790505090565b8260098101928215610b75579160200282015b82811115610b75578251610b659083906009610ba4565b5091602001919060010190610b4e565b50610b81929150610c33565b5090565b6040518061012001604052806009906020820280368337509192915050565b600183019183908215610c275791602002820160005b83821115610bf857835183826101000a81548160ff021916908360ff1602179055509260200192600101602081600001049283019260010302610bba565b8015610c255782816101000a81549060ff0219169055600101602081600001049283019260010302610bf8565b505b50610b81929150610c50565b80821115610b81576000610c478282610c65565b50600101610c33565b5b80821115610b815760008155600101610c51565b5060009055565b803560ff81168114610c7d57600080fd5b919050565b600060208284031215610c93578081fd5b81356001600160a01b0381168114610686578182fd5b6000610a20808385031215610cbc578182fd5b601f8481850112610ccb578283fd5b6009610cde610cd982610e80565b610e56565b8086888689011115610cee578687fd5b8695505b83861015610d69578885820112610d07578687fd5b610d13610cd985610e80565b808261012084018c811115610d26578a8bfd5b8a5b88811015610d4e57610d3983610c6c565b85526020948501949290920191600101610d28565b5091865250600197909701966020909401939150610cf29050565b50979650505050505050565b60008060408385031215610d87578081fd5b50508035926020909101359150565b600080600060608486031215610daa578081fd5b610db384610c6c565b9250610dc160208501610c6c565b9150610dcf60408501610c6c565b90509250925092565b610a20810181836000805b6009808210610df25750610e33565b835185845b83811015610e1857825160ff16825260209283019290910190600101610df7565b50505061012094909401935060209290920191600101610de3565b5050505092915050565b901515815260200190565b60ff91909116815260200190565b60405181810167ffffffffffffffff81118282101715610e7857610e78610f82565b604052919050565b600067ffffffffffffffff821115610e9a57610e9a610f82565b5060200290565b600060ff821660ff84168060ff03821115610ebe57610ebe610f56565b019392505050565b600082821015610ed857610ed8610f56565b500390565b600060ff821660ff841680821015610ef757610ef7610f56565b90039392505050565b600060ff821660ff811415610f1757610f17610f56565b60010192915050565b600082610f2f57610f2f610f6c565b500690565b600060ff831680610f4757610f47610f6c565b8060ff84160691505092915050565b634e487b7160e01b600052601160045260246000fd5b634e487b7160e01b600052601260045260246000fd5b634e487b7160e01b600052604160045260246000fdfea26469706673582212205672e49d5b79ed4e65123a86ab45534f0c60cd100f534e935bcecb9a78cac1a464736f6c63430008000033","opcodes":"PUSH1 0x80 PUSH1 0x40 MSTORE CALLVALUE DUP1 ISZERO PUSH3 0x11 JUMPI PUSH1 0x0 DUP1 REVERT JUMPDEST POP PUSH3 0x1C PUSH3 0x22 JUMP JUMPDEST PUSH3 0x6B3 JUMP JUMPDEST PUSH3 0x2F PUSH1 0x0 DUP1 PUSH3 0x19B JUMP JUMPDEST POP PUSH1 0x9 DUP1 SLOAD PUSH1 0xFF NOT AND SWAP1 SSTORE PUSH1 0x0 JUMPDEST PUSH1 0x2 DUP2 PUSH1 0xFF AND LT ISZERO PUSH3 0x198 JUMPI PUSH1 0x0 PUSH3 0x59 PUSH1 0x9 TIMESTAMP PUSH3 0x662 JUMP JUMPDEST SWAP1 POP PUSH1 0x0 PUSH1 0x9 PUSH3 0x6E PUSH1 0xFF DUP6 AND NUMBER PUSH3 0x5E8 JUMP JUMPDEST PUSH3 0x7B SWAP2 SWAP1 BLOCKHASH PUSH3 0x64B JUMP JUMPDEST SWAP1 POP PUSH1 0x0 DUP3 PUSH1 0xFF AND PUSH1 0x9 DUP2 LT PUSH3 0xA2 JUMPI PUSH4 0x4E487B71 PUSH1 0xE0 SHL PUSH1 0x0 MSTORE PUSH1 0x32 PUSH1 0x4 MSTORE PUSH1 0x24 PUSH1 0x0 REVERT JUMPDEST ADD DUP2 PUSH1 0xFF AND PUSH1 0x9 DUP2 LT PUSH3 0xC6 JUMPI PUSH4 0x4E487B71 PUSH1 0xE0 SHL PUSH1 0x0 MSTORE PUSH1 0x32 PUSH1 0x4 MSTORE PUSH1 0x24 PUSH1 0x0 REVERT JUMPDEST PUSH1 0x20 DUP2 DIV SWAP1 SWAP2 ADD SLOAD PUSH1 0xFF PUSH1 0x1F SWAP1 SWAP3 AND PUSH2 0x100 EXP SWAP1 DIV AND ISZERO PUSH3 0x180 JUMPI PUSH1 0x0 DUP1 DUP4 PUSH1 0xFF AND PUSH1 0x9 DUP2 LT PUSH3 0x108 JUMPI PUSH4 0x4E487B71 PUSH1 0xE0 SHL PUSH1 0x0 MSTORE PUSH1 0x32 PUSH1 0x4 MSTORE PUSH1 0x24 PUSH1 0x0 REVERT JUMPDEST ADD DUP3 PUSH1 0xFF AND PUSH1 0x9 DUP2 LT PUSH3 0x12C JUMPI PUSH4 0x4E487B71 PUSH1 0xE0 SHL PUSH1 0x0 MSTORE PUSH1 0x32 PUSH1 0x4 MSTORE PUSH1 0x24 PUSH1 0x0 REVERT JUMPDEST PUSH1 0x20 DUP2 DIV SWAP1 SWAP2 ADD DUP1 SLOAD PUSH1 0xFF SWAP4 DUP5 AND PUSH1 0x1F SWAP1 SWAP4 AND PUSH2 0x100 EXP SWAP3 DUP4 MUL SWAP3 DUP5 MUL NOT AND SWAP2 SWAP1 SWAP2 OR SWAP1 SSTORE PUSH1 0x9 DUP1 SLOAD SWAP1 SWAP2 AND SWAP1 PUSH1 0x0 PUSH3 0x166 DUP4 PUSH3 0x628 JUMP JUMPDEST SWAP2 SWAP1 PUSH2 0x100 EXP DUP2 SLOAD DUP2 PUSH1 0xFF MUL NOT AND SWAP1 DUP4 PUSH1 0xFF AND MUL OR SWAP1 SSTORE POP POP JUMPDEST POP POP DUP1 DUP1 PUSH3 0x18F SWAP1 PUSH3 0x628 JUMP JUMPDEST SWAP2 POP POP PUSH3 0x3D JUMP JUMPDEST POP JUMP JUMPDEST PUSH1 0x0 DUP2 PUSH1 0xFF AND PUSH1 0x9 EQ ISZERO PUSH3 0x1BE JUMPI PUSH1 0x0 SWAP2 POP DUP3 PUSH3 0x1BA DUP2 PUSH3 0x628 JUMP JUMPDEST SWAP4 POP POP JUMPDEST DUP3 PUSH1 0xFF AND PUSH1 0x9 EQ ISZERO PUSH3 0x1D4 JUMPI POP PUSH1 0x1 PUSH3 0x390 JUMP JUMPDEST PUSH1 0x0 DUP4 PUSH1 0xFF AND PUSH1 0x9 DUP2 LT PUSH3 0x1F9 JUMPI PUSH4 0x4E487B71 PUSH1 0xE0 SHL PUSH1 0x0 MSTORE PUSH1 0x32 PUSH1 0x4 MSTORE PUSH1 0x24 PUSH1 0x0 REVERT JUMPDEST ADD DUP3 PUSH1 0xFF AND PUSH1 0x9 DUP2 LT PUSH3 0x21D JUMPI PUSH4 0x4E487B71 PUSH1 0xE0 SHL PUSH1 0x0 MSTORE PUSH1 0x32 PUSH1 0x4 MSTORE PUSH1 0x24 PUSH1 0x0 REVERT JUMPDEST PUSH1 0x20 DUP2 DIV SWAP1 SWAP2 ADD SLOAD PUSH1 0xFF PUSH1 0x1F SWAP1 SWAP3 AND PUSH2 0x100 EXP SWAP1 DIV AND ISZERO PUSH3 0x259 JUMPI PUSH3 0x251 DUP4 PUSH3 0x24B DUP5 PUSH1 0x1 PUSH3 0x5C0 JUMP JUMPDEST PUSH3 0x19B JUMP JUMPDEST SWAP1 POP PUSH3 0x390 JUMP JUMPDEST PUSH1 0x1 JUMPDEST PUSH1 0x9 DUP2 PUSH1 0xFF AND GT PUSH3 0x38A JUMPI PUSH3 0x275 DUP5 DUP5 DUP4 PUSH3 0x396 JUMP JUMPDEST ISZERO PUSH3 0x375 JUMPI DUP1 PUSH1 0x0 DUP6 PUSH1 0xFF AND PUSH1 0x9 DUP2 LT PUSH3 0x2A1 JUMPI PUSH4 0x4E487B71 PUSH1 0xE0 SHL PUSH1 0x0 MSTORE PUSH1 0x32 PUSH1 0x4 MSTORE PUSH1 0x24 PUSH1 0x0 REVERT JUMPDEST ADD DUP5 PUSH1 0xFF AND PUSH1 0x9 DUP2 LT PUSH3 0x2C5 JUMPI PUSH4 0x4E487B71 PUSH1 0xE0 SHL PUSH1 0x0 MSTORE PUSH1 0x32 PUSH1 0x4 MSTORE PUSH1 0x24 PUSH1 0x0 REVERT JUMPDEST PUSH1 0x20 SWAP2 DUP3 DUP3 DIV ADD SWAP2 SWAP1 MOD PUSH2 0x100 EXP DUP2 SLOAD DUP2 PUSH1 0xFF MUL NOT AND SWAP1 DUP4 PUSH1 0xFF AND MUL OR SWAP1 SSTORE POP PUSH3 0x2F9 DUP5 DUP5 PUSH1 0x1 PUSH3 0x24B SWAP2 SWAP1 PUSH3 0x5C0 JUMP JUMPDEST ISZERO PUSH3 0x30A JUMPI PUSH1 0x1 SWAP2 POP POP PUSH3 0x390 JUMP JUMPDEST PUSH1 0x0 DUP1 DUP6 PUSH1 0xFF AND PUSH1 0x9 DUP2 LT PUSH3 0x330 JUMPI PUSH4 0x4E487B71 PUSH1 0xE0 SHL PUSH1 0x0 MSTORE PUSH1 0x32 PUSH1 0x4 MSTORE PUSH1 0x24 PUSH1 0x0 REVERT JUMPDEST ADD DUP5 PUSH1 0xFF AND PUSH1 0x9 DUP2 LT PUSH3 0x354 JUMPI PUSH4 0x4E487B71 PUSH1 0xE0 SHL PUSH1 0x0 MSTORE PUSH1 0x32 PUSH1 0x4 MSTORE PUSH1 0x24 PUSH1 0x0 REVERT JUMPDEST PUSH1 0x20 SWAP2 DUP3 DUP3 DIV ADD SWAP2 SWAP1 MOD PUSH2 0x100 EXP DUP2 SLOAD DUP2 PUSH1 0xFF MUL NOT AND SWAP1 DUP4 PUSH1 0xFF AND MUL OR SWAP1 SSTORE POP JUMPDEST DUP1 PUSH3 0x381 DUP2 PUSH3 0x628 JUMP JUMPDEST SWAP2 POP POP PUSH3 0x25C JUMP JUMPDEST POP PUSH1 0x0 SWAP1 POP JUMPDEST SWAP3 SWAP2 POP POP JUMP JUMPDEST PUSH1 0x0 DUP1 JUMPDEST PUSH1 0x9 DUP2 PUSH1 0xFF AND LT ISZERO PUSH3 0x49D JUMPI DUP3 PUSH1 0xFF AND PUSH1 0x0 DUP7 PUSH1 0xFF AND PUSH1 0x9 DUP2 LT PUSH3 0x3D0 JUMPI PUSH4 0x4E487B71 PUSH1 0xE0 SHL PUSH1 0x0 MSTORE PUSH1 0x32 PUSH1 0x4 MSTORE PUSH1 0x24 PUSH1 0x0 REVERT JUMPDEST ADD DUP3 PUSH1 0xFF AND PUSH1 0x9 DUP2 LT PUSH3 0x3F4 JUMPI PUSH4 0x4E487B71 PUSH1 0xE0 SHL PUSH1 0x0 MSTORE PUSH1 0x32 PUSH1 0x4 MSTORE PUSH1 0x24 PUSH1 0x0 REVERT JUMPDEST PUSH1 0x20 DUP2 DIV SWAP1 SWAP2 ADD SLOAD PUSH1 0xFF PUSH1 0x1F SWAP1 SWAP3 AND PUSH2 0x100 EXP SWAP1 DIV AND EQ DUP1 PUSH3 0x477 JUMPI POP DUP3 PUSH1 0xFF AND PUSH1 0x0 DUP3 PUSH1 0xFF AND PUSH1 0x9 DUP2 LT PUSH3 0x43B JUMPI PUSH4 0x4E487B71 PUSH1 0xE0 SHL PUSH1 0x0 MSTORE PUSH1 0x32 PUSH1 0x4 MSTORE PUSH1 0x24 PUSH1 0x0 REVERT JUMPDEST ADD DUP6 PUSH1 0xFF AND PUSH1 0x9 DUP2 LT PUSH3 0x45F JUMPI PUSH4 0x4E487B71 PUSH1 0xE0 SHL PUSH1 0x0 MSTORE PUSH1 0x32 PUSH1 0x4 MSTORE PUSH1 0x24 PUSH1 0x0 REVERT JUMPDEST PUSH1 0x20 DUP2 DIV SWAP1 SWAP2 ADD SLOAD PUSH1 0xFF PUSH1 0x1F SWAP1 SWAP3 AND PUSH2 0x100 EXP SWAP1 DIV AND EQ JUMPDEST ISZERO PUSH3 0x488 JUMPI PUSH1 0x0 SWAP2 POP POP PUSH3 0x5B9 JUMP JUMPDEST DUP1 PUSH3 0x494 DUP2 PUSH3 0x628 JUMP JUMPDEST SWAP2 POP POP PUSH3 0x39A JUMP JUMPDEST POP PUSH1 0x0 PUSH3 0x4AD PUSH1 0x3 DUP7 PUSH3 0x662 JUMP JUMPDEST PUSH3 0x4B9 SWAP1 DUP7 PUSH3 0x602 JUMP JUMPDEST SWAP1 POP PUSH1 0x0 PUSH3 0x4CA PUSH1 0x3 DUP7 PUSH3 0x662 JUMP JUMPDEST PUSH3 0x4D6 SWAP1 DUP7 PUSH3 0x602 JUMP JUMPDEST SWAP1 POP PUSH1 0x0 JUMPDEST PUSH1 0x3 DUP2 PUSH1 0xFF AND LT ISZERO PUSH3 0x5B1 JUMPI PUSH1 0x0 JUMPDEST PUSH1 0x3 DUP2 PUSH1 0xFF AND LT ISZERO PUSH3 0x59B JUMPI PUSH1 0xFF DUP7 AND PUSH1 0x0 PUSH3 0x50A DUP5 DUP8 PUSH3 0x5C0 JUMP JUMPDEST PUSH1 0xFF AND PUSH1 0x9 DUP2 LT PUSH3 0x52C JUMPI PUSH4 0x4E487B71 PUSH1 0xE0 SHL PUSH1 0x0 MSTORE PUSH1 0x32 PUSH1 0x4 MSTORE PUSH1 0x24 PUSH1 0x0 REVERT JUMPDEST ADD PUSH3 0x539 DUP4 DUP7 PUSH3 0x5C0 JUMP JUMPDEST PUSH1 0xFF AND PUSH1 0x9 DUP2 LT PUSH3 0x55B JUMPI PUSH4 0x4E487B71 PUSH1 0xE0 SHL PUSH1 0x0 MSTORE PUSH1 0x32 PUSH1 0x4 MSTORE PUSH1 0x24 PUSH1 0x0 REVERT JUMPDEST PUSH1 0x20 DUP2 DIV SWAP1 SWAP2 ADD SLOAD PUSH1 0xFF PUSH1 0x1F SWAP1 SWAP3 AND PUSH2 0x100 EXP SWAP1 DIV AND EQ ISZERO PUSH3 0x586 JUMPI PUSH1 0x0 SWAP5 POP POP POP POP POP PUSH3 0x5B9 JUMP JUMPDEST DUP1 PUSH3 0x592 DUP2 PUSH3 0x628 JUMP JUMPDEST SWAP2 POP POP PUSH3 0x4EB JUMP JUMPDEST POP DUP1 PUSH3 0x5A8 DUP2 PUSH3 0x628 JUMP JUMPDEST SWAP2 POP POP PUSH3 0x4DB JUMP JUMPDEST POP PUSH1 0x1 SWAP3 POP POP POP JUMPDEST SWAP4 SWAP3 POP POP POP JUMP JUMPDEST PUSH1 0x0 PUSH1 0xFF DUP3 AND PUSH1 0xFF DUP5 AND DUP1 PUSH1 0xFF SUB DUP3 GT ISZERO PUSH3 0x5E0 JUMPI PUSH3 0x5E0 PUSH3 0x687 JUMP JUMPDEST ADD SWAP4 SWAP3 POP POP POP JUMP JUMPDEST PUSH1 0x0 DUP3 DUP3 LT ISZERO PUSH3 0x5FD JUMPI PUSH3 0x5FD PUSH3 0x687 JUMP JUMPDEST POP SUB SWAP1 JUMP JUMPDEST PUSH1 0x0 PUSH1 0xFF DUP3 AND PUSH1 0xFF DUP5 AND DUP1 DUP3 LT ISZERO PUSH3 0x61F JUMPI PUSH3 0x61F PUSH3 0x687 JUMP JUMPDEST SWAP1 SUB SWAP4 SWAP3 POP POP POP JUMP JUMPDEST PUSH1 0x0 PUSH1 0xFF DUP3 AND PUSH1 0xFF DUP2 EQ ISZERO PUSH3 0x642 JUMPI PUSH3 0x642 PUSH3 0x687 JUMP JUMPDEST PUSH1 0x1 ADD SWAP3 SWAP2 POP POP JUMP JUMPDEST PUSH1 0x0 DUP3 PUSH3 0x65D JUMPI PUSH3 0x65D PUSH3 0x69D JUMP JUMPDEST POP MOD SWAP1 JUMP JUMPDEST PUSH1 0x0 PUSH1 0xFF DUP4 AND DUP1 PUSH3 0x678 JUMPI PUSH3 0x678 PUSH3 0x69D JUMP JUMPDEST DUP1 PUSH1 0xFF DUP5 AND MOD SWAP2 POP POP SWAP3 SWAP2 POP POP JUMP JUMPDEST PUSH4 0x4E487B71 PUSH1 0xE0 SHL PUSH1 0x0 MSTORE PUSH1 0x11 PUSH1 0x4 MSTORE PUSH1 0x24 PUSH1 0x0 REVERT JUMPDEST PUSH4 0x4E487B71 PUSH1 0xE0 SHL PUSH1 0x0 MSTORE PUSH1 0x12 PUSH1 0x4 MSTORE PUSH1 0x24 PUSH1 0x0 REVERT JUMPDEST PUSH2 0xFCE DUP1 PUSH3 0x6C3 PUSH1 0x0 CODECOPY PUSH1 0x0 RETURN INVALID PUSH1 0x80 PUSH1 0x40 MSTORE CALLVALUE DUP1 ISZERO PUSH2 0x10 JUMPI PUSH1 0x0 DUP1 REVERT JUMPDEST POP PUSH1 0x4 CALLDATASIZE LT PUSH2 0x88 JUMPI PUSH1 0x0 CALLDATALOAD PUSH1 0xE0 SHR DUP1 PUSH4 0x9AA2C7E9 GT PUSH2 0x5B JUMPI DUP1 PUSH4 0x9AA2C7E9 EQ PUSH2 0xDD JUMPI DUP1 PUSH4 0xCF19F7BA EQ PUSH2 0xFD JUMPI DUP1 PUSH4 0xD385C79B EQ PUSH2 0x110 JUMPI DUP1 PUSH4 0xFB18995B EQ PUSH2 0x123 JUMPI PUSH2 0x88 JUMP JUMPDEST DUP1 PUSH4 0x2058E906 EQ PUSH2 0x8D JUMPI DUP1 PUSH4 0x3264A34B EQ PUSH2 0xAB JUMPI DUP1 PUSH4 0x6CF5E0C1 EQ PUSH2 0xC0 JUMPI DUP1 PUSH4 0x71D3426B EQ PUSH2 0xCA JUMPI JUMPDEST PUSH1 0x0 DUP1 REVERT JUMPDEST PUSH2 0x95 PUSH2 0x136 JUMP JUMPDEST PUSH1 0x40 MLOAD PUSH2 0xA2 SWAP2 SWAP1 PUSH2 0xE48 JUMP JUMPDEST PUSH1 0x40 MLOAD DUP1 SWAP2 SUB SWAP1 RETURN JUMPDEST PUSH2 0xB3 PUSH2 0x13F JUMP JUMPDEST PUSH1 0x40 MLOAD PUSH2 0xA2 SWAP2 SWAP1 PUSH2 0xDD8 JUMP JUMPDEST PUSH2 0xC8 PUSH2 0x1C7 JUMP JUMPDEST STOP JUMPDEST PUSH2 0xC8 PUSH2 0xD8 CALLDATASIZE PUSH1 0x4 PUSH2 0xCA9 JUMP JUMPDEST PUSH2 0x32D JUMP JUMPDEST PUSH2 0xF0 PUSH2 0xEB CALLDATASIZE PUSH1 0x4 PUSH2 0xD96 JUMP JUMPDEST PUSH2 0x486 JUMP JUMPDEST PUSH1 0x40 MLOAD PUSH2 0xA2 SWAP2 SWAP1 PUSH2 0xE3D JUMP JUMPDEST PUSH2 0xF0 PUSH2 0x10B CALLDATASIZE PUSH1 0x4 PUSH2 0xD96 JUMP JUMPDEST PUSH2 0x68D JUMP JUMPDEST PUSH2 0xF0 PUSH2 0x11E CALLDATASIZE PUSH1 0x4 PUSH2 0xC82 JUMP JUMPDEST PUSH2 0x8DE JUMP JUMPDEST PUSH2 0x95 PUSH2 0x131 CALLDATASIZE PUSH1 0x4 PUSH2 0xD75 JUMP JUMPDEST PUSH2 0x8F3 JUMP JUMPDEST PUSH1 0x9 SLOAD PUSH1 0xFF AND DUP2 JUMP JUMPDEST PUSH2 0x147 PUSH2 0xB0D JUMP JUMPDEST PUSH1 0x40 DUP1 MLOAD PUSH2 0x120 DUP2 ADD SWAP1 SWAP2 MSTORE PUSH1 0x0 PUSH1 0x9 DUP2 DUP4 JUMPDEST DUP3 DUP3 LT ISZERO PUSH2 0x1BE JUMPI PUSH1 0x40 DUP1 MLOAD PUSH2 0x120 DUP2 ADD SWAP2 DUP3 SWAP1 MSTORE SWAP1 DUP6 DUP5 ADD SWAP1 PUSH1 0x9 SWAP1 DUP3 PUSH1 0x0 DUP6 JUMPDEST DUP3 SLOAD PUSH2 0x100 DUP4 SWAP1 EXP SWAP1 DIV PUSH1 0xFF AND DUP2 MSTORE PUSH1 0x20 PUSH1 0x1 SWAP3 DUP4 ADD DUP2 DUP2 DIV SWAP5 DUP6 ADD SWAP5 SWAP1 SWAP4 SUB SWAP1 SWAP3 MUL SWAP2 ADD DUP1 DUP5 GT PUSH2 0x17C JUMPI SWAP1 POP POP POP POP POP POP DUP2 MSTORE PUSH1 0x20 ADD SWAP1 PUSH1 0x1 ADD SWAP1 PUSH2 0x15A JUMP JUMPDEST POP POP POP POP SWAP1 POP SWAP1 JUMP JUMPDEST PUSH2 0x1D2 PUSH1 0x0 DUP1 PUSH2 0x92F JUMP JUMPDEST POP PUSH1 0x9 DUP1 SLOAD PUSH1 0xFF NOT AND SWAP1 SSTORE PUSH1 0x0 JUMPDEST PUSH1 0x2 DUP2 PUSH1 0xFF AND LT ISZERO PUSH2 0x32A JUMPI PUSH1 0x0 PUSH2 0x1F9 PUSH1 0x9 TIMESTAMP PUSH2 0xF34 JUMP JUMPDEST SWAP1 POP PUSH1 0x0 PUSH1 0x9 PUSH2 0x20C PUSH1 0xFF DUP6 AND NUMBER PUSH2 0xEC6 JUMP JUMPDEST PUSH2 0x217 SWAP2 SWAP1 BLOCKHASH PUSH2 0xF20 JUMP JUMPDEST SWAP1 POP PUSH1 0x0 DUP3 PUSH1 0xFF AND PUSH1 0x9 DUP2 LT PUSH2 0x23D JUMPI PUSH4 0x4E487B71 PUSH1 0xE0 SHL PUSH1 0x0 MSTORE PUSH1 0x32 PUSH1 0x4 MSTORE PUSH1 0x24 PUSH1 0x0 REVERT JUMPDEST ADD DUP2 PUSH1 0xFF AND PUSH1 0x9 DUP2 LT PUSH2 0x260 JUMPI PUSH4 0x4E487B71 PUSH1 0xE0 SHL PUSH1 0x0 MSTORE PUSH1 0x32 PUSH1 0x4 MSTORE PUSH1 0x24 PUSH1 0x0 REVERT JUMPDEST PUSH1 0x20 DUP2 DIV SWAP1 SWAP2 ADD SLOAD PUSH1 0xFF PUSH1 0x1F SWAP1 SWAP3 AND PUSH2 0x100 EXP SWAP1 DIV AND ISZERO PUSH2 0x315 JUMPI PUSH1 0x0 DUP1 DUP4 PUSH1 0xFF AND PUSH1 0x9 DUP2 LT PUSH2 0x2A0 JUMPI PUSH4 0x4E487B71 PUSH1 0xE0 SHL PUSH1 0x0 MSTORE PUSH1 0x32 PUSH1 0x4 MSTORE PUSH1 0x24 PUSH1 0x0 REVERT JUMPDEST ADD DUP3 PUSH1 0xFF AND PUSH1 0x9 DUP2 LT PUSH2 0x2C3 JUMPI PUSH4 0x4E487B71 PUSH1 0xE0 SHL PUSH1 0x0 MSTORE PUSH1 0x32 PUSH1 0x4 MSTORE PUSH1 0x24 PUSH1 0x0 REVERT JUMPDEST PUSH1 0x20 DUP2 DIV SWAP1 SWAP2 ADD DUP1 SLOAD PUSH1 0xFF SWAP4 DUP5 AND PUSH1 0x1F SWAP1 SWAP4 AND PUSH2 0x100 EXP SWAP3 DUP4 MUL SWAP3 DUP5 MUL NOT AND SWAP2 SWAP1 SWAP2 OR SWAP1 SSTORE PUSH1 0x9 DUP1 SLOAD SWAP1 SWAP2 AND SWAP1 PUSH1 0x0 PUSH2 0x2FB DUP4 PUSH2 0xF00 JUMP JUMPDEST SWAP2 SWAP1 PUSH2 0x100 EXP DUP2 SLOAD DUP2 PUSH1 0xFF MUL NOT AND SWAP1 DUP4 PUSH1 0xFF AND MUL OR SWAP1 SSTORE POP POP JUMPDEST POP POP DUP1 DUP1 PUSH2 0x322 SWAP1 PUSH2 0xF00 JUMP JUMPDEST SWAP2 POP POP PUSH2 0x1E0 JUMP JUMPDEST POP JUMP JUMPDEST PUSH2 0x33A PUSH1 0x0 DUP3 PUSH1 0x9 PUSH2 0xB3B JUMP JUMPDEST POP PUSH1 0x0 JUMPDEST PUSH1 0x9 DUP2 PUSH1 0xFF AND LT ISZERO PUSH2 0x468 JUMPI PUSH1 0x0 JUMPDEST PUSH1 0x9 DUP2 PUSH1 0xFF AND LT ISZERO PUSH2 0x455 JUMPI PUSH2 0x3C0 DUP3 DUP3 PUSH1 0x0 DUP6 PUSH1 0xFF AND PUSH1 0x9 DUP2 LT PUSH2 0x382 JUMPI PUSH4 0x4E487B71 PUSH1 0xE0 SHL PUSH1 0x0 MSTORE PUSH1 0x32 PUSH1 0x4 MSTORE PUSH1 0x24 PUSH1 0x0 REVERT JUMPDEST ADD DUP5 PUSH1 0xFF AND PUSH1 0x9 DUP2 LT PUSH2 0x3A5 JUMPI PUSH4 0x4E487B71 PUSH1 0xE0 SHL PUSH1 0x0 MSTORE PUSH1 0x32 PUSH1 0x4 MSTORE PUSH1 0x24 PUSH1 0x0 REVERT JUMPDEST PUSH1 0x20 DUP2 DIV SWAP1 SWAP2 ADD SLOAD PUSH1 0xFF PUSH1 0x1F SWAP1 SWAP3 AND PUSH2 0x100 EXP SWAP1 DIV AND PUSH2 0x68D JUMP JUMPDEST ISZERO DUP1 PUSH2 0x426 JUMPI POP PUSH1 0x0 DUP3 PUSH1 0xFF AND PUSH1 0x9 DUP2 LT PUSH2 0x3EB JUMPI PUSH4 0x4E487B71 PUSH1 0xE0 SHL PUSH1 0x0 MSTORE PUSH1 0x32 PUSH1 0x4 MSTORE PUSH1 0x24 PUSH1 0x0 REVERT JUMPDEST ADD DUP2 PUSH1 0xFF AND PUSH1 0x9 DUP2 LT PUSH2 0x40E JUMPI PUSH4 0x4E487B71 PUSH1 0xE0 SHL PUSH1 0x0 MSTORE PUSH1 0x32 PUSH1 0x4 MSTORE PUSH1 0x24 PUSH1 0x0 REVERT JUMPDEST PUSH1 0x20 DUP2 DIV SWAP1 SWAP2 ADD SLOAD PUSH1 0xFF PUSH1 0x1F SWAP1 SWAP3 AND PUSH2 0x100 EXP SWAP1 DIV AND ISZERO JUMPDEST ISZERO PUSH2 0x443 JUMPI CALLER PUSH1 0x0 SWAP1 DUP2 MSTORE PUSH1 0xA PUSH1 0x20 MSTORE PUSH1 0x40 SWAP1 KECCAK256 DUP1 SLOAD PUSH1 0xFF NOT AND SWAP1 SSTORE JUMPDEST DUP1 PUSH2 0x44D DUP2 PUSH2 0xF00 JUMP JUMPDEST SWAP2 POP POP PUSH2 0x34D JUMP JUMPDEST POP DUP1 PUSH2 0x460 DUP2 PUSH2 0xF00 JUMP JUMPDEST SWAP2 POP POP PUSH2 0x33E JUMP JUMPDEST POP POP CALLER PUSH1 0x0 SWAP1 DUP2 MSTORE PUSH1 0xA PUSH1 0x20 MSTORE PUSH1 0x40 SWAP1 KECCAK256 DUP1 SLOAD PUSH1 0xFF NOT AND PUSH1 0x1 OR SWAP1 SSTORE JUMP JUMPDEST PUSH1 0x0 DUP1 JUMPDEST PUSH1 0x9 DUP2 PUSH1 0xFF AND LT ISZERO PUSH2 0x582 JUMPI DUP3 PUSH1 0xFF AND PUSH1 0x0 DUP7 PUSH1 0xFF AND PUSH1 0x9 DUP2 LT PUSH2 0x4BE JUMPI PUSH4 0x4E487B71 PUSH1 0xE0 SHL PUSH1 0x0 MSTORE PUSH1 0x32 PUSH1 0x4 MSTORE PUSH1 0x24 PUSH1 0x0 REVERT JUMPDEST ADD DUP3 PUSH1 0xFF AND PUSH1 0x9 DUP2 LT PUSH2 0x4E1 JUMPI PUSH4 0x4E487B71 PUSH1 0xE0 SHL PUSH1 0x0 MSTORE PUSH1 0x32 PUSH1 0x4 MSTORE PUSH1 0x24 PUSH1 0x0 REVERT JUMPDEST PUSH1 0x20 DUP2 DIV SWAP1 SWAP2 ADD SLOAD PUSH1 0xFF PUSH1 0x1F SWAP1 SWAP3 AND PUSH2 0x100 EXP SWAP1 DIV AND EQ DUP1 PUSH2 0x561 JUMPI POP DUP3 PUSH1 0xFF AND PUSH1 0x0 DUP3 PUSH1 0xFF AND PUSH1 0x9 DUP2 LT PUSH2 0x526 JUMPI PUSH4 0x4E487B71 PUSH1 0xE0 SHL PUSH1 0x0 MSTORE PUSH1 0x32 PUSH1 0x4 MSTORE PUSH1 0x24 PUSH1 0x0 REVERT JUMPDEST ADD DUP6 PUSH1 0xFF AND PUSH1 0x9 DUP2 LT PUSH2 0x549 JUMPI PUSH4 0x4E487B71 PUSH1 0xE0 SHL PUSH1 0x0 MSTORE PUSH1 0x32 PUSH1 0x4 MSTORE PUSH1 0x24 PUSH1 0x0 REVERT JUMPDEST PUSH1 0x20 DUP2 DIV SWAP1 SWAP2 ADD SLOAD PUSH1 0xFF PUSH1 0x1F SWAP1 SWAP3 AND PUSH2 0x100 EXP SWAP1 DIV AND EQ JUMPDEST ISZERO PUSH2 0x570 JUMPI PUSH1 0x0 SWAP2 POP POP PUSH2 0x686 JUMP JUMPDEST DUP1 PUSH2 0x57A DUP2 PUSH2 0xF00 JUMP JUMPDEST SWAP2 POP POP PUSH2 0x48A JUMP JUMPDEST POP PUSH1 0x0 PUSH2 0x590 PUSH1 0x3 DUP7 PUSH2 0xF34 JUMP JUMPDEST PUSH2 0x59A SWAP1 DUP7 PUSH2 0xEDD JUMP JUMPDEST SWAP1 POP PUSH1 0x0 PUSH2 0x5A9 PUSH1 0x3 DUP7 PUSH2 0xF34 JUMP JUMPDEST PUSH2 0x5B3 SWAP1 DUP7 PUSH2 0xEDD JUMP JUMPDEST SWAP1 POP PUSH1 0x0 JUMPDEST PUSH1 0x3 DUP2 PUSH1 0xFF AND LT ISZERO PUSH2 0x67E JUMPI PUSH1 0x0 JUMPDEST PUSH1 0x3 DUP2 PUSH1 0xFF AND LT ISZERO PUSH2 0x66B JUMPI PUSH1 0xFF DUP7 AND PUSH1 0x0 PUSH2 0x5E3 DUP5 DUP8 PUSH2 0xEA1 JUMP JUMPDEST PUSH1 0xFF AND PUSH1 0x9 DUP2 LT PUSH2 0x604 JUMPI PUSH4 0x4E487B71 PUSH1 0xE0 SHL PUSH1 0x0 MSTORE PUSH1 0x32 PUSH1 0x4 MSTORE PUSH1 0x24 PUSH1 0x0 REVERT JUMPDEST ADD PUSH2 0x60F DUP4 DUP7 PUSH2 0xEA1 JUMP JUMPDEST PUSH1 0xFF AND PUSH1 0x9 DUP2 LT PUSH2 0x630 JUMPI PUSH4 0x4E487B71 PUSH1 0xE0 SHL PUSH1 0x0 MSTORE PUSH1 0x32 PUSH1 0x4 MSTORE PUSH1 0x24 PUSH1 0x0 REVERT JUMPDEST PUSH1 0x20 DUP2 DIV SWAP1 SWAP2 ADD SLOAD PUSH1 0xFF PUSH1 0x1F SWAP1 SWAP3 AND PUSH2 0x100 EXP SWAP1 DIV AND EQ ISZERO PUSH2 0x659 JUMPI PUSH1 0x0 SWAP5 POP POP POP POP POP PUSH2 0x686 JUMP JUMPDEST DUP1 PUSH2 0x663 DUP2 PUSH2 0xF00 JUMP JUMPDEST SWAP2 POP POP PUSH2 0x5C7 JUMP JUMPDEST POP DUP1 PUSH2 0x676 DUP2 PUSH2 0xF00 JUMP JUMPDEST SWAP2 POP POP PUSH2 0x5B8 JUMP JUMPDEST POP PUSH1 0x1 SWAP3 POP POP POP JUMPDEST SWAP4 SWAP3 POP POP POP JUMP JUMPDEST PUSH1 0x0 DUP1 JUMPDEST PUSH1 0x9 DUP2 PUSH1 0xFF AND LT ISZERO PUSH2 0x7AC JUMPI DUP4 PUSH1 0xFF AND DUP2 PUSH1 0xFF AND EQ ISZERO DUP1 ISZERO PUSH2 0x711 JUMPI POP DUP3 PUSH1 0xFF AND PUSH1 0x0 DUP7 PUSH1 0xFF AND PUSH1 0x9 DUP2 LT PUSH2 0x6D6 JUMPI PUSH4 0x4E487B71 PUSH1 0xE0 SHL PUSH1 0x0 MSTORE PUSH1 0x32 PUSH1 0x4 MSTORE PUSH1 0x24 PUSH1 0x0 REVERT JUMPDEST ADD DUP3 PUSH1 0xFF AND PUSH1 0x9 DUP2 LT PUSH2 0x6F9 JUMPI PUSH4 0x4E487B71 PUSH1 0xE0 SHL PUSH1 0x0 MSTORE PUSH1 0x32 PUSH1 0x4 MSTORE PUSH1 0x24 PUSH1 0x0 REVERT JUMPDEST PUSH1 0x20 DUP2 DIV SWAP1 SWAP2 ADD SLOAD PUSH1 0xFF PUSH1 0x1F SWAP1 SWAP3 AND PUSH2 0x100 EXP SWAP1 DIV AND EQ JUMPDEST DUP1 PUSH2 0x78B JUMPI POP DUP5 PUSH1 0xFF AND DUP2 PUSH1 0xFF AND EQ ISZERO DUP1 ISZERO PUSH2 0x78B JUMPI POP DUP3 PUSH1 0xFF AND PUSH1 0x0 DUP3 PUSH1 0xFF AND PUSH1 0x9 DUP2 LT PUSH2 0x750 JUMPI PUSH4 0x4E487B71 PUSH1 0xE0 SHL PUSH1 0x0 MSTORE PUSH1 0x32 PUSH1 0x4 MSTORE PUSH1 0x24 PUSH1 0x0 REVERT JUMPDEST ADD DUP6 PUSH1 0xFF AND PUSH1 0x9 DUP2 LT PUSH2 0x773 JUMPI PUSH4 0x4E487B71 PUSH1 0xE0 SHL PUSH1 0x0 MSTORE PUSH1 0x32 PUSH1 0x4 MSTORE PUSH1 0x24 PUSH1 0x0 REVERT JUMPDEST PUSH1 0x20 DUP2 DIV SWAP1 SWAP2 ADD SLOAD PUSH1 0xFF PUSH1 0x1F SWAP1 SWAP3 AND PUSH2 0x100 EXP SWAP1 DIV AND EQ JUMPDEST ISZERO PUSH2 0x79A JUMPI PUSH1 0x0 SWAP2 POP POP PUSH2 0x686 JUMP JUMPDEST DUP1 PUSH2 0x7A4 DUP2 PUSH2 0xF00 JUMP JUMPDEST SWAP2 POP POP PUSH2 0x691 JUMP JUMPDEST POP PUSH1 0x0 PUSH2 0x7BA PUSH1 0x3 DUP7 PUSH2 0xF34 JUMP JUMPDEST PUSH2 0x7C4 SWAP1 DUP7 PUSH2 0xEDD JUMP JUMPDEST SWAP1 POP PUSH1 0x0 PUSH2 0x7D3 PUSH1 0x3 DUP7 PUSH2 0xF34 JUMP JUMPDEST PUSH2 0x7DD SWAP1 DUP7 PUSH2 0xEDD JUMP JUMPDEST SWAP1 POP PUSH1 0x0 JUMPDEST PUSH1 0x3 DUP2 PUSH1 0xFF AND LT ISZERO PUSH2 0x67E JUMPI PUSH1 0x0 JUMPDEST PUSH1 0x3 DUP2 PUSH1 0xFF AND LT ISZERO PUSH2 0x8CB JUMPI PUSH1 0xFF DUP9 AND PUSH2 0x80B DUP4 DUP7 PUSH2 0xEA1 JUMP JUMPDEST PUSH1 0xFF AND EQ ISZERO DUP1 ISZERO PUSH2 0x82B JUMPI POP PUSH1 0xFF DUP8 AND PUSH2 0x825 DUP3 DUP6 PUSH2 0xEA1 JUMP JUMPDEST PUSH1 0xFF AND EQ ISZERO JUMPDEST DUP1 ISZERO PUSH2 0x8A7 JUMPI POP PUSH1 0xFF DUP7 AND PUSH1 0x0 PUSH2 0x842 DUP5 DUP8 PUSH2 0xEA1 JUMP JUMPDEST PUSH1 0xFF AND PUSH1 0x9 DUP2 LT PUSH2 0x863 JUMPI PUSH4 0x4E487B71 PUSH1 0xE0 SHL PUSH1 0x0 MSTORE PUSH1 0x32 PUSH1 0x4 MSTORE PUSH1 0x24 PUSH1 0x0 REVERT JUMPDEST ADD PUSH2 0x86E DUP4 DUP7 PUSH2 0xEA1 JUMP JUMPDEST PUSH1 0xFF AND PUSH1 0x9 DUP2 LT PUSH2 0x88F JUMPI PUSH4 0x4E487B71 PUSH1 0xE0 SHL PUSH1 0x0 MSTORE PUSH1 0x32 PUSH1 0x4 MSTORE PUSH1 0x24 PUSH1 0x0 REVERT JUMPDEST PUSH1 0x20 DUP2 DIV SWAP1 SWAP2 ADD SLOAD PUSH1 0xFF PUSH1 0x1F SWAP1 SWAP3 AND PUSH2 0x100 EXP SWAP1 DIV AND EQ JUMPDEST ISZERO PUSH2 0x8B9 JUMPI PUSH1 0x0 SWAP5 POP POP POP POP POP PUSH2 0x686 JUMP JUMPDEST DUP1 PUSH2 0x8C3 DUP2 PUSH2 0xF00 JUMP JUMPDEST SWAP2 POP POP PUSH2 0x7F1 JUMP JUMPDEST POP DUP1 PUSH2 0x8D6 DUP2 PUSH2 0xF00 JUMP JUMPDEST SWAP2 POP POP PUSH2 0x7E2 JUMP JUMPDEST PUSH1 0xA PUSH1 0x20 MSTORE PUSH1 0x0 SWAP1 DUP2 MSTORE PUSH1 0x40 SWAP1 KECCAK256 SLOAD PUSH1 0xFF AND DUP2 JUMP JUMPDEST PUSH1 0x0 DUP3 PUSH1 0x9 DUP2 LT PUSH2 0x903 JUMPI PUSH1 0x0 DUP1 REVERT JUMPDEST ADD DUP2 PUSH1 0x9 DUP2 LT PUSH2 0x912 JUMPI PUSH1 0x0 DUP1 REVERT JUMPDEST PUSH1 0x20 DUP2 DIV SWAP1 SWAP2 ADD SLOAD PUSH1 0xFF PUSH1 0x1F SWAP1 SWAP3 AND PUSH2 0x100 EXP SWAP1 DIV AND SWAP2 POP DUP3 SWAP1 POP JUMP JUMPDEST PUSH1 0x0 DUP2 PUSH1 0xFF AND PUSH1 0x9 EQ ISZERO PUSH2 0x94F JUMPI PUSH1 0x0 SWAP2 POP DUP3 PUSH2 0x94B DUP2 PUSH2 0xF00 JUMP JUMPDEST SWAP4 POP POP JUMPDEST DUP3 PUSH1 0xFF AND PUSH1 0x9 EQ ISZERO PUSH2 0x963 JUMPI POP PUSH1 0x1 PUSH2 0xB07 JUMP JUMPDEST PUSH1 0x0 DUP4 PUSH1 0xFF AND PUSH1 0x9 DUP2 LT PUSH2 0x987 JUMPI PUSH4 0x4E487B71 PUSH1 0xE0 SHL PUSH1 0x0 MSTORE PUSH1 0x32 PUSH1 0x4 MSTORE PUSH1 0x24 PUSH1 0x0 REVERT JUMPDEST ADD DUP3 PUSH1 0xFF AND PUSH1 0x9 DUP2 LT PUSH2 0x9AA JUMPI PUSH4 0x4E487B71 PUSH1 0xE0 SHL PUSH1 0x0 MSTORE PUSH1 0x32 PUSH1 0x4 MSTORE PUSH1 0x24 PUSH1 0x0 REVERT JUMPDEST PUSH1 0x20 DUP2 DIV SWAP1 SWAP2 ADD SLOAD PUSH1 0xFF PUSH1 0x1F SWAP1 SWAP3 AND PUSH2 0x100 EXP SWAP1 DIV AND ISZERO PUSH2 0x9E0 JUMPI PUSH2 0x9D9 DUP4 PUSH2 0x9D4 DUP5 PUSH1 0x1 PUSH2 0xEA1 JUMP JUMPDEST PUSH2 0x92F JUMP JUMPDEST SWAP1 POP PUSH2 0xB07 JUMP JUMPDEST PUSH1 0x1 JUMPDEST PUSH1 0x9 DUP2 PUSH1 0xFF AND GT PUSH2 0xB01 JUMPI PUSH2 0x9F9 DUP5 DUP5 DUP4 PUSH2 0x486 JUMP JUMPDEST ISZERO PUSH2 0xAEF JUMPI DUP1 PUSH1 0x0 DUP6 PUSH1 0xFF AND PUSH1 0x9 DUP2 LT PUSH2 0xA23 JUMPI PUSH4 0x4E487B71 PUSH1 0xE0 SHL PUSH1 0x0 MSTORE PUSH1 0x32 PUSH1 0x4 MSTORE PUSH1 0x24 PUSH1 0x0 REVERT JUMPDEST ADD DUP5 PUSH1 0xFF AND PUSH1 0x9 DUP2 LT PUSH2 0xA46 JUMPI PUSH4 0x4E487B71 PUSH1 0xE0 SHL PUSH1 0x0 MSTORE PUSH1 0x32 PUSH1 0x4 MSTORE PUSH1 0x24 PUSH1 0x0 REVERT JUMPDEST PUSH1 0x20 SWAP2 DUP3 DUP3 DIV ADD SWAP2 SWAP1 MOD PUSH2 0x100 EXP DUP2 SLOAD DUP2 PUSH1 0xFF MUL NOT AND SWAP1 DUP4 PUSH1 0xFF AND MUL OR SWAP1 SSTORE POP PUSH2 0xA77 DUP5 DUP5 PUSH1 0x1 PUSH2 0x9D4 SWAP2 SWAP1 PUSH2 0xEA1 JUMP JUMPDEST ISZERO PUSH2 0xA86 JUMPI PUSH1 0x1 SWAP2 POP POP PUSH2 0xB07 JUMP JUMPDEST PUSH1 0x0 DUP1 DUP6 PUSH1 0xFF AND PUSH1 0x9 DUP2 LT PUSH2 0xAAB JUMPI PUSH4 0x4E487B71 PUSH1 0xE0 SHL PUSH1 0x0 MSTORE PUSH1 0x32 PUSH1 0x4 MSTORE PUSH1 0x24 PUSH1 0x0 REVERT JUMPDEST ADD DUP5 PUSH1 0xFF AND PUSH1 0x9 DUP2 LT PUSH2 0xACE JUMPI PUSH4 0x4E487B71 PUSH1 0xE0 SHL PUSH1 0x0 MSTORE PUSH1 0x32 PUSH1 0x4 MSTORE PUSH1 0x24 PUSH1 0x0 REVERT JUMPDEST PUSH1 0x20 SWAP2 DUP3 DUP3 DIV ADD SWAP2 SWAP1 MOD PUSH2 0x100 EXP DUP2 SLOAD DUP2 PUSH1 0xFF MUL NOT AND SWAP1 DUP4 PUSH1 0xFF AND MUL OR SWAP1 SSTORE POP JUMPDEST DUP1 PUSH2 0xAF9 DUP2 PUSH2 0xF00 JUMP JUMPDEST SWAP2 POP POP PUSH2 0x9E3 JUMP JUMPDEST POP PUSH1 0x0 SWAP1 POP JUMPDEST SWAP3 SWAP2 POP POP JUMP JUMPDEST PUSH1 0x40 MLOAD DUP1 PUSH2 0x120 ADD PUSH1 0x40 MSTORE DUP1 PUSH1 0x9 SWAP1 JUMPDEST PUSH2 0xB25 PUSH2 0xB85 JUMP JUMPDEST DUP2 MSTORE PUSH1 0x20 ADD SWAP1 PUSH1 0x1 SWAP1 SUB SWAP1 DUP2 PUSH2 0xB1D JUMPI SWAP1 POP POP SWAP1 JUMP JUMPDEST DUP3 PUSH1 0x9 DUP2 ADD SWAP3 DUP3 ISZERO PUSH2 0xB75 JUMPI SWAP2 PUSH1 0x20 MUL DUP3 ADD JUMPDEST DUP3 DUP2 GT ISZERO PUSH2 0xB75 JUMPI DUP3 MLOAD PUSH2 0xB65 SWAP1 DUP4 SWAP1 PUSH1 0x9 PUSH2 0xBA4 JUMP JUMPDEST POP SWAP2 PUSH1 0x20 ADD SWAP2 SWAP1 PUSH1 0x1 ADD SWAP1 PUSH2 0xB4E JUMP JUMPDEST POP PUSH2 0xB81 SWAP3 SWAP2 POP PUSH2 0xC33 JUMP JUMPDEST POP SWAP1 JUMP JUMPDEST PUSH1 0x40 MLOAD DUP1 PUSH2 0x120 ADD PUSH1 0x40 MSTORE DUP1 PUSH1 0x9 SWAP1 PUSH1 0x20 DUP3 MUL DUP1 CALLDATASIZE DUP4 CALLDATACOPY POP SWAP2 SWAP3 SWAP2 POP POP JUMP JUMPDEST PUSH1 0x1 DUP4 ADD SWAP2 DUP4 SWAP1 DUP3 ISZERO PUSH2 0xC27 JUMPI SWAP2 PUSH1 0x20 MUL DUP3 ADD PUSH1 0x0 JUMPDEST DUP4 DUP3 GT ISZERO PUSH2 0xBF8 JUMPI DUP4 MLOAD DUP4 DUP3 PUSH2 0x100 EXP DUP2 SLOAD DUP2 PUSH1 0xFF MUL NOT AND SWAP1 DUP4 PUSH1 0xFF AND MUL OR SWAP1 SSTORE POP SWAP3 PUSH1 0x20 ADD SWAP3 PUSH1 0x1 ADD PUSH1 0x20 DUP2 PUSH1 0x0 ADD DIV SWAP3 DUP4 ADD SWAP3 PUSH1 0x1 SUB MUL PUSH2 0xBBA JUMP JUMPDEST DUP1 ISZERO PUSH2 0xC25 JUMPI DUP3 DUP2 PUSH2 0x100 EXP DUP2 SLOAD SWAP1 PUSH1 0xFF MUL NOT AND SWAP1 SSTORE PUSH1 0x1 ADD PUSH1 0x20 DUP2 PUSH1 0x0 ADD DIV SWAP3 DUP4 ADD SWAP3 PUSH1 0x1 SUB MUL PUSH2 0xBF8 JUMP JUMPDEST POP JUMPDEST POP PUSH2 0xB81 SWAP3 SWAP2 POP PUSH2 0xC50 JUMP JUMPDEST DUP1 DUP3 GT ISZERO PUSH2 0xB81 JUMPI PUSH1 0x0 PUSH2 0xC47 DUP3 DUP3 PUSH2 0xC65 JUMP JUMPDEST POP PUSH1 0x1 ADD PUSH2 0xC33 JUMP JUMPDEST JUMPDEST DUP1 DUP3 GT ISZERO PUSH2 0xB81 JUMPI PUSH1 0x0 DUP2 SSTORE PUSH1 0x1 ADD PUSH2 0xC51 JUMP JUMPDEST POP PUSH1 0x0 SWAP1 SSTORE JUMP JUMPDEST DUP1 CALLDATALOAD PUSH1 0xFF DUP2 AND DUP2 EQ PUSH2 0xC7D JUMPI PUSH1 0x0 DUP1 REVERT JUMPDEST SWAP2 SWAP1 POP JUMP JUMPDEST PUSH1 0x0 PUSH1 0x20 DUP3 DUP5 SUB SLT ISZERO PUSH2 0xC93 JUMPI DUP1 DUP2 REVERT JUMPDEST DUP2 CALLDATALOAD PUSH1 0x1 PUSH1 0x1 PUSH1 0xA0 SHL SUB DUP2 AND DUP2 EQ PUSH2 0x686 JUMPI DUP2 DUP3 REVERT JUMPDEST PUSH1 0x0 PUSH2 0xA20 DUP1 DUP4 DUP6 SUB SLT ISZERO PUSH2 0xCBC JUMPI DUP2 DUP3 REVERT JUMPDEST PUSH1 0x1F DUP5 DUP2 DUP6 ADD SLT PUSH2 0xCCB JUMPI DUP3 DUP4 REVERT JUMPDEST PUSH1 0x9 PUSH2 0xCDE PUSH2 0xCD9 DUP3 PUSH2 0xE80 JUMP JUMPDEST PUSH2 0xE56 JUMP JUMPDEST DUP1 DUP7 DUP9 DUP7 DUP10 ADD GT ISZERO PUSH2 0xCEE JUMPI DUP7 DUP8 REVERT JUMPDEST DUP7 SWAP6 POP JUMPDEST DUP4 DUP7 LT ISZERO PUSH2 0xD69 JUMPI DUP9 DUP6 DUP3 ADD SLT PUSH2 0xD07 JUMPI DUP7 DUP8 REVERT JUMPDEST PUSH2 0xD13 PUSH2 0xCD9 DUP6 PUSH2 0xE80 JUMP JUMPDEST DUP1 DUP3 PUSH2 0x120 DUP5 ADD DUP13 DUP2 GT ISZERO PUSH2 0xD26 JUMPI DUP11 DUP12 REVERT JUMPDEST DUP11 JUMPDEST DUP9 DUP2 LT ISZERO PUSH2 0xD4E JUMPI PUSH2 0xD39 DUP4 PUSH2 0xC6C JUMP JUMPDEST DUP6 MSTORE PUSH1 0x20 SWAP5 DUP6 ADD SWAP5 SWAP3 SWAP1 SWAP3 ADD SWAP2 PUSH1 0x1 ADD PUSH2 0xD28 JUMP JUMPDEST POP SWAP2 DUP7 MSTORE POP PUSH1 0x1 SWAP8 SWAP1 SWAP8 ADD SWAP7 PUSH1 0x20 SWAP1 SWAP5 ADD SWAP4 SWAP2 POP PUSH2 0xCF2 SWAP1 POP JUMP JUMPDEST POP SWAP8 SWAP7 POP POP POP POP POP POP POP JUMP JUMPDEST PUSH1 0x0 DUP1 PUSH1 0x40 DUP4 DUP6 SUB SLT ISZERO PUSH2 0xD87 JUMPI DUP1 DUP2 REVERT JUMPDEST POP POP DUP1 CALLDATALOAD SWAP3 PUSH1 0x20 SWAP1 SWAP2 ADD CALLDATALOAD SWAP2 POP JUMP JUMPDEST PUSH1 0x0 DUP1 PUSH1 0x0 PUSH1 0x60 DUP5 DUP7 SUB SLT ISZERO PUSH2 0xDAA JUMPI DUP1 DUP2 REVERT JUMPDEST PUSH2 0xDB3 DUP5 PUSH2 0xC6C JUMP JUMPDEST SWAP3 POP PUSH2 0xDC1 PUSH1 0x20 DUP6 ADD PUSH2 0xC6C JUMP JUMPDEST SWAP2 POP PUSH2 0xDCF PUSH1 0x40 DUP6 ADD PUSH2 0xC6C JUMP JUMPDEST SWAP1 POP SWAP3 POP SWAP3 POP SWAP3 JUMP JUMPDEST PUSH2 0xA20 DUP2 ADD DUP2 DUP4 PUSH1 0x0 DUP1 JUMPDEST PUSH1 0x9 DUP1 DUP3 LT PUSH2 0xDF2 JUMPI POP PUSH2 0xE33 JUMP JUMPDEST DUP4 MLOAD DUP6 DUP5 JUMPDEST DUP4 DUP2 LT ISZERO PUSH2 0xE18 JUMPI DUP3 MLOAD PUSH1 0xFF AND DUP3 MSTORE PUSH1 0x20 SWAP3 DUP4 ADD SWAP3 SWAP1 SWAP2 ADD SWAP1 PUSH1 0x1 ADD PUSH2 0xDF7 JUMP JUMPDEST POP POP POP PUSH2 0x120 SWAP5 SWAP1 SWAP5 ADD SWAP4 POP PUSH1 0x20 SWAP3 SWAP1 SWAP3 ADD SWAP2 PUSH1 0x1 ADD PUSH2 0xDE3 JUMP JUMPDEST POP POP POP POP SWAP3 SWAP2 POP POP JUMP JUMPDEST SWAP1 ISZERO ISZERO DUP2 MSTORE PUSH1 0x20 ADD SWAP1 JUMP JUMPDEST PUSH1 0xFF SWAP2 SWAP1 SWAP2 AND DUP2 MSTORE PUSH1 0x20 ADD SWAP1 JUMP JUMPDEST PUSH1 0x40 MLOAD DUP2 DUP2 ADD PUSH8 0xFFFFFFFFFFFFFFFF DUP2 GT DUP3 DUP3 LT OR ISZERO PUSH2 0xE78 JUMPI PUSH2 0xE78 PUSH2 0xF82 JUMP JUMPDEST PUSH1 0x40 MSTORE SWAP2 SWAP1 POP JUMP JUMPDEST PUSH1 0x0 PUSH8 0xFFFFFFFFFFFFFFFF DUP3 GT ISZERO PUSH2 0xE9A JUMPI PUSH2 0xE9A PUSH2 0xF82 JUMP JUMPDEST POP PUSH1 0x20 MUL SWAP1 JUMP JUMPDEST PUSH1 0x0 PUSH1 0xFF DUP3 AND PUSH1 0xFF DUP5 AND DUP1 PUSH1 0xFF SUB DUP3 GT ISZERO PUSH2 0xEBE JUMPI PUSH2 0xEBE PUSH2 0xF56 JUMP JUMPDEST ADD SWAP4 SWAP3 POP POP POP JUMP JUMPDEST PUSH1 0x0 DUP3 DUP3 LT ISZERO PUSH2 0xED8 JUMPI PUSH2 0xED8 PUSH2 0xF56 JUMP JUMPDEST POP SUB SWAP1 JUMP JUMPDEST PUSH1 0x0 PUSH1 0xFF DUP3 AND PUSH1 0xFF DUP5 AND DUP1 DUP3 LT ISZERO PUSH2 0xEF7 JUMPI PUSH2 0xEF7 PUSH2 0xF56 JUMP JUMPDEST SWAP1 SUB SWAP4 SWAP3 POP POP POP JUMP JUMPDEST PUSH1 0x0 PUSH1 0xFF DUP3 AND PUSH1 0xFF DUP2 EQ ISZERO PUSH2 0xF17 JUMPI PUSH2 0xF17 PUSH2 0xF56 JUMP JUMPDEST PUSH1 0x1 ADD SWAP3 SWAP2 POP POP JUMP JUMPDEST PUSH1 0x0 DUP3 PUSH2 0xF2F JUMPI PUSH2 0xF2F PUSH2 0xF6C JUMP JUMPDEST POP MOD SWAP1 JUMP JUMPDEST PUSH1 0x0 PUSH1 0xFF DUP4 AND DUP1 PUSH2 0xF47 JUMPI PUSH2 0xF47 PUSH2 0xF6C JUMP JUMPDEST DUP1 PUSH1 0xFF DUP5 AND MOD SWAP2 POP POP SWAP3 SWAP2 POP POP JUMP JUMPDEST PUSH4 0x4E487B71 PUSH1 0xE0 SHL PUSH1 0x0 MSTORE PUSH1 0x11 PUSH1 0x4 MSTORE PUSH1 0x24 PUSH1 0x0 REVERT JUMPDEST PUSH4 0x4E487B71 PUSH1 0xE0 SHL PUSH1 0x0 MSTORE PUSH1 0x12 PUSH1 0x4 MSTORE PUSH1 0x24 PUSH1 0x0 REVERT JUMPDEST PUSH4 0x4E487B71 PUSH1 0xE0 SHL PUSH1 0x0 MSTORE PUSH1 0x41 PUSH1 0x4 MSTORE PUSH1 0x24 PUSH1 0x0 REVERT INVALID LOG2 PUSH5 0x6970667358 0x22 SLT KECCAK256 JUMP PUSH19 0xE49D5B79ED4E65123A86AB45534F0C60CD100F MSTORE8 0x4E SWAP4 JUMPDEST 0xCE 0xCB SWAP11 PUSH25 0xCAC1A464736F6C634300080000330000000000000000000000 "},"methodIdentifiers":{"currentBoard(uint256,uint256)":"fb18995b","didThePlayerWin(address)":"d385c79b","emptyCount()":"2058e906","generateBoard()":"6cf5e0c1","getBoard()":"3264a34b","isValid(uint8,uint8,uint8)":"9aa2c7e9","isValidSudoku(uint8,uint8,uint8)":"cf19f7ba","verifyWin(uint8[9][9])":"71d3426b"}}}}}