{
  "_format": "hh-sol-artifact-1",
  "contractName": "BTCToken",
  "sourceName": "contracts/BTCToken.sol",
  "abi": [
    {
      "inputs": [
        {
          "internalType": "uint256",
          "name": "_initialSupply",
          "type": "uint256"
        }
      ],
      "stateMutability": "nonpayable",
      "type": "constructor"
    },
    {
      "anonymous": false,
      "inputs": [
        {
          "indexed": true,
          "internalType": "address",
          "name": "owner",
          "type": "address"
        },
        {
          "indexed": true,
          "internalType": "address",
          "name": "spender",
          "type": "address"
        },
        {
          "indexed": false,
          "internalType": "uint256",
          "name": "value",
          "type": "uint256"
        }
      ],
      "name": "Approval",
      "type": "event"
    },
    {
      "anonymous": false,
      "inputs": [
        {
          "indexed": true,
          "internalType": "address",
          "name": "from",
          "type": "address"
        },
        {
          "indexed": true,
          "internalType": "address",
          "name": "to",
          "type": "address"
        },
        {
          "indexed": false,
          "internalType": "uint256",
          "name": "value",
          "type": "uint256"
        }
      ],
      "name": "Transfer",
      "type": "event"
    },
    {
      "inputs": [
        {
          "internalType": "address",
          "name": "owner",
          "type": "address"
        },
        {
          "internalType": "address",
          "name": "spender",
          "type": "address"
        }
      ],
      "name": "allowance",
      "outputs": [
        {
          "internalType": "uint256",
          "name": "",
          "type": "uint256"
        }
      ],
      "stateMutability": "view",
      "type": "function"
    },
    {
      "inputs": [
        {
          "internalType": "address",
          "name": "spender",
          "type": "address"
        },
        {
          "internalType": "uint256",
          "name": "amount",
          "type": "uint256"
        }
      ],
      "name": "approve",
      "outputs": [
        {
          "internalType": "bool",
          "name": "",
          "type": "bool"
        }
      ],
      "stateMutability": "nonpayable",
      "type": "function"
    },
    {
      "inputs": [
        {
          "internalType": "address",
          "name": "account",
          "type": "address"
        }
      ],
      "name": "balanceOf",
      "outputs": [
        {
          "internalType": "uint256",
          "name": "",
          "type": "uint256"
        }
      ],
      "stateMutability": "view",
      "type": "function"
    },
    {
      "inputs": [],
      "name": "decimals",
      "outputs": [
        {
          "internalType": "uint8",
          "name": "",
          "type": "uint8"
        }
      ],
      "stateMutability": "view",
      "type": "function"
    },
    {
      "inputs": [
        {
          "internalType": "address",
          "name": "spender",
          "type": "address"
        },
        {
          "internalType": "uint256",
          "name": "subtractedValue",
          "type": "uint256"
        }
      ],
      "name": "decreaseAllowance",
      "outputs": [
        {
          "internalType": "bool",
          "name": "",
          "type": "bool"
        }
      ],
      "stateMutability": "nonpayable",
      "type": "function"
    },
    {
      "inputs": [
        {
          "internalType": "address",
          "name": "wallet",
          "type": "address"
        }
      ],
      "name": "getBalance",
      "outputs": [
        {
          "internalType": "uint256",
          "name": "",
          "type": "uint256"
        }
      ],
      "stateMutability": "view",
      "type": "function"
    },
    {
      "inputs": [
        {
          "internalType": "address",
          "name": "spender",
          "type": "address"
        },
        {
          "internalType": "uint256",
          "name": "addedValue",
          "type": "uint256"
        }
      ],
      "name": "increaseAllowance",
      "outputs": [
        {
          "internalType": "bool",
          "name": "",
          "type": "bool"
        }
      ],
      "stateMutability": "nonpayable",
      "type": "function"
    },
    {
      "inputs": [],
      "name": "name",
      "outputs": [
        {
          "internalType": "string",
          "name": "",
          "type": "string"
        }
      ],
      "stateMutability": "view",
      "type": "function"
    },
    {
      "inputs": [],
      "name": "symbol",
      "outputs": [
        {
          "internalType": "string",
          "name": "",
          "type": "string"
        }
      ],
      "stateMutability": "view",
      "type": "function"
    },
    {
      "inputs": [],
      "name": "totalSupply",
      "outputs": [
        {
          "internalType": "uint256",
          "name": "",
          "type": "uint256"
        }
      ],
      "stateMutability": "view",
      "type": "function"
    },
    {
      "inputs": [
        {
          "internalType": "address",
          "name": "to",
          "type": "address"
        },
        {
          "internalType": "uint256",
          "name": "amount",
          "type": "uint256"
        }
      ],
      "name": "transfer",
      "outputs": [
        {
          "internalType": "bool",
          "name": "",
          "type": "bool"
        }
      ],
      "stateMutability": "nonpayable",
      "type": "function"
    },
    {
      "inputs": [
        {
          "internalType": "address",
          "name": "from",
          "type": "address"
        },
        {
          "internalType": "address",
          "name": "to",
          "type": "address"
        },
        {
          "internalType": "uint256",
          "name": "amount",
          "type": "uint256"
        }
      ],
      "name": "transferFrom",
      "outputs": [
        {
          "internalType": "bool",
          "name": "",
          "type": "bool"
        }
      ],
      "stateMutability": "nonpayable",
      "type": "function"
    },
    {
      "inputs": [
        {
          "internalType": "address",
          "name": "recipient",
          "type": "address"
        },
        {
          "internalType": "uint256",
          "name": "amount",
          "type": "uint256"
        }
      ],
      "name": "transferToken",
      "outputs": [],
      "stateMutability": "nonpayable",
      "type": "function"
    }
  ],
  "bytecode": "0x60806040523480156200001157600080fd5b5060405162001a1638038062001a168339818101604052810190620000379190620002a0565b6040518060400160405280600981526020017f42544320546f6b656e00000000000000000000000000000000000000000000008152506040518060400160405280600381526020017f42544300000000000000000000000000000000000000000000000000000000008152508160039081620000b4919062000542565b508060049081620000c6919062000542565b505050620000db3382620000e960201b60201c565b806005819055505062000744565b600073ffffffffffffffffffffffffffffffffffffffff168273ffffffffffffffffffffffffffffffffffffffff16036200015b576040517f08c379a000000000000000000000000000000000000000000000000000000000815260040162000152906200068a565b60405180910390fd5b6200016f600083836200025660201b60201c565b8060026000828254620001839190620006db565b92505081905550806000808473ffffffffffffffffffffffffffffffffffffffff1673ffffffffffffffffffffffffffffffffffffffff168152602001908152602001600020600082825401925050819055508173ffffffffffffffffffffffffffffffffffffffff16600073ffffffffffffffffffffffffffffffffffffffff167fddf252ad1be2c89b69c2b068fc378daa952ba7f163c4a11628f55a4df523b3ef8360405162000236919062000727565b60405180910390a362000252600083836200025b60201b60201c565b5050565b505050565b505050565b600080fd5b6000819050919050565b6200027a8162000265565b81146200028657600080fd5b50565b6000815190506200029a816200026f565b92915050565b600060208284031215620002b957620002b862000260565b5b6000620002c98482850162000289565b91505092915050565b600081519050919050565b7f4e487b7100000000000000000000000000000000000000000000000000000000600052604160045260246000fd5b7f4e487b7100000000000000000000000000000000000000000000000000000000600052602260045260246000fd5b600060028204905060018216806200035457607f821691505b6020821081036200036a57620003696200030c565b5b50919050565b60008190508160005260206000209050919050565b60006020601f8301049050919050565b600082821b905092915050565b600060088302620003d47fffffffffffffffffffffffffffffffffffffffffffffffffffffffffffffffff8262000395565b620003e0868362000395565b95508019841693508086168417925050509392505050565b6000819050919050565b6000620004236200041d620004178462000265565b620003f8565b62000265565b9050919050565b6000819050919050565b6200043f8362000402565b620004576200044e826200042a565b848454620003a2565b825550505050565b600090565b6200046e6200045f565b6200047b81848462000434565b505050565b5b81811015620004a3576200049760008262000464565b60018101905062000481565b5050565b601f821115620004f257620004bc8162000370565b620004c78462000385565b81016020851015620004d7578190505b620004ef620004e68562000385565b83018262000480565b50505b505050565b600082821c905092915050565b60006200051760001984600802620004f7565b1980831691505092915050565b600062000532838362000504565b9150826002028217905092915050565b6200054d82620002d2565b67ffffffffffffffff811115620005695762000568620002dd565b5b6200057582546200033b565b62000582828285620004a7565b600060209050601f831160018114620005ba5760008415620005a5578287015190505b620005b1858262000524565b86555062000621565b601f198416620005ca8662000370565b60005b82811015620005f457848901518255600182019150602085019450602081019050620005cd565b8683101562000614578489015162000610601f89168262000504565b8355505b6001600288020188555050505b505050505050565b600082825260208201905092915050565b7f45524332303a206d696e7420746f20746865207a65726f206164647265737300600082015250565b600062000672601f8362000629565b91506200067f826200063a565b602082019050919050565b60006020820190508181036000830152620006a58162000663565b9050919050565b7f4e487b7100000000000000000000000000000000000000000000000000000000600052601160045260246000fd5b6000620006e88262000265565b9150620006f58362000265565b925082820190508082111562000710576200070f620006ac565b5b92915050565b620007218162000265565b82525050565b60006020820190506200073e600083018462000716565b92915050565b6112c280620007546000396000f3fe608060405234801561001057600080fd5b50600436106100cf5760003560e01c8063395093511161008c578063a457c2d711610066578063a457c2d714610228578063a9059cbb14610258578063dd62ed3e14610288578063f8b2cb4f146102b8576100cf565b806339509351146101aa57806370a08231146101da57806395d89b411461020a576100cf565b806306fdde03146100d4578063095ea7b3146100f25780631072cbea1461012257806318160ddd1461013e57806323b872dd1461015c578063313ce5671461018c575b600080fd5b6100dc6102e8565b6040516100e99190610b9f565b60405180910390f35b61010c60048036038101906101079190610c5a565b61037a565b6040516101199190610cb5565b60405180910390f35b61013c60048036038101906101379190610c5a565b61039d565b005b6101466103ac565b6040516101539190610cdf565b60405180910390f35b61017660048036038101906101719190610cfa565b6103b6565b6040516101839190610cb5565b60405180910390f35b6101946103e5565b6040516101a19190610d69565b60405180910390f35b6101c460048036038101906101bf9190610c5a565b6103ee565b6040516101d19190610cb5565b60405180910390f35b6101f460048036038101906101ef9190610d84565b610425565b6040516102019190610cdf565b60405180910390f35b61021261046d565b60405161021f9190610b9f565b60405180910390f35b610242600480360381019061023d9190610c5a565b6104ff565b60405161024f9190610cb5565b60405180910390f35b610272600480360381019061026d9190610c5a565b610576565b60405161027f9190610cb5565b60405180910390f35b6102a2600480360381019061029d9190610db1565b610599565b6040516102af9190610cdf565b60405180910390f35b6102d260048036038101906102cd9190610d84565b610620565b6040516102df9190610cdf565b60405180910390f35b6060600380546102f790610e20565b80601f016020809104026020016040519081016040528092919081815260200182805461032390610e20565b80156103705780601f1061034557610100808354040283529160200191610370565b820191906000526020600020905b81548152906001019060200180831161035357829003601f168201915b5050505050905090565b600080610385610632565b905061039281858561063a565b600191505092915050565b6103a78282610576565b505050565b6000600254905090565b6000806103c1610632565b90506103ce858285610803565b6103d985858561088f565b60019150509392505050565b60006012905090565b6000806103f9610632565b905061041a81858561040b8589610599565b6104159190610e80565b61063a565b600191505092915050565b60008060008373ffffffffffffffffffffffffffffffffffffffff1673ffffffffffffffffffffffffffffffffffffffff168152602001908152602001600020549050919050565b60606004805461047c90610e20565b80601f01602080910402602001604051908101604052809291908181526020018280546104a890610e20565b80156104f55780601f106104ca576101008083540402835291602001916104f5565b820191906000526020600020905b8154815290600101906020018083116104d857829003601f168201915b5050505050905090565b60008061050a610632565b905060006105188286610599565b90508381101561055d576040517f08c379a000000000000000000000000000000000000000000000000000000000815260040161055490610f26565b60405180910390fd5b61056a828686840361063a565b60019250505092915050565b600080610581610632565b905061058e81858561088f565b600191505092915050565b6000600160008473ffffffffffffffffffffffffffffffffffffffff1673ffffffffffffffffffffffffffffffffffffffff16815260200190815260200160002060008373ffffffffffffffffffffffffffffffffffffffff1673ffffffffffffffffffffffffffffffffffffffff16815260200190815260200160002054905092915050565b600061062b82610425565b9050919050565b600033905090565b600073ffffffffffffffffffffffffffffffffffffffff168373ffffffffffffffffffffffffffffffffffffffff16036106a9576040517f08c379a00000000000000000000000000000000000000000000000000000000081526004016106a090610fb8565b60405180910390fd5b600073ffffffffffffffffffffffffffffffffffffffff168273ffffffffffffffffffffffffffffffffffffffff1603610718576040517f08c379a000000000000000000000000000000000000000000000000000000000815260040161070f9061104a565b60405180910390fd5b80600160008573ffffffffffffffffffffffffffffffffffffffff1673ffffffffffffffffffffffffffffffffffffffff16815260200190815260200160002060008473ffffffffffffffffffffffffffffffffffffffff1673ffffffffffffffffffffffffffffffffffffffff168152602001908152602001600020819055508173ffffffffffffffffffffffffffffffffffffffff168373ffffffffffffffffffffffffffffffffffffffff167f8c5be1e5ebec7d5bd14f71427d1e84f3dd0314c0f7b2291e5b200ac8c7c3b925836040516107f69190610cdf565b60405180910390a3505050565b600061080f8484610599565b90507fffffffffffffffffffffffffffffffffffffffffffffffffffffffffffffffff8114610889578181101561087b576040517f08c379a0000000000000000000000000000000000000000000000000000000008152600401610872906110b6565b60405180910390fd5b610888848484840361063a565b5b50505050565b600073ffffffffffffffffffffffffffffffffffffffff168373ffffffffffffffffffffffffffffffffffffffff16036108fe576040517f08c379a00000000000000000000000000000000000000000000000000000000081526004016108f590611148565b60405180910390fd5b600073ffffffffffffffffffffffffffffffffffffffff168273ffffffffffffffffffffffffffffffffffffffff160361096d576040517f08c379a0000000000000000000000000000000000000000000000000000000008152600401610964906111da565b60405180910390fd5b610978838383610b05565b60008060008573ffffffffffffffffffffffffffffffffffffffff1673ffffffffffffffffffffffffffffffffffffffff168152602001908152602001600020549050818110156109fe576040517f08c379a00000000000000000000000000000000000000000000000000000000081526004016109f59061126c565b60405180910390fd5b8181036000808673ffffffffffffffffffffffffffffffffffffffff1673ffffffffffffffffffffffffffffffffffffffff16815260200190815260200160002081905550816000808573ffffffffffffffffffffffffffffffffffffffff1673ffffffffffffffffffffffffffffffffffffffff168152602001908152602001600020600082825401925050819055508273ffffffffffffffffffffffffffffffffffffffff168473ffffffffffffffffffffffffffffffffffffffff167fddf252ad1be2c89b69c2b068fc378daa952ba7f163c4a11628f55a4df523b3ef84604051610aec9190610cdf565b60405180910390a3610aff848484610b0a565b50505050565b505050565b505050565b600081519050919050565b600082825260208201905092915050565b60005b83811015610b49578082015181840152602081019050610b2e565b60008484015250505050565b6000601f19601f8301169050919050565b6000610b7182610b0f565b610b7b8185610b1a565b9350610b8b818560208601610b2b565b610b9481610b55565b840191505092915050565b60006020820190508181036000830152610bb98184610b66565b905092915050565b600080fd5b600073ffffffffffffffffffffffffffffffffffffffff82169050919050565b6000610bf182610bc6565b9050919050565b610c0181610be6565b8114610c0c57600080fd5b50565b600081359050610c1e81610bf8565b92915050565b6000819050919050565b610c3781610c24565b8114610c4257600080fd5b50565b600081359050610c5481610c2e565b92915050565b60008060408385031215610c7157610c70610bc1565b5b6000610c7f85828601610c0f565b9250506020610c9085828601610c45565b9150509250929050565b60008115159050919050565b610caf81610c9a565b82525050565b6000602082019050610cca6000830184610ca6565b92915050565b610cd981610c24565b82525050565b6000602082019050610cf46000830184610cd0565b92915050565b600080600060608486031215610d1357610d12610bc1565b5b6000610d2186828701610c0f565b9350506020610d3286828701610c0f565b9250506040610d4386828701610c45565b9150509250925092565b600060ff82169050919050565b610d6381610d4d565b82525050565b6000602082019050610d7e6000830184610d5a565b92915050565b600060208284031215610d9a57610d99610bc1565b5b6000610da884828501610c0f565b91505092915050565b60008060408385031215610dc857610dc7610bc1565b5b6000610dd685828601610c0f565b9250506020610de785828601610c0f565b9150509250929050565b7f4e487b7100000000000000000000000000000000000000000000000000000000600052602260045260246000fd5b60006002820490506001821680610e3857607f821691505b602082108103610e4b57610e4a610df1565b5b50919050565b7f4e487b7100000000000000000000000000000000000000000000000000000000600052601160045260246000fd5b6000610e8b82610c24565b9150610e9683610c24565b9250828201905080821115610eae57610ead610e51565b5b92915050565b7f45524332303a2064656372656173656420616c6c6f77616e63652062656c6f7760008201527f207a65726f000000000000000000000000000000000000000000000000000000602082015250565b6000610f10602583610b1a565b9150610f1b82610eb4565b604082019050919050565b60006020820190508181036000830152610f3f81610f03565b9050919050565b7f45524332303a20617070726f76652066726f6d20746865207a65726f2061646460008201527f7265737300000000000000000000000000000000000000000000000000000000602082015250565b6000610fa2602483610b1a565b9150610fad82610f46565b604082019050919050565b60006020820190508181036000830152610fd181610f95565b9050919050565b7f45524332303a20617070726f766520746f20746865207a65726f20616464726560008201527f7373000000000000000000000000000000000000000000000000000000000000602082015250565b6000611034602283610b1a565b915061103f82610fd8565b604082019050919050565b6000602082019050818103600083015261106381611027565b9050919050565b7f45524332303a20696e73756666696369656e7420616c6c6f77616e6365000000600082015250565b60006110a0601d83610b1a565b91506110ab8261106a565b602082019050919050565b600060208201905081810360008301526110cf81611093565b9050919050565b7f45524332303a207472616e736665722066726f6d20746865207a65726f20616460008201527f6472657373000000000000000000000000000000000000000000000000000000602082015250565b6000611132602583610b1a565b915061113d826110d6565b604082019050919050565b6000602082019050818103600083015261116181611125565b9050919050565b7f45524332303a207472616e7366657220746f20746865207a65726f206164647260008201527f6573730000000000000000000000000000000000000000000000000000000000602082015250565b60006111c4602383610b1a565b91506111cf82611168565b604082019050919050565b600060208201905081810360008301526111f3816111b7565b9050919050565b7f45524332303a207472616e7366657220616d6f756e742065786365656473206260008201527f616c616e63650000000000000000000000000000000000000000000000000000602082015250565b6000611256602683610b1a565b9150611261826111fa565b604082019050919050565b6000602082019050818103600083015261128581611249565b905091905056fea2646970667358221220cbc2b8a04af22742bfd0d83e1dc5c3970899f67d4d59df62128b6bd462716f5664736f6c63430008110033",
  "linkReferences": {},
  "deployedLinkReferences": {}
}