{
  "_format": "hh-sol-artifact-1",
  "contractName": "OrderBookDex",
  "sourceName": "contracts/OrderBookDex.sol",
  "abi": [
    {
      "inputs": [
        {
          "internalType": "address",
          "name": "_USDTAddress",
          "type": "address"
        },
        {
          "internalType": "address",
          "name": "_BTCAddress",
          "type": "address"
        }
      ],
      "stateMutability": "nonpayable",
      "type": "constructor"
    },
    {
      "inputs": [
        {
          "internalType": "address",
          "name": "wallet",
          "type": "address"
        }
      ],
      "name": "getBTCBalance",
      "outputs": [
        {
          "internalType": "uint256",
          "name": "",
          "type": "uint256"
        }
      ],
      "stateMutability": "view",
      "type": "function"
    },
    {
      "inputs": [
        {
          "internalType": "address",
          "name": "wallet",
          "type": "address"
        }
      ],
      "name": "getUSDTBalance",
      "outputs": [
        {
          "internalType": "uint256",
          "name": "",
          "type": "uint256"
        }
      ],
      "stateMutability": "view",
      "type": "function"
    },
    {
      "inputs": [],
      "name": "getUsdtBtcPrice",
      "outputs": [
        {
          "internalType": "uint256",
          "name": "",
          "type": "uint256"
        }
      ],
      "stateMutability": "view",
      "type": "function"
    },
    {
      "inputs": [
        {
          "internalType": "address",
          "name": "wallet",
          "type": "address"
        },
        {
          "internalType": "address",
          "name": "_from",
          "type": "address"
        },
        {
          "internalType": "address",
          "name": "_to",
          "type": "address"
        },
        {
          "internalType": "uint256",
          "name": "_amount",
          "type": "uint256"
        }
      ],
      "name": "swap",
      "outputs": [],
      "stateMutability": "nonpayable",
      "type": "function"
    }
  ],
  "bytecode": "0x608060405234801561001057600080fd5b50604051610eb1380380610eb183398181016040528101906100329190610172565b816000806101000a81548173ffffffffffffffffffffffffffffffffffffffff021916908373ffffffffffffffffffffffffffffffffffffffff16021790555080600160006101000a81548173ffffffffffffffffffffffffffffffffffffffff021916908373ffffffffffffffffffffffffffffffffffffffff16021790555073700a89ba8f908af38834b9aba238b362cffb665f600260006101000a81548173ffffffffffffffffffffffffffffffffffffffff021916908373ffffffffffffffffffffffffffffffffffffffff16021790555050506101b2565b600080fd5b600073ffffffffffffffffffffffffffffffffffffffff82169050919050565b600061013f82610114565b9050919050565b61014f81610134565b811461015a57600080fd5b50565b60008151905061016c81610146565b92915050565b600080604083850312156101895761018861010f565b5b60006101978582860161015d565b92505060206101a88582860161015d565b9150509250929050565b610cf0806101c16000396000f3fe608060405234801561001057600080fd5b506004361061004c5760003560e01c8063110cf5111461005157806358c508351461008157806385b271161461009f578063a9678a18146100cf575b600080fd5b61006b6004803603810190610066919061086a565b6100eb565b60405161007891906108b0565b60405180910390f35b610089610190565b60405161009691906108b0565b60405180910390f35b6100b960048036038101906100b4919061086a565b610236565b6040516100c691906108b0565b60405180910390f35b6100e960048036038101906100e491906108f7565b6102da565b005b6000600160009054906101000a900473ffffffffffffffffffffffffffffffffffffffff1673ffffffffffffffffffffffffffffffffffffffff166370a08231836040518263ffffffff1660e01b8152600401610148919061096d565b602060405180830381865afa158015610165573d6000803e3d6000fd5b505050506040513d601f19601f82011682018060405250810190610189919061099d565b9050919050565b600080600260009054906101000a900473ffffffffffffffffffffffffffffffffffffffff1673ffffffffffffffffffffffffffffffffffffffff1663abc4544e6040518163ffffffff1660e01b81526004016101ec90610a27565b6040805180830381865afa158015610208573d6000803e3d6000fd5b505050506040513d601f19601f8201168201806040525081019061022c9190610a7d565b5090508091505090565b60008060009054906101000a900473ffffffffffffffffffffffffffffffffffffffff1673ffffffffffffffffffffffffffffffffffffffff166370a08231836040518263ffffffff1660e01b8152600401610292919061096d565b602060405180830381865afa1580156102af573d6000803e3d6000fd5b505050506040513d601f19601f820116820180604052508101906102d3919061099d565b9050919050565b60008054906101000a900473ffffffffffffffffffffffffffffffffffffffff1673ffffffffffffffffffffffffffffffffffffffff168373ffffffffffffffffffffffffffffffffffffffff161480156103825750600160009054906101000a900473ffffffffffffffffffffffffffffffffffffffff1673ffffffffffffffffffffffffffffffffffffffff168273ffffffffffffffffffffffffffffffffffffffff16145b156105ba578060008054906101000a900473ffffffffffffffffffffffffffffffffffffffff1673ffffffffffffffffffffffffffffffffffffffff166370a08231866040518263ffffffff1660e01b81526004016103e1919061096d565b602060405180830381865afa1580156103fe573d6000803e3d6000fd5b505050506040513d601f19601f82011682018060405250810190610422919061099d565b1015610463576040517f08c379a000000000000000000000000000000000000000000000000000000000815260040161045a90610b09565b60405180910390fd5b60008054906101000a900473ffffffffffffffffffffffffffffffffffffffff1673ffffffffffffffffffffffffffffffffffffffff166323b872dd8530846040518463ffffffff1660e01b81526004016104c093929190610b29565b6020604051808303816000875af11580156104df573d6000803e3d6000fd5b505050506040513d601f19601f820116820180604052508101906105039190610b98565b50600160009054906101000a900473ffffffffffffffffffffffffffffffffffffffff1673ffffffffffffffffffffffffffffffffffffffff1663a9059cbb856105548461054f610190565b6107f1565b6040518363ffffffff1660e01b8152600401610571929190610bc5565b6020604051808303816000875af1158015610590573d6000803e3d6000fd5b505050506040513d601f19601f820116820180604052508101906105b49190610b98565b506107eb565b80600160009054906101000a900473ffffffffffffffffffffffffffffffffffffffff1673ffffffffffffffffffffffffffffffffffffffff166370a08231866040518263ffffffff1660e01b8152600401610616919061096d565b602060405180830381865afa158015610633573d6000803e3d6000fd5b505050506040513d601f19601f82011682018060405250810190610657919061099d565b1015610698576040517f08c379a000000000000000000000000000000000000000000000000000000000815260040161068f90610c3a565b60405180910390fd5b600160009054906101000a900473ffffffffffffffffffffffffffffffffffffffff1673ffffffffffffffffffffffffffffffffffffffff166323b872dd8530846040518463ffffffff1660e01b81526004016106f793929190610b29565b6020604051808303816000875af1158015610716573d6000803e3d6000fd5b505050506040513d601f19601f8201168201806040525081019061073a9190610b98565b5060008054906101000a900473ffffffffffffffffffffffffffffffffffffffff1673ffffffffffffffffffffffffffffffffffffffff1663a9059cbb8561078984610784610190565b6107f1565b6040518363ffffffff1660e01b81526004016107a6929190610bc5565b6020604051808303816000875af11580156107c5573d6000803e3d6000fd5b505050506040513d601f19601f820116820180604052508101906107e99190610b98565b505b50505050565b600081836107ff9190610c89565b905092915050565b600080fd5b600073ffffffffffffffffffffffffffffffffffffffff82169050919050565b60006108378261080c565b9050919050565b6108478161082c565b811461085257600080fd5b50565b6000813590506108648161083e565b92915050565b6000602082840312156108805761087f610807565b5b600061088e84828501610855565b91505092915050565b6000819050919050565b6108aa81610897565b82525050565b60006020820190506108c560008301846108a1565b92915050565b6108d481610897565b81146108df57600080fd5b50565b6000813590506108f1816108cb565b92915050565b6000806000806080858703121561091157610910610807565b5b600061091f87828801610855565b945050602061093087828801610855565b935050604061094187828801610855565b9250506060610952878288016108e2565b91505092959194509250565b6109678161082c565b82525050565b6000602082019050610982600083018461095e565b92915050565b600081519050610997816108cb565b92915050565b6000602082840312156109b3576109b2610807565b5b60006109c184828501610988565b91505092915050565b600082825260208201905092915050565b7f6274635f75736474000000000000000000000000000000000000000000000000600082015250565b6000610a116008836109ca565b9150610a1c826109db565b602082019050919050565b60006020820190508181036000830152610a4081610a04565b9050919050565b6000819050919050565b610a5a81610a47565b8114610a6557600080fd5b50565b600081519050610a7781610a51565b92915050565b60008060408385031215610a9457610a93610807565b5b6000610aa285828601610a68565b9250506020610ab385828601610988565b9150509250929050565b7f496e73756666696369656e7420555354442062616c616e636500000000000000600082015250565b6000610af36019836109ca565b9150610afe82610abd565b602082019050919050565b60006020820190508181036000830152610b2281610ae6565b9050919050565b6000606082019050610b3e600083018661095e565b610b4b602083018561095e565b610b5860408301846108a1565b949350505050565b60008115159050919050565b610b7581610b60565b8114610b8057600080fd5b50565b600081519050610b9281610b6c565b92915050565b600060208284031215610bae57610bad610807565b5b6000610bbc84828501610b83565b91505092915050565b6000604082019050610bda600083018561095e565b610be760208301846108a1565b9392505050565b7f496e73756666696369656e74204254432062616c616e63650000000000000000600082015250565b6000610c246018836109ca565b9150610c2f82610bee565b602082019050919050565b60006020820190508181036000830152610c5381610c17565b9050919050565b7f4e487b7100000000000000000000000000000000000000000000000000000000600052601260045260246000fd5b6000610c9482610897565b9150610c9f83610897565b925082610caf57610cae610c5a565b5b82820490509291505056fea264697066735822122020cd7965598847977bfc1923bdf6995fdb4d724eb9a1856944a9a5fa32ba43a764736f6c63430008110033",
  "linkReferences": {},
  "deployedLinkReferences": {}
}