{
  "abi": [
    {
      "anonymous": false,
      "inputs": [
        {
          "indexed": false,
          "internalType": "address",
          "name": "previousAdmin",
          "type": "address"
        },
        {
          "indexed": false,
          "internalType": "address",
          "name": "newAdmin",
          "type": "address"
        }
      ],
      "name": "AdminChanged",
      "type": "event"
    },
    {
      "anonymous": false,
      "inputs": [
        {
          "indexed": true,
          "internalType": "address",
          "name": "beacon",
          "type": "address"
        }
      ],
      "name": "BeaconUpgraded",
      "type": "event"
    },
    {
      "anonymous": false,
      "inputs": [
        {
          "indexed": true,
          "internalType": "address",
          "name": "implementation",
          "type": "address"
        }
      ],
      "name": "Upgraded",
      "type": "event"
    },
    {
      "inputs": [
        {
          "internalType": "uint256",
          "name": "newValue",
          "type": "uint256"
        }
      ],
      "name": "changeImportantVariable",
      "outputs": [],
      "stateMutability": "nonpayable",
      "type": "function"
    },
    {
      "inputs": [],
      "name": "importantVariable",
      "outputs": [
        {
          "internalType": "uint256",
          "name": "",
          "type": "uint256"
        }
      ],
      "stateMutability": "view",
      "type": "function"
    },
    {
      "inputs": [
        {
          "internalType": "address",
          "name": "newImplementation",
          "type": "address"
        }
      ],
      "name": "upgradeContract",
      "outputs": [],
      "stateMutability": "nonpayable",
      "type": "function"
    }
  ],
  "bytecode": {
    "object": "0x608060405234801561001057600080fd5b5061026a806100206000396000f3fe608060405234801561001057600080fd5b50600436106100415760003560e01c806372d5b4c4146100465780639170eb8e14610061578063eb2c022314610076575b600080fd5b61004f60005481565b60405190815260200160405180910390f35b61007461006f3660046101eb565b600055565b005b610074610084366004610204565b7fb53127684a568b3173ae13b9f8a6016e243e63b6e8ee1178d6a717850b5d6103546001600160a01b031633146100f15760405162461bcd60e51b815260206004820152600c60248201526b2737ba103232b83637bcb2b960a11b60448201526064015b60405180910390fd5b6100fa816100fd565b50565b6101068161013d565b6040516001600160a01b038216907fbc7cd75a20ee27fd9adebab32041f755214dbc6bffa90cc0225b39da2e5c2d3b90600090a250565b6001600160a01b0381163b6101aa5760405162461bcd60e51b815260206004820152602d60248201527f455243313936373a206e657720696d706c656d656e746174696f6e206973206e60448201526c1bdd08184818dbdb9d1c9858dd609a1b60648201526084016100e8565b7f360894a13ba1a3210667c828492db98dca3e2076cc3735a920a3ca505d382bbc80546001600160a01b0319166001600160a01b0392909216919091179055565b6000602082840312156101fd57600080fd5b5035919050565b60006020828403121561021657600080fd5b81356001600160a01b038116811461022d57600080fd5b939250505056fea26469706673582212207adbffd3d4a128ae7df8037bb07bae0727463447871e5806f3b4de0a809aa29664736f6c63430008140033",
    "linkReferences": {}
  },
  "methodIdentifiers": {
    "changeImportantVariable(uint256)": "9170eb8e",
    "importantVariable()": "72d5b4c4",
    "upgradeContract(address)": "eb2c0223"
  },
  "id": 8
}