{
  "_format": "hh-sol-artifact-1",
  "contractName": "PlaySudoku",
  "sourceName": "contracts/PlaySudoku.sol",
  "abi": [
    {
      "inputs": [],
      "stateMutability": "nonpayable",
      "type": "constructor"
    },
    {
      "inputs": [
        {
          "internalType": "uint256",
          "name": "",
          "type": "uint256"
        },
        {
          "internalType": "uint256",
          "name": "",
          "type": "uint256"
        }
      ],
      "name": "currentBoard",
      "outputs": [
        {
          "internalType": "uint8",
          "name": "",
          "type": "uint8"
        }
      ],
      "stateMutability": "view",
      "type": "function"
    },
    {
      "inputs": [
        {
          "internalType": "address",
          "name": "",
          "type": "address"
        }
      ],
      "name": "didThePlayerWin",
      "outputs": [
        {
          "internalType": "bool",
          "name": "",
          "type": "bool"
        }
      ],
      "stateMutability": "view",
      "type": "function"
    },
    {
      "inputs": [],
      "name": "emptyCount",
      "outputs": [
        {
          "internalType": "uint8",
          "name": "",
          "type": "uint8"
        }
      ],
      "stateMutability": "view",
      "type": "function"
    },
    {
      "inputs": [],
      "name": "generateBoard",
      "outputs": [],
      "stateMutability": "nonpayable",
      "type": "function"
    },
    {
      "inputs": [],
      "name": "getBoard",
      "outputs": [
        {
          "internalType": "uint8[9][9]",
          "name": "",
          "type": "uint8[9][9]"
        }
      ],
      "stateMutability": "view",
      "type": "function"
    },
    {
      "inputs": [
        {
          "internalType": "uint8",
          "name": "row",
          "type": "uint8"
        },
        {
          "internalType": "uint8",
          "name": "col",
          "type": "uint8"
        },
        {
          "internalType": "uint8",
          "name": "num",
          "type": "uint8"
        }
      ],
      "name": "isValid",
      "outputs": [
        {
          "internalType": "bool",
          "name": "",
          "type": "bool"
        }
      ],
      "stateMutability": "view",
      "type": "function"
    },
    {
      "inputs": [
        {
          "internalType": "uint8",
          "name": "row",
          "type": "uint8"
        },
        {
          "internalType": "uint8",
          "name": "col",
          "type": "uint8"
        },
        {
          "internalType": "uint8",
          "name": "num",
          "type": "uint8"
        }
      ],
      "name": "isValidSudoku",
      "outputs": [
        {
          "internalType": "bool",
          "name": "",
          "type": "bool"
        }
      ],
      "stateMutability": "view",
      "type": "function"
    },
    {
      "inputs": [
        {
          "internalType": "uint8[9][9]",
          "name": "newBoard",
          "type": "uint8[9][9]"
        }
      ],
      "name": "verifyWin",
      "outputs": [],
      "stateMutability": "nonpayable",
      "type": "function"
    }
  ],
  "bytecode": "0x60806040523480156200001157600080fd5b506200001c62000022565b620006b3565b6200002f6000806200019b565b506009805460ff1916905560005b60028160ff161015620001985760006200005960094262000662565b9050600060096200006e60ff851643620005e8565b6200007b9190406200064b565b905060008260ff1660098110620000a257634e487b7160e01b600052603260045260246000fd5b018160ff1660098110620000c657634e487b7160e01b600052603260045260246000fd5b602081049091015460ff601f9092166101000a9004161562000180576000808360ff16600981106200010857634e487b7160e01b600052603260045260246000fd5b018260ff16600981106200012c57634e487b7160e01b600052603260045260246000fd5b60208104909101805460ff938416601f9093166101000a928302928402191691909117905560098054909116906000620001668362000628565b91906101000a81548160ff021916908360ff160217905550505b505080806200018f9062000628565b9150506200003d565b50565b60008160ff1660091415620001be576000915082620001ba8162000628565b9350505b8260ff1660091415620001d45750600162000390565b60008360ff1660098110620001f957634e487b7160e01b600052603260045260246000fd5b018260ff16600981106200021d57634e487b7160e01b600052603260045260246000fd5b602081049091015460ff601f9092166101000a90041615620002595762000251836200024b846001620005c0565b6200019b565b905062000390565b60015b60098160ff16116200038a576200027584848362000396565b1562000375578060008560ff1660098110620002a157634e487b7160e01b600052603260045260246000fd5b018460ff1660098110620002c557634e487b7160e01b600052603260045260246000fd5b602091828204019190066101000a81548160ff021916908360ff160217905550620002f9848460016200024b9190620005c0565b156200030a57600191505062000390565b6000808560ff16600981106200033057634e487b7160e01b600052603260045260246000fd5b018460ff16600981106200035457634e487b7160e01b600052603260045260246000fd5b602091828204019190066101000a81548160ff021916908360ff1602179055505b80620003818162000628565b9150506200025c565b50600090505b92915050565b6000805b60098160ff1610156200049d578260ff1660008660ff1660098110620003d057634e487b7160e01b600052603260045260246000fd5b018260ff1660098110620003f457634e487b7160e01b600052603260045260246000fd5b602081049091015460ff601f9092166101000a90041614806200047757508260ff1660008260ff16600981106200043b57634e487b7160e01b600052603260045260246000fd5b018560ff16600981106200045f57634e487b7160e01b600052603260045260246000fd5b602081049091015460ff601f9092166101000a900416145b1562000488576000915050620005b9565b80620004948162000628565b9150506200039a565b506000620004ad60038662000662565b620004b9908662000602565b90506000620004ca60038662000662565b620004d6908662000602565b905060005b60038160ff161015620005b15760005b60038160ff1610156200059b5760ff861660006200050a8487620005c0565b60ff16600981106200052c57634e487b7160e01b600052603260045260246000fd5b01620005398386620005c0565b60ff16600981106200055b57634e487b7160e01b600052603260045260246000fd5b602081049091015460ff601f9092166101000a900416141562000586576000945050505050620005b9565b80620005928162000628565b915050620004eb565b5080620005a88162000628565b915050620004db565b506001925050505b9392505050565b600060ff821660ff84168060ff03821115620005e057620005e062000687565b019392505050565b600082821015620005fd57620005fd62000687565b500390565b600060ff821660ff8416808210156200061f576200061f62000687565b90039392505050565b600060ff821660ff81141562000642576200064262000687565b60010192915050565b6000826200065d576200065d6200069d565b500690565b600060ff8316806200067857620006786200069d565b8060ff84160691505092915050565b634e487b7160e01b600052601160045260246000fd5b634e487b7160e01b600052601260045260246000fd5b610fce80620006c36000396000f3fe608060405234801561001057600080fd5b50600436106100885760003560e01c80639aa2c7e91161005b5780639aa2c7e9146100dd578063cf19f7ba146100fd578063d385c79b14610110578063fb18995b1461012357610088565b80632058e9061461008d5780633264a34b146100ab5780636cf5e0c1146100c057806371d3426b146100ca575b600080fd5b610095610136565b6040516100a29190610e48565b60405180910390f35b6100b361013f565b6040516100a29190610dd8565b6100c86101c7565b005b6100c86100d8366004610ca9565b61032d565b6100f06100eb366004610d96565b610486565b6040516100a29190610e3d565b6100f061010b366004610d96565b61068d565b6100f061011e366004610c82565b6108de565b610095610131366004610d75565b6108f3565b60095460ff1681565b610147610b0d565b6040805161012081019091526000600981835b828210156101be57604080516101208101918290529085840190600990826000855b825461010083900a900460ff1681526020600192830181810494850194909303909202910180841161017c57905050505050508152602001906001019061015a565b50505050905090565b6101d260008061092f565b506009805460ff1916905560005b60028160ff16101561032a5760006101f9600942610f34565b90506000600961020c60ff851643610ec6565b610217919040610f20565b905060008260ff166009811061023d57634e487b7160e01b600052603260045260246000fd5b018160ff166009811061026057634e487b7160e01b600052603260045260246000fd5b602081049091015460ff601f9092166101000a90041615610315576000808360ff16600981106102a057634e487b7160e01b600052603260045260246000fd5b018260ff16600981106102c357634e487b7160e01b600052603260045260246000fd5b60208104909101805460ff938416601f9093166101000a9283029284021916919091179055600980549091169060006102fb83610f00565b91906101000a81548160ff021916908360ff160217905550505b5050808061032290610f00565b9150506101e0565b50565b61033a6000826009610b3b565b5060005b60098160ff1610156104685760005b60098160ff161015610455576103c0828260008560ff166009811061038257634e487b7160e01b600052603260045260246000fd5b018460ff16600981106103a557634e487b7160e01b600052603260045260246000fd5b602081049091015460ff601f9092166101000a90041661068d565b1580610426575060008260ff16600981106103eb57634e487b7160e01b600052603260045260246000fd5b018160ff166009811061040e57634e487b7160e01b600052603260045260246000fd5b602081049091015460ff601f9092166101000a900416155b1561044357336000908152600a60205260409020805460ff191690555b8061044d81610f00565b91505061034d565b508061046081610f00565b91505061033e565b5050336000908152600a60205260409020805460ff19166001179055565b6000805b60098160ff161015610582578260ff1660008660ff16600981106104be57634e487b7160e01b600052603260045260246000fd5b018260ff16600981106104e157634e487b7160e01b600052603260045260246000fd5b602081049091015460ff601f9092166101000a900416148061056157508260ff1660008260ff166009811061052657634e487b7160e01b600052603260045260246000fd5b018560ff166009811061054957634e487b7160e01b600052603260045260246000fd5b602081049091015460ff601f9092166101000a900416145b15610570576000915050610686565b8061057a81610f00565b91505061048a565b506000610590600386610f34565b61059a9086610edd565b905060006105a9600386610f34565b6105b39086610edd565b905060005b60038160ff16101561067e5760005b60038160ff16101561066b5760ff861660006105e38487610ea1565b60ff166009811061060457634e487b7160e01b600052603260045260246000fd5b0161060f8386610ea1565b60ff166009811061063057634e487b7160e01b600052603260045260246000fd5b602081049091015460ff601f9092166101000a9004161415610659576000945050505050610686565b8061066381610f00565b9150506105c7565b508061067681610f00565b9150506105b8565b506001925050505b9392505050565b6000805b60098160ff1610156107ac578360ff168160ff161415801561071157508260ff1660008660ff16600981106106d657634e487b7160e01b600052603260045260246000fd5b018260ff16600981106106f957634e487b7160e01b600052603260045260246000fd5b602081049091015460ff601f9092166101000a900416145b8061078b57508460ff168160ff161415801561078b57508260ff1660008260ff166009811061075057634e487b7160e01b600052603260045260246000fd5b018560ff166009811061077357634e487b7160e01b600052603260045260246000fd5b602081049091015460ff601f9092166101000a900416145b1561079a576000915050610686565b806107a481610f00565b915050610691565b5060006107ba600386610f34565b6107c49086610edd565b905060006107d3600386610f34565b6107dd9086610edd565b905060005b60038160ff16101561067e5760005b60038160ff1610156108cb5760ff881661080b8386610ea1565b60ff161415801561082b575060ff87166108258285610ea1565b60ff1614155b80156108a7575060ff861660006108428487610ea1565b60ff166009811061086357634e487b7160e01b600052603260045260246000fd5b0161086e8386610ea1565b60ff166009811061088f57634e487b7160e01b600052603260045260246000fd5b602081049091015460ff601f9092166101000a900416145b156108b9576000945050505050610686565b806108c381610f00565b9150506107f1565b50806108d681610f00565b9150506107e2565b600a6020526000908152604090205460ff1681565b6000826009811061090357600080fd5b01816009811061091257600080fd5b602081049091015460ff601f9092166101000a9004169150829050565b60008160ff166009141561094f57600091508261094b81610f00565b9350505b8260ff166009141561096357506001610b07565b60008360ff166009811061098757634e487b7160e01b600052603260045260246000fd5b018260ff16600981106109aa57634e487b7160e01b600052603260045260246000fd5b602081049091015460ff601f9092166101000a900416156109e0576109d9836109d4846001610ea1565b61092f565b9050610b07565b60015b60098160ff1611610b01576109f9848483610486565b15610aef578060008560ff1660098110610a2357634e487b7160e01b600052603260045260246000fd5b018460ff1660098110610a4657634e487b7160e01b600052603260045260246000fd5b602091828204019190066101000a81548160ff021916908360ff160217905550610a77848460016109d49190610ea1565b15610a86576001915050610b07565b6000808560ff1660098110610aab57634e487b7160e01b600052603260045260246000fd5b018460ff1660098110610ace57634e487b7160e01b600052603260045260246000fd5b602091828204019190066101000a81548160ff021916908360ff1602179055505b80610af981610f00565b9150506109e3565b50600090505b92915050565b6040518061012001604052806009905b610b25610b85565b815260200190600190039081610b1d5790505090565b8260098101928215610b75579160200282015b82811115610b75578251610b659083906009610ba4565b5091602001919060010190610b4e565b50610b81929150610c33565b5090565b6040518061012001604052806009906020820280368337509192915050565b600183019183908215610c275791602002820160005b83821115610bf857835183826101000a81548160ff021916908360ff1602179055509260200192600101602081600001049283019260010302610bba565b8015610c255782816101000a81549060ff0219169055600101602081600001049283019260010302610bf8565b505b50610b81929150610c50565b80821115610b81576000610c478282610c65565b50600101610c33565b5b80821115610b815760008155600101610c51565b5060009055565b803560ff81168114610c7d57600080fd5b919050565b600060208284031215610c93578081fd5b81356001600160a01b0381168114610686578182fd5b6000610a20808385031215610cbc578182fd5b601f8481850112610ccb578283fd5b6009610cde610cd982610e80565b610e56565b8086888689011115610cee578687fd5b8695505b83861015610d69578885820112610d07578687fd5b610d13610cd985610e80565b808261012084018c811115610d26578a8bfd5b8a5b88811015610d4e57610d3983610c6c565b85526020948501949290920191600101610d28565b5091865250600197909701966020909401939150610cf29050565b50979650505050505050565b60008060408385031215610d87578081fd5b50508035926020909101359150565b600080600060608486031215610daa578081fd5b610db384610c6c565b9250610dc160208501610c6c565b9150610dcf60408501610c6c565b90509250925092565b610a20810181836000805b6009808210610df25750610e33565b835185845b83811015610e1857825160ff16825260209283019290910190600101610df7565b50505061012094909401935060209290920191600101610de3565b5050505092915050565b901515815260200190565b60ff91909116815260200190565b60405181810167ffffffffffffffff81118282101715610e7857610e78610f82565b604052919050565b600067ffffffffffffffff821115610e9a57610e9a610f82565b5060200290565b600060ff821660ff84168060ff03821115610ebe57610ebe610f56565b019392505050565b600082821015610ed857610ed8610f56565b500390565b600060ff821660ff841680821015610ef757610ef7610f56565b90039392505050565b600060ff821660ff811415610f1757610f17610f56565b60010192915050565b600082610f2f57610f2f610f6c565b500690565b600060ff831680610f4757610f47610f6c565b8060ff84160691505092915050565b634e487b7160e01b600052601160045260246000fd5b634e487b7160e01b600052601260045260246000fd5b634e487b7160e01b600052604160045260246000fdfea26469706673582212205672e49d5b79ed4e65123a86ab45534f0c60cd100f534e935bcecb9a78cac1a464736f6c63430008000033",
  "linkReferences": {},
  "deployedLinkReferences": {}
}