{
	"contracts/OrderBookDex.sol": {
		"OrderBookDex": {
			"abi": [
				{
					"inputs": [
						{
							"internalType": "address",
							"name": "_pricefeed",
							"type": "address"
						}
					],
					"stateMutability": "nonpayable",
					"type": "constructor"
				},
				{
					"anonymous": false,
					"inputs": [
						{
							"indexed": true,
							"internalType": "address",
							"name": "previousOwner",
							"type": "address"
						},
						{
							"indexed": true,
							"internalType": "address",
							"name": "newOwner",
							"type": "address"
						}
					],
					"name": "OwnershipTransferred",
					"type": "event"
				},
				{
					"inputs": [
						{
							"internalType": "string",
							"name": "_name",
							"type": "string"
						},
						{
							"internalType": "uint256",
							"name": "_amount",
							"type": "uint256"
						}
					],
					"name": "addLiquidity",
					"outputs": [],
					"stateMutability": "nonpayable",
					"type": "function"
				},
				{
					"inputs": [
						{
							"internalType": "address",
							"name": "_token",
							"type": "address"
						},
						{
							"internalType": "string",
							"name": "_name",
							"type": "string"
						}
					],
					"name": "addTrustedTokens",
					"outputs": [],
					"stateMutability": "nonpayable",
					"type": "function"
				},
				{
					"inputs": [
						{
							"internalType": "address[]",
							"name": "_tokens",
							"type": "address[]"
						},
						{
							"internalType": "string[]",
							"name": "_names",
							"type": "string[]"
						}
					],
					"name": "addTrustedTokensMulti",
					"outputs": [],
					"stateMutability": "nonpayable",
					"type": "function"
				},
				{
					"inputs": [],
					"name": "owner",
					"outputs": [
						{
							"internalType": "address",
							"name": "",
							"type": "address"
						}
					],
					"stateMutability": "view",
					"type": "function"
				},
				{
					"inputs": [
						{
							"internalType": "string",
							"name": "fromTokenName",
							"type": "string"
						},
						{
							"internalType": "string",
							"name": "toTokenName",
							"type": "string"
						},
						{
							"internalType": "uint256",
							"name": "_amount",
							"type": "uint256"
						}
					],
					"name": "queryAmountOut",
					"outputs": [
						{
							"internalType": "int256",
							"name": "",
							"type": "int256"
						}
					],
					"stateMutability": "view",
					"type": "function"
				},
				{
					"inputs": [
						{
							"internalType": "string",
							"name": "numerator",
							"type": "string"
						},
						{
							"internalType": "string",
							"name": "denominator",
							"type": "string"
						}
					],
					"name": "ratio",
					"outputs": [
						{
							"internalType": "int256",
							"name": "",
							"type": "int256"
						}
					],
					"stateMutability": "view",
					"type": "function"
				},
				{
					"inputs": [],
					"name": "renounceOwnership",
					"outputs": [],
					"stateMutability": "nonpayable",
					"type": "function"
				},
				{
					"inputs": [
						{
							"internalType": "string",
							"name": "_fromTokenName",
							"type": "string"
						},
						{
							"internalType": "string",
							"name": "_toTokenName",
							"type": "string"
						},
						{
							"internalType": "uint256",
							"name": "_amount",
							"type": "uint256"
						}
					],
					"name": "swap",
					"outputs": [],
					"stateMutability": "nonpayable",
					"type": "function"
				},
				{
					"inputs": [
						{
							"internalType": "string",
							"name": "",
							"type": "string"
						}
					],
					"name": "tokenAddresses",
					"outputs": [
						{
							"internalType": "address",
							"name": "",
							"type": "address"
						}
					],
					"stateMutability": "view",
					"type": "function"
				},
				{
					"inputs": [
						{
							"internalType": "address",
							"name": "newOwner",
							"type": "address"
						}
					],
					"name": "transferOwnership",
					"outputs": [],
					"stateMutability": "nonpayable",
					"type": "function"
				}
			],
			"devdoc": {
				"kind": "dev",
				"methods": {
					"owner()": {
						"details": "Returns the address of the current owner."
					},
					"renounceOwnership()": {
						"details": "Leaves the contract without owner. It will not be possible to call `onlyOwner` functions anymore. Can only be called by the current owner. NOTE: Renouncing ownership will leave the contract without an owner, thereby removing any functionality that is only available to the owner."
					},
					"transferOwnership(address)": {
						"details": "Transfers ownership of the contract to a new account (`newOwner`). Can only be called by the current owner."
					}
				},
				"version": 1
			},
			"evm": {
				"assembly": "    /* \"contracts/OrderBookDex.sol\":222:4189  contract OrderBookDex is Ownable {... */\n  mstore(0x40, 0x80)\n    /* \"contracts/OrderBookDex.sol\":377:461  constructor(address _pricefeed){... */\n  callvalue\n  dup1\n  iszero\n  tag_1\n  jumpi\n  0x00\n  dup1\n  revert\ntag_1:\n  pop\n  mload(0x40)\n  sub(codesize, bytecodeSize)\n  dup1\n  bytecodeSize\n  dup4\n  codecopy\n  dup2\n  add\n  0x40\n  dup2\n  swap1\n  mstore\n  tag_2\n  swap2\n  tag_3\n  jump\t// in\ntag_2:\n    /* \"contracts/utils/Ownable.sol\":929:961  _transferOwnership(_msgSender()) */\n  tag_7\n    /* \"contracts/utils/Context.sol\":721:731  msg.sender */\n  caller\n    /* \"contracts/utils/Ownable.sol\":929:947  _transferOwnership */\n  tag_10\n    /* \"contracts/utils/Ownable.sol\":929:961  _transferOwnership(_msgSender()) */\n  jump\t// in\ntag_7:\n    /* \"contracts/OrderBookDex.sol\":418:427  pricefeed */\n  0x01\n    /* \"contracts/OrderBookDex.sol\":418:454  pricefeed = ISupraOracle(_pricefeed) */\n  dup1\n  sload\n  not(sub(shl(0xa0, 0x01), 0x01))\n  and\n  sub(shl(0xa0, 0x01), 0x01)\n  swap3\n  swap1\n  swap3\n  and\n  swap2\n  swap1\n  swap2\n  or\n  swap1\n  sstore\n    /* \"contracts/OrderBookDex.sol\":222:4189  contract OrderBookDex is Ownable {... */\n  jump(tag_15)\n    /* \"contracts/utils/Ownable.sol\":2426:2613  function _transferOwnership(address newOwner) internal virtual {... */\ntag_10:\n    /* \"contracts/utils/Ownable.sol\":2499:2515  address oldOwner */\n  0x00\n    /* \"contracts/utils/Ownable.sol\":2518:2524  _owner */\n  dup1\n  sload\n  sub(shl(0xa0, 0x01), 0x01)\n    /* \"contracts/utils/Ownable.sol\":2534:2551  _owner = newOwner */\n  dup4\n  dup2\n  and\n  not(sub(shl(0xa0, 0x01), 0x01))\n  dup4\n  and\n  dup2\n  or\n  dup5\n  sstore\n    /* \"contracts/utils/Ownable.sol\":2566:2606  OwnershipTransferred(oldOwner, newOwner) */\n  mload(0x40)\n    /* \"contracts/utils/Ownable.sol\":2518:2524  _owner */\n  swap2\n  swap1\n  swap3\n  and\n  swap3\n  dup4\n  swap2\n    /* \"contracts/utils/Ownable.sol\":2566:2606  OwnershipTransferred(oldOwner, newOwner) */\n  0x8be0079c531659141344cd1fd0a4f28419497f9722a3daafe3b4186f6b6457e0\n  swap2\n    /* \"contracts/utils/Ownable.sol\":2499:2515  address oldOwner */\n  swap1\n    /* \"contracts/utils/Ownable.sol\":2566:2606  OwnershipTransferred(oldOwner, newOwner) */\n  log3\n    /* \"contracts/utils/Ownable.sol\":2489:2613  {... */\n  pop\n    /* \"contracts/utils/Ownable.sol\":2426:2613  function _transferOwnership(address newOwner) internal virtual {... */\n  pop\n  jump\t// out\n    /* \"#utility.yul\":14:304   */\ntag_3:\n    /* \"#utility.yul\":84:90   */\n  0x00\n    /* \"#utility.yul\":137:139   */\n  0x20\n    /* \"#utility.yul\":125:134   */\n  dup3\n    /* \"#utility.yul\":116:123   */\n  dup5\n    /* \"#utility.yul\":112:135   */\n  sub\n    /* \"#utility.yul\":108:140   */\n  slt\n    /* \"#utility.yul\":105:157   */\n  iszero\n  tag_17\n  jumpi\n    /* \"#utility.yul\":153:154   */\n  0x00\n    /* \"#utility.yul\":150:151   */\n  dup1\n    /* \"#utility.yul\":143:155   */\n  revert\n    /* \"#utility.yul\":105:157   */\ntag_17:\n    /* \"#utility.yul\":179:195   */\n  dup2\n  mload\n  sub(shl(0xa0, 0x01), 0x01)\n    /* \"#utility.yul\":224:255   */\n  dup2\n  and\n    /* \"#utility.yul\":214:256   */\n  dup2\n  eq\n    /* \"#utility.yul\":204:274   */\n  tag_18\n  jumpi\n    /* \"#utility.yul\":270:271   */\n  0x00\n    /* \"#utility.yul\":267:268   */\n  dup1\n    /* \"#utility.yul\":260:272   */\n  revert\n    /* \"#utility.yul\":204:274   */\ntag_18:\n    /* \"#utility.yul\":293:298   */\n  swap4\n    /* \"#utility.yul\":14:304   */\n  swap3\n  pop\n  pop\n  pop\n  jump\t// out\ntag_15:\n    /* \"contracts/OrderBookDex.sol\":222:4189  contract OrderBookDex is Ownable {... */\n  dataSize(sub_0)\n  dup1\n  dataOffset(sub_0)\n  0x00\n  codecopy\n  0x00\n  return\nstop\n\nsub_0: assembly {\n        /* \"contracts/OrderBookDex.sol\":222:4189  contract OrderBookDex is Ownable {... */\n      mstore(0x40, 0x80)\n      callvalue\n      dup1\n      iszero\n      tag_1\n      jumpi\n      0x00\n      dup1\n      revert\n    tag_1:\n      pop\n      jumpi(tag_2, lt(calldatasize, 0x04))\n      shr(0xe0, calldataload(0x00))\n      dup1\n      0x935b13f6\n      gt\n      tag_13\n      jumpi\n      dup1\n      0xd7eb64f7\n      gt\n      tag_14\n      jumpi\n      dup1\n      0xd7eb64f7\n      eq\n      tag_10\n      jumpi\n      dup1\n      0xe07a8665\n      eq\n      tag_11\n      jumpi\n      dup1\n      0xf2fde38b\n      eq\n      tag_12\n      jumpi\n      0x00\n      dup1\n      revert\n    tag_14:\n      dup1\n      0x935b13f6\n      eq\n      tag_8\n      jumpi\n      dup1\n      0xa451f602\n      eq\n      tag_9\n      jumpi\n      0x00\n      dup1\n      revert\n    tag_13:\n      dup1\n      0x715018a6\n      gt\n      tag_15\n      jumpi\n      dup1\n      0x715018a6\n      eq\n      tag_5\n      jumpi\n      dup1\n      0x80770b05\n      eq\n      tag_6\n      jumpi\n      dup1\n      0x8da5cb5b\n      eq\n      tag_7\n      jumpi\n      0x00\n      dup1\n      revert\n    tag_15:\n      dup1\n      0x3161a93a\n      eq\n      tag_3\n      jumpi\n      dup1\n      0x433ff288\n      eq\n      tag_4\n      jumpi\n    tag_2:\n      0x00\n      dup1\n      revert\n        /* \"contracts/OrderBookDex.sol\":467:756  function ratio(string memory numerator, string memory denominator)... */\n    tag_3:\n      tag_16\n      tag_17\n      calldatasize\n      0x04\n      tag_18\n      jump\t// in\n    tag_17:\n      tag_19\n      jump\t// in\n    tag_16:\n      mload(0x40)\n        /* \"#utility.yul\":1829:1854   */\n      swap1\n      dup2\n      mstore\n        /* \"#utility.yul\":1817:1819   */\n      0x20\n        /* \"#utility.yul\":1802:1820   */\n      add\n        /* \"contracts/OrderBookDex.sol\":467:756  function ratio(string memory numerator, string memory denominator)... */\n    tag_20:\n      mload(0x40)\n      dup1\n      swap2\n      sub\n      swap1\n      return\n        /* \"contracts/OrderBookDex.sol\":2751:3109  function addLiquidity(string memory _name, uint256 _amount) public {... */\n    tag_4:\n      tag_22\n      tag_23\n      calldatasize\n      0x04\n      tag_24\n      jump\t// in\n    tag_23:\n      tag_25\n      jump\t// in\n    tag_22:\n      stop\n        /* \"contracts/utils/Ownable.sol\":1824:1925  function renounceOwnership() public virtual onlyOwner {... */\n    tag_5:\n      tag_22\n      tag_27\n      jump\t// in\n        /* \"contracts/OrderBookDex.sol\":762:1803  function queryAmountOut(... */\n    tag_6:\n      tag_16\n      tag_29\n      calldatasize\n      0x04\n      tag_30\n      jump\t// in\n    tag_29:\n      tag_31\n      jump\t// in\n        /* \"contracts/utils/Ownable.sol\":1194:1279  function owner() public view virtual returns (address) {... */\n    tag_7:\n        /* \"contracts/utils/Ownable.sol\":1240:1247  address */\n      0x00\n        /* \"contracts/utils/Ownable.sol\":1266:1272  _owner */\n      sload\n      0xffffffffffffffffffffffffffffffffffffffff\n      and\n        /* \"contracts/utils/Ownable.sol\":1194:1279  function owner() public view virtual returns (address) {... */\n    tag_33:\n      mload(0x40)\n        /* \"#utility.yul\":3052:3094   */\n      0xffffffffffffffffffffffffffffffffffffffff\n        /* \"#utility.yul\":3040:3095   */\n      swap1\n      swap2\n      and\n        /* \"#utility.yul\":3022:3096   */\n      dup2\n      mstore\n        /* \"#utility.yul\":3010:3012   */\n      0x20\n        /* \"#utility.yul\":2995:3013   */\n      add\n        /* \"contracts/utils/Ownable.sol\":1194:1279  function owner() public view virtual returns (address) {... */\n      tag_20\n        /* \"#utility.yul\":2876:3102   */\n      jump\n        /* \"contracts/OrderBookDex.sol\":322:370  mapping(string => address) public tokenAddresses */\n    tag_8:\n      tag_33\n      tag_38\n      calldatasize\n      0x04\n      tag_39\n      jump\t// in\n    tag_38:\n      dup1\n      mload\n      0x20\n      dup2\n      dup4\n      add\n      dup2\n      add\n      dup1\n      mload\n      0x02\n      dup3\n      mstore\n      swap3\n      dup3\n      add\n      swap2\n      swap1\n      swap4\n      add\n      keccak256\n      swap2\n      mstore\n      sload\n      0xffffffffffffffffffffffffffffffffffffffff\n      and\n      dup2\n      jump\n        /* \"contracts/OrderBookDex.sol\":1809:2745  function swap(... */\n    tag_9:\n      tag_22\n      tag_43\n      calldatasize\n      0x04\n      tag_30\n      jump\t// in\n    tag_43:\n      tag_44\n      jump\t// in\n        /* \"contracts/OrderBookDex.sol\":3268:3587  function addTrustedTokensMulti(... */\n    tag_10:\n      tag_22\n      tag_46\n      calldatasize\n      0x04\n      tag_47\n      jump\t// in\n    tag_46:\n      tag_48\n      jump\t// in\n        /* \"contracts/OrderBookDex.sol\":3115:3262  function addTrustedTokens(address _token, string memory _name)... */\n    tag_11:\n      tag_22\n      tag_50\n      calldatasize\n      0x04\n      tag_51\n      jump\t// in\n    tag_50:\n      tag_52\n      jump\t// in\n        /* \"contracts/utils/Ownable.sol\":2074:2272  function transferOwnership(address newOwner) public virtual onlyOwner {... */\n    tag_12:\n      tag_22\n      tag_54\n      calldatasize\n      0x04\n      tag_55\n      jump\t// in\n    tag_54:\n      tag_56\n      jump\t// in\n        /* \"contracts/OrderBookDex.sol\":467:756  function ratio(string memory numerator, string memory denominator)... */\n    tag_19:\n        /* \"contracts/OrderBookDex.sol\":579:585  int256 */\n      0x00\n        /* \"contracts/OrderBookDex.sol\":601:623  string memory pairName */\n      dup1\n        /* \"contracts/OrderBookDex.sol\":640:649  numerator */\n      dup4\n        /* \"contracts/OrderBookDex.sol\":656:667  denominator */\n      dup4\n        /* \"contracts/OrderBookDex.sol\":626:668  string.concat(numerator, \"_\", denominator) */\n      add(0x20, mload(0x40))\n      tag_58\n      swap3\n      swap2\n      swap1\n      tag_59\n      jump\t// in\n    tag_58:\n      0x40\n      dup1\n      mload\n      0xffffffffffffffffffffffffffffffffffffffffffffffffffffffffffffffe0\n      dup2\n      dup5\n      sub\n      add\n      dup2\n      mstore\n      swap1\n      dup3\n      swap1\n      mstore\n        /* \"contracts/OrderBookDex.sol\":697:706  pricefeed */\n      sload(0x01)\n        /* \"contracts/OrderBookDex.sol\":697:727  pricefeed.checkPrice(pairName) */\n      0xabc4544e00000000000000000000000000000000000000000000000000000000\n      dup4\n      mstore\n        /* \"contracts/OrderBookDex.sol\":626:668  string.concat(numerator, \"_\", denominator) */\n      swap1\n      swap3\n      pop\n        /* \"contracts/OrderBookDex.sol\":679:691  int256 price */\n      0x00\n      swap2\n        /* \"contracts/OrderBookDex.sol\":697:706  pricefeed */\n      0xffffffffffffffffffffffffffffffffffffffff\n      swap1\n      swap2\n      and\n      swap1\n        /* \"contracts/OrderBookDex.sol\":697:717  pricefeed.checkPrice */\n      0xabc4544e\n      swap1\n        /* \"contracts/OrderBookDex.sol\":697:727  pricefeed.checkPrice(pairName) */\n      tag_60\n      swap1\n        /* \"contracts/OrderBookDex.sol\":626:668  string.concat(numerator, \"_\", denominator) */\n      dup6\n      swap1\n        /* \"contracts/OrderBookDex.sol\":697:727  pricefeed.checkPrice(pairName) */\n      0x04\n      add\n      tag_61\n      jump\t// in\n    tag_60:\n      0x40\n      dup1\n      mload\n      dup1\n      dup4\n      sub\n      dup2\n      dup7\n      gas\n      staticcall\n      iszero\n      dup1\n      iszero\n      tag_63\n      jumpi\n      returndatasize\n      0x00\n      dup1\n      returndatacopy\n      revert(0x00, returndatasize)\n    tag_63:\n      pop\n      pop\n      pop\n      pop\n      mload(0x40)\n      returndatasize\n      not(0x1f)\n      0x1f\n      dup3\n      add\n      and\n      dup3\n      add\n      dup1\n      0x40\n      mstore\n      pop\n      dup2\n      add\n      swap1\n      tag_64\n      swap2\n      swap1\n      tag_65\n      jump\t// in\n    tag_64:\n      pop\n        /* \"contracts/OrderBookDex.sol\":678:727  (int256 price, ) = pricefeed.checkPrice(pairName) */\n      swap3\n      pop\n      pop\n      pop\n        /* \"contracts/OrderBookDex.sol\":467:756  function ratio(string memory numerator, string memory denominator)... */\n    tag_57:\n      swap3\n      swap2\n      pop\n      pop\n      jump\t// out\n        /* \"contracts/OrderBookDex.sol\":2751:3109  function addLiquidity(string memory _name, uint256 _amount) public {... */\n    tag_25:\n        /* \"contracts/OrderBookDex.sol\":2882:2883  0 */\n      0x00\n        /* \"contracts/OrderBookDex.sol\":2849:2884  tokenAddresses[_name] != address(0) */\n      0xffffffffffffffffffffffffffffffffffffffff\n      and\n        /* \"contracts/OrderBookDex.sol\":2849:2863  tokenAddresses */\n      0x02\n        /* \"contracts/OrderBookDex.sol\":2864:2869  _name */\n      dup4\n        /* \"contracts/OrderBookDex.sol\":2849:2870  tokenAddresses[_name] */\n      mload(0x40)\n      tag_67\n      swap2\n      swap1\n      tag_68\n      jump\t// in\n    tag_67:\n      swap1\n      dup2\n      mstore\n      mload(0x40)\n      swap1\n      dup2\n      swap1\n      sub\n      0x20\n      add\n      swap1\n      keccak256\n      sload\n      0xffffffffffffffffffffffffffffffffffffffff\n      and\n        /* \"contracts/OrderBookDex.sol\":2849:2884  tokenAddresses[_name] != address(0) */\n      sub\n        /* \"contracts/OrderBookDex.sol\":2828:2939  require(... */\n      tag_69\n      jumpi\n      mload(0x40)\n      0x08c379a000000000000000000000000000000000000000000000000000000000\n      dup2\n      mstore\n        /* \"#utility.yul\":8562:8564   */\n      0x20\n        /* \"contracts/OrderBookDex.sol\":2828:2939  require(... */\n      0x04\n      dup3\n      add\n        /* \"#utility.yul\":8544:8565   */\n      mstore\n        /* \"#utility.yul\":8601:8603   */\n      0x1d\n        /* \"#utility.yul\":8581:8599   */\n      0x24\n      dup3\n      add\n        /* \"#utility.yul\":8574:8604   */\n      mstore\n        /* \"#utility.yul\":8640:8671   */\n      0x546f6b656e73206e6f7420617661696c61626c6520666f722073776170000000\n        /* \"#utility.yul\":8620:8638   */\n      0x44\n      dup3\n      add\n        /* \"#utility.yul\":8613:8672   */\n      mstore\n        /* \"#utility.yul\":8689:8707   */\n      0x64\n      add\n        /* \"contracts/OrderBookDex.sol\":2828:2939  require(... */\n    tag_70:\n      mload(0x40)\n      dup1\n      swap2\n      sub\n      swap1\n      revert\n    tag_69:\n        /* \"contracts/OrderBookDex.sol\":2950:3102  _safeTransferFrom(... */\n      tag_72\n        /* \"contracts/OrderBookDex.sol\":2989:3003  tokenAddresses */\n      0x02\n        /* \"contracts/OrderBookDex.sol\":3004:3009  _name */\n      dup4\n        /* \"contracts/OrderBookDex.sol\":2989:3010  tokenAddresses[_name] */\n      mload(0x40)\n      tag_73\n      swap2\n      swap1\n      tag_68\n      jump\t// in\n    tag_73:\n      swap1\n      dup2\n      mstore\n      mload(0x40)\n      swap1\n      dup2\n      swap1\n      sub\n      0x20\n      add\n      swap1\n      keccak256\n      sload\n      0xffffffffffffffffffffffffffffffffffffffff\n      and\n        /* \"contracts/OrderBookDex.sol\":3033:3043  msg.sender */\n      caller\n        /* \"contracts/OrderBookDex.sol\":3066:3070  this */\n      address\n        /* \"contracts/OrderBookDex.sol\":3085:3092  _amount */\n      dup5\n        /* \"contracts/OrderBookDex.sol\":2950:2967  _safeTransferFrom */\n      tag_74\n        /* \"contracts/OrderBookDex.sol\":2950:3102  _safeTransferFrom(... */\n      jump\t// in\n    tag_72:\n        /* \"contracts/OrderBookDex.sol\":2751:3109  function addLiquidity(string memory _name, uint256 _amount) public {... */\n      pop\n      pop\n      jump\t// out\n        /* \"contracts/utils/Ownable.sol\":1824:1925  function renounceOwnership() public virtual onlyOwner {... */\n    tag_27:\n        /* \"contracts/utils/Ownable.sol\":1087:1100  _checkOwner() */\n      tag_76\n        /* \"contracts/utils/Ownable.sol\":1087:1098  _checkOwner */\n      tag_77\n        /* \"contracts/utils/Ownable.sol\":1087:1100  _checkOwner() */\n      jump\t// in\n    tag_76:\n        /* \"contracts/utils/Ownable.sol\":1888:1918  _transferOwnership(address(0)) */\n      tag_79\n        /* \"contracts/utils/Ownable.sol\":1915:1916  0 */\n      0x00\n        /* \"contracts/utils/Ownable.sol\":1888:1906  _transferOwnership */\n      tag_80\n        /* \"contracts/utils/Ownable.sol\":1888:1918  _transferOwnership(address(0)) */\n      jump\t// in\n    tag_79:\n        /* \"contracts/utils/Ownable.sol\":1824:1925  function renounceOwnership() public virtual onlyOwner {... */\n      jump\t// out\n        /* \"contracts/OrderBookDex.sol\":762:1803  function queryAmountOut(... */\n    tag_31:\n        /* \"contracts/OrderBookDex.sol\":1013:1037  abi.encodePacked(\"usdt\") */\n      mload(0x40)\n        /* \"#utility.yul\":8932:8938   */\n      0x7573647400000000000000000000000000000000000000000000000000000000\n        /* \"contracts/OrderBookDex.sol\":1013:1037  abi.encodePacked(\"usdt\") */\n      0x20\n      dup3\n      add\n        /* \"#utility.yul\":8920:8939   */\n      mstore\n        /* \"contracts/OrderBookDex.sol\":910:916  int256 */\n      0x00\n      swap1\n        /* \"#utility.yul\":8955:8966   */\n      0x24\n      add\n        /* \"contracts/OrderBookDex.sol\":1013:1037  abi.encodePacked(\"usdt\") */\n      mload(0x40)\n      0x20\n      dup2\n      dup4\n      sub\n      sub\n      dup2\n      mstore\n      swap1\n      0x40\n      mstore\n        /* \"contracts/OrderBookDex.sol\":1003:1038  keccak256(abi.encodePacked(\"usdt\")) */\n      dup1\n      mload\n      swap1\n      0x20\n      add\n      keccak256\n        /* \"contracts/OrderBookDex.sol\":972:985  fromTokenName */\n      dup5\n        /* \"contracts/OrderBookDex.sol\":955:986  abi.encodePacked(fromTokenName) */\n      add(0x20, mload(0x40))\n      tag_84\n      swap2\n      swap1\n      tag_68\n      jump\t// in\n    tag_84:\n      mload(0x40)\n      0x20\n      dup2\n      dup4\n      sub\n      sub\n      dup2\n      mstore\n      swap1\n      0x40\n      mstore\n        /* \"contracts/OrderBookDex.sol\":945:987  keccak256(abi.encodePacked(fromTokenName)) */\n      dup1\n      mload\n      swap1\n      0x20\n      add\n      keccak256\n        /* \"contracts/OrderBookDex.sol\":945:1038  keccak256(abi.encodePacked(fromTokenName)) ==... */\n      sub\n        /* \"contracts/OrderBookDex.sol\":928:1264  if (... */\n      tag_85\n      jumpi\n        /* \"contracts/OrderBookDex.sol\":1063:1079  int256 priceFlip */\n      0x00\n        /* \"contracts/OrderBookDex.sol\":1082:1115  ratio(toTokenName, fromTokenName) */\n      tag_86\n        /* \"contracts/OrderBookDex.sol\":1088:1099  toTokenName */\n      dup5\n        /* \"contracts/OrderBookDex.sol\":1101:1114  fromTokenName */\n      dup7\n        /* \"contracts/OrderBookDex.sol\":1082:1087  ratio */\n      tag_19\n        /* \"contracts/OrderBookDex.sol\":1082:1115  ratio(toTokenName, fromTokenName) */\n      jump\t// in\n    tag_86:\n        /* \"contracts/OrderBookDex.sol\":1063:1115  int256 priceFlip = ratio(toTokenName, fromTokenName) */\n      swap1\n      pop\n        /* \"contracts/OrderBookDex.sol\":1129:1153  int256 tokenAmountToUSDT */\n      0x00\n        /* \"contracts/OrderBookDex.sol\":1175:1199  int256(1e18) / priceFlip */\n      tag_87\n        /* \"contracts/OrderBookDex.sol\":1063:1115  int256 priceFlip = ratio(toTokenName, fromTokenName) */\n      dup3\n        /* \"contracts/OrderBookDex.sol\":1182:1186  1e18 */\n      0x0de0b6b3a7640000\n        /* \"contracts/OrderBookDex.sol\":1175:1199  int256(1e18) / priceFlip */\n      tag_88\n      jump\t// in\n    tag_87:\n        /* \"contracts/OrderBookDex.sol\":1156:1200  int256(_amount) * (int256(1e18) / priceFlip) */\n      tag_89\n      swap1\n        /* \"contracts/OrderBookDex.sol\":1163:1170  _amount */\n      dup6\n        /* \"contracts/OrderBookDex.sol\":1156:1200  int256(_amount) * (int256(1e18) / priceFlip) */\n      tag_90\n      jump\t// in\n    tag_89:\n        /* \"contracts/OrderBookDex.sol\":1129:1200  int256 tokenAmountToUSDT = int256(_amount) * (int256(1e18) / priceFlip) */\n      swap1\n      pop\n        /* \"contracts/OrderBookDex.sol\":1249:1253  1e18 */\n      0x0de0b6b3a7640000\n        /* \"contracts/OrderBookDex.sol\":1222:1245  tokenAmountToUSDT * 1e8 */\n      tag_91\n        /* \"contracts/OrderBookDex.sol\":1129:1200  int256 tokenAmountToUSDT = int256(_amount) * (int256(1e18) / priceFlip) */\n      dup3\n        /* \"contracts/OrderBookDex.sol\":1242:1245  1e8 */\n      0x05f5e100\n        /* \"contracts/OrderBookDex.sol\":1222:1245  tokenAmountToUSDT * 1e8 */\n      tag_90\n      jump\t// in\n    tag_91:\n        /* \"contracts/OrderBookDex.sol\":1221:1253  (tokenAmountToUSDT * 1e8) / 1e18 */\n      tag_92\n      swap2\n      swap1\n      tag_88\n      jump\t// in\n    tag_92:\n        /* \"contracts/OrderBookDex.sol\":1214:1253  return (tokenAmountToUSDT * 1e8) / 1e18 */\n      swap3\n      pop\n      pop\n      pop\n      jump(tag_81)\n        /* \"contracts/OrderBookDex.sol\":928:1264  if (... */\n    tag_85:\n        /* \"contracts/OrderBookDex.sol\":1369:1380  toTokenName */\n      dup3\n        /* \"contracts/OrderBookDex.sol\":1352:1381  abi.encodePacked(toTokenName) */\n      add(0x20, mload(0x40))\n      tag_93\n      swap2\n      swap1\n      tag_68\n      jump\t// in\n    tag_93:\n      mload(0x40)\n      0x20\n      dup2\n      dup4\n      sub\n      sub\n      dup2\n      mstore\n      swap1\n      0x40\n      mstore\n        /* \"contracts/OrderBookDex.sol\":1342:1382  keccak256(abi.encodePacked(toTokenName)) */\n      dup1\n      mload\n      swap1\n      0x20\n      add\n      keccak256\n        /* \"contracts/OrderBookDex.sol\":1301:1325  abi.encodePacked(\"usdt\") */\n      add(0x20, mload(0x40))\n      tag_94\n      swap1\n        /* \"#utility.yul\":8932:8938   */\n      0x7573647400000000000000000000000000000000000000000000000000000000\n        /* \"#utility.yul\":8920:8939   */\n      dup2\n      mstore\n        /* \"#utility.yul\":8964:8965   */\n      0x04\n        /* \"#utility.yul\":8955:8966   */\n      add\n      swap1\n        /* \"#utility.yul\":8718:8972   */\n      jump\n        /* \"contracts/OrderBookDex.sol\":1301:1325  abi.encodePacked(\"usdt\") */\n    tag_94:\n      mload(0x40)\n      0x20\n      dup2\n      dup4\n      sub\n      sub\n      dup2\n      mstore\n      swap1\n      0x40\n      mstore\n        /* \"contracts/OrderBookDex.sol\":1291:1326  keccak256(abi.encodePacked(\"usdt\")) */\n      dup1\n      mload\n      swap1\n      0x20\n      add\n      keccak256\n        /* \"contracts/OrderBookDex.sol\":1291:1382  keccak256(abi.encodePacked(\"usdt\")) ==... */\n      sub\n        /* \"contracts/OrderBookDex.sol\":1274:1580  if (... */\n      tag_95\n      jumpi\n        /* \"contracts/OrderBookDex.sol\":1407:1419  int256 price */\n      0x00\n        /* \"contracts/OrderBookDex.sol\":1422:1455  ratio(fromTokenName, toTokenName) */\n      tag_96\n        /* \"contracts/OrderBookDex.sol\":1428:1441  fromTokenName */\n      dup6\n        /* \"contracts/OrderBookDex.sol\":1443:1454  toTokenName */\n      dup6\n        /* \"contracts/OrderBookDex.sol\":1422:1427  ratio */\n      tag_19\n        /* \"contracts/OrderBookDex.sol\":1422:1455  ratio(fromTokenName, toTokenName) */\n      jump\t// in\n    tag_96:\n        /* \"contracts/OrderBookDex.sol\":1407:1455  int256 price = ratio(fromTokenName, toTokenName) */\n      swap1\n      pop\n        /* \"contracts/OrderBookDex.sol\":1469:1495  int256 tokenAmountFromUSDT */\n      0x00\n        /* \"contracts/OrderBookDex.sol\":1498:1523  int256(_amount) * (price) */\n      tag_97\n        /* \"contracts/OrderBookDex.sol\":1407:1455  int256 price = ratio(fromTokenName, toTokenName) */\n      dup3\n        /* \"contracts/OrderBookDex.sol\":1505:1512  _amount */\n      dup6\n        /* \"contracts/OrderBookDex.sol\":1498:1523  int256(_amount) * (price) */\n      tag_90\n      jump\t// in\n    tag_97:\n        /* \"contracts/OrderBookDex.sol\":1469:1523  int256 tokenAmountFromUSDT = int256(_amount) * (price) */\n      swap1\n      pop\n        /* \"contracts/OrderBookDex.sol\":1544:1569  tokenAmountFromUSDT / 1e8 */\n      tag_92\n        /* \"contracts/OrderBookDex.sol\":1566:1569  1e8 */\n      0x05f5e100\n        /* \"contracts/OrderBookDex.sol\":1469:1523  int256 tokenAmountFromUSDT = int256(_amount) * (price) */\n      dup3\n        /* \"contracts/OrderBookDex.sol\":1544:1569  tokenAmountFromUSDT / 1e8 */\n      tag_88\n      jump\t// in\n        /* \"contracts/OrderBookDex.sol\":1274:1580  if (... */\n    tag_95:\n        /* \"contracts/OrderBookDex.sol\":1590:1603  int256 price1 */\n      0x00\n        /* \"contracts/OrderBookDex.sol\":1606:1634  ratio(fromTokenName, \"usdt\") */\n      tag_99\n        /* \"contracts/OrderBookDex.sol\":1612:1625  fromTokenName */\n      dup6\n        /* \"contracts/OrderBookDex.sol\":1606:1634  ratio(fromTokenName, \"usdt\") */\n      mload(0x40)\n      dup1\n      0x40\n      add\n      0x40\n      mstore\n      dup1\n      0x04\n      dup2\n      mstore\n      0x20\n      add\n      0x7573647400000000000000000000000000000000000000000000000000000000\n      dup2\n      mstore\n      pop\n        /* \"contracts/OrderBookDex.sol\":1606:1611  ratio */\n      tag_19\n        /* \"contracts/OrderBookDex.sol\":1606:1634  ratio(fromTokenName, \"usdt\") */\n      jump\t// in\n    tag_99:\n        /* \"contracts/OrderBookDex.sol\":1590:1634  int256 price1 = ratio(fromTokenName, \"usdt\") */\n      swap1\n      pop\n        /* \"contracts/OrderBookDex.sol\":1644:1657  int256 price2 */\n      0x00\n        /* \"contracts/OrderBookDex.sol\":1660:1686  ratio(toTokenName, \"usdt\") */\n      tag_100\n        /* \"contracts/OrderBookDex.sol\":1666:1677  toTokenName */\n      dup6\n        /* \"contracts/OrderBookDex.sol\":1660:1686  ratio(toTokenName, \"usdt\") */\n      mload(0x40)\n      dup1\n      0x40\n      add\n      0x40\n      mstore\n      dup1\n      0x04\n      dup2\n      mstore\n      0x20\n      add\n      0x7573647400000000000000000000000000000000000000000000000000000000\n      dup2\n      mstore\n      pop\n        /* \"contracts/OrderBookDex.sol\":1660:1665  ratio */\n      tag_19\n        /* \"contracts/OrderBookDex.sol\":1660:1686  ratio(toTokenName, \"usdt\") */\n      jump\t// in\n    tag_100:\n        /* \"contracts/OrderBookDex.sol\":1644:1686  int256 price2 = ratio(toTokenName, \"usdt\") */\n      swap1\n      pop\n        /* \"contracts/OrderBookDex.sol\":1696:1714  int256 tokenAmount */\n      0x00\n        /* \"contracts/OrderBookDex.sol\":1644:1686  int256 price2 = ratio(toTokenName, \"usdt\") */\n      dup2\n        /* \"contracts/OrderBookDex.sol\":1737:1750  price1 * 1e18 */\n      tag_101\n        /* \"contracts/OrderBookDex.sol\":1737:1743  price1 */\n      dup5\n        /* \"contracts/OrderBookDex.sol\":1746:1750  1e18 */\n      0x0de0b6b3a7640000\n        /* \"contracts/OrderBookDex.sol\":1737:1750  price1 * 1e18 */\n      tag_90\n      jump\t// in\n    tag_101:\n        /* \"contracts/OrderBookDex.sol\":1736:1760  (price1 * 1e18) / price2 */\n      tag_102\n      swap2\n      swap1\n      tag_88\n      jump\t// in\n    tag_102:\n        /* \"contracts/OrderBookDex.sol\":1717:1761  int256(_amount) * ((price1 * 1e18) / price2) */\n      tag_103\n      swap1\n        /* \"contracts/OrderBookDex.sol\":1724:1731  _amount */\n      dup7\n        /* \"contracts/OrderBookDex.sol\":1717:1761  int256(_amount) * ((price1 * 1e18) / price2) */\n      tag_90\n      jump\t// in\n    tag_103:\n        /* \"contracts/OrderBookDex.sol\":1696:1761  int256 tokenAmount = int256(_amount) * ((price1 * 1e18) / price2) */\n      swap1\n      pop\n        /* \"contracts/OrderBookDex.sol\":1778:1796  tokenAmount / 1e18 */\n      tag_104\n        /* \"contracts/OrderBookDex.sol\":1792:1796  1e18 */\n      0x0de0b6b3a7640000\n        /* \"contracts/OrderBookDex.sol\":1696:1761  int256 tokenAmount = int256(_amount) * ((price1 * 1e18) / price2) */\n      dup3\n        /* \"contracts/OrderBookDex.sol\":1778:1796  tokenAmount / 1e18 */\n      tag_88\n      jump\t// in\n    tag_104:\n        /* \"contracts/OrderBookDex.sol\":1771:1796  return tokenAmount / 1e18 */\n      swap4\n      pop\n      pop\n      pop\n      pop\n        /* \"contracts/OrderBookDex.sol\":762:1803  function queryAmountOut(... */\n    tag_81:\n      swap4\n      swap3\n      pop\n      pop\n      pop\n      jump\t// out\n        /* \"contracts/OrderBookDex.sol\":1809:2745  function swap(... */\n    tag_44:\n        /* \"contracts/OrderBookDex.sol\":2009:2010  0 */\n      0x00\n        /* \"contracts/OrderBookDex.sol\":1967:2011  tokenAddresses[_fromTokenName] != address(0) */\n      0xffffffffffffffffffffffffffffffffffffffff\n      and\n        /* \"contracts/OrderBookDex.sol\":1967:1981  tokenAddresses */\n      0x02\n        /* \"contracts/OrderBookDex.sol\":1982:1996  _fromTokenName */\n      dup5\n        /* \"contracts/OrderBookDex.sol\":1967:1997  tokenAddresses[_fromTokenName] */\n      mload(0x40)\n      tag_107\n      swap2\n      swap1\n      tag_68\n      jump\t// in\n    tag_107:\n      swap1\n      dup2\n      mstore\n      mload(0x40)\n      swap1\n      dup2\n      swap1\n      sub\n      0x20\n      add\n      swap1\n      keccak256\n      sload\n      0xffffffffffffffffffffffffffffffffffffffff\n      and\n        /* \"contracts/OrderBookDex.sol\":1967:2011  tokenAddresses[_fromTokenName] != address(0) */\n      eq\n      dup1\n      iszero\n      swap1\n        /* \"contracts/OrderBookDex.sol\":1967:2073  tokenAddresses[_fromTokenName] != address(0) &&... */\n      tag_108\n      jumpi\n      pop\n        /* \"contracts/OrderBookDex.sol\":2071:2072  0 */\n      0x00\n        /* \"contracts/OrderBookDex.sol\":2031:2073  tokenAddresses[_toTokenName] != address(0) */\n      0xffffffffffffffffffffffffffffffffffffffff\n      and\n        /* \"contracts/OrderBookDex.sol\":2031:2045  tokenAddresses */\n      0x02\n        /* \"contracts/OrderBookDex.sol\":2046:2058  _toTokenName */\n      dup4\n        /* \"contracts/OrderBookDex.sol\":2031:2059  tokenAddresses[_toTokenName] */\n      mload(0x40)\n      tag_109\n      swap2\n      swap1\n      tag_68\n      jump\t// in\n    tag_109:\n      swap1\n      dup2\n      mstore\n      mload(0x40)\n      swap1\n      dup2\n      swap1\n      sub\n      0x20\n      add\n      swap1\n      keccak256\n      sload\n      0xffffffffffffffffffffffffffffffffffffffff\n      and\n        /* \"contracts/OrderBookDex.sol\":2031:2073  tokenAddresses[_toTokenName] != address(0) */\n      eq\n      iszero\n        /* \"contracts/OrderBookDex.sol\":1967:2073  tokenAddresses[_fromTokenName] != address(0) &&... */\n    tag_108:\n        /* \"contracts/OrderBookDex.sol\":1945:2129  require(... */\n      tag_110\n      jumpi\n      mload(0x40)\n      0x08c379a000000000000000000000000000000000000000000000000000000000\n      dup2\n      mstore\n        /* \"#utility.yul\":8562:8564   */\n      0x20\n        /* \"contracts/OrderBookDex.sol\":1945:2129  require(... */\n      0x04\n      dup3\n      add\n        /* \"#utility.yul\":8544:8565   */\n      mstore\n        /* \"#utility.yul\":8601:8603   */\n      0x1d\n        /* \"#utility.yul\":8581:8599   */\n      0x24\n      dup3\n      add\n        /* \"#utility.yul\":8574:8604   */\n      mstore\n        /* \"#utility.yul\":8640:8671   */\n      0x546f6b656e73206e6f7420617661696c61626c6520666f722073776170000000\n        /* \"#utility.yul\":8620:8638   */\n      0x44\n      dup3\n      add\n        /* \"#utility.yul\":8613:8672   */\n      mstore\n        /* \"#utility.yul\":8689:8707   */\n      0x64\n      add\n        /* \"contracts/OrderBookDex.sol\":1945:2129  require(... */\n      tag_70\n        /* \"#utility.yul\":8360:8713   */\n      jump\n        /* \"contracts/OrderBookDex.sol\":1945:2129  require(... */\n    tag_110:\n        /* \"contracts/OrderBookDex.sol\":2139:2159  uint256 returnAmount */\n      0x00\n        /* \"contracts/OrderBookDex.sol\":2183:2236  queryAmountOut(_fromTokenName, _toTokenName, _amount) */\n      tag_112\n        /* \"contracts/OrderBookDex.sol\":2198:2212  _fromTokenName */\n      dup5\n        /* \"contracts/OrderBookDex.sol\":2214:2226  _toTokenName */\n      dup5\n        /* \"contracts/OrderBookDex.sol\":2228:2235  _amount */\n      dup5\n        /* \"contracts/OrderBookDex.sol\":2183:2197  queryAmountOut */\n      tag_31\n        /* \"contracts/OrderBookDex.sol\":2183:2236  queryAmountOut(_fromTokenName, _toTokenName, _amount) */\n      jump\t// in\n    tag_112:\n        /* \"contracts/OrderBookDex.sol\":2139:2246  uint256 returnAmount = uint256(... */\n      swap1\n      pop\n        /* \"contracts/OrderBookDex.sol\":2279:2280  0 */\n      0x00\n        /* \"contracts/OrderBookDex.sol\":2264:2276  returnAmount */\n      dup2\n        /* \"contracts/OrderBookDex.sol\":2264:2280  returnAmount > 0 */\n      gt\n        /* \"contracts/OrderBookDex.sol\":2256:2303  require(returnAmount > 0, \"Invalid price feed\") */\n      tag_113\n      jumpi\n      mload(0x40)\n      0x08c379a000000000000000000000000000000000000000000000000000000000\n      dup2\n      mstore\n        /* \"#utility.yul\":10132:10134   */\n      0x20\n        /* \"contracts/OrderBookDex.sol\":2256:2303  require(returnAmount > 0, \"Invalid price feed\") */\n      0x04\n      dup3\n      add\n        /* \"#utility.yul\":10114:10135   */\n      mstore\n        /* \"#utility.yul\":10171:10173   */\n      0x12\n        /* \"#utility.yul\":10151:10169   */\n      0x24\n      dup3\n      add\n        /* \"#utility.yul\":10144:10174   */\n      mstore\n        /* \"#utility.yul\":10210:10230   */\n      0x496e76616c696420707269636520666565640000000000000000000000000000\n        /* \"#utility.yul\":10190:10208   */\n      0x44\n      dup3\n      add\n        /* \"#utility.yul\":10183:10231   */\n      mstore\n        /* \"#utility.yul\":10248:10266   */\n      0x64\n      add\n        /* \"contracts/OrderBookDex.sol\":2256:2303  require(returnAmount > 0, \"Invalid price feed\") */\n      tag_70\n        /* \"#utility.yul\":9930:10272   */\n      jump\n        /* \"contracts/OrderBookDex.sol\":2256:2303  require(returnAmount > 0, \"Invalid price feed\") */\n    tag_113:\n        /* \"contracts/OrderBookDex.sol\":2350:2375  _getBalance(_toTokenName) */\n      tag_116\n        /* \"contracts/OrderBookDex.sol\":2362:2374  _toTokenName */\n      dup4\n        /* \"contracts/OrderBookDex.sol\":2350:2361  _getBalance */\n      tag_117\n        /* \"contracts/OrderBookDex.sol\":2350:2375  _getBalance(_toTokenName) */\n      jump\t// in\n    tag_116:\n        /* \"contracts/OrderBookDex.sol\":2334:2346  returnAmount */\n      dup2\n        /* \"contracts/OrderBookDex.sol\":2334:2375  returnAmount <= _getBalance(_toTokenName) */\n      gt\n      iszero\n        /* \"contracts/OrderBookDex.sol\":2313:2423  require(... */\n      tag_118\n      jumpi\n      mload(0x40)\n      0x08c379a000000000000000000000000000000000000000000000000000000000\n      dup2\n      mstore\n        /* \"#utility.yul\":10479:10481   */\n      0x20\n        /* \"contracts/OrderBookDex.sol\":2313:2423  require(... */\n      0x04\n      dup3\n      add\n        /* \"#utility.yul\":10461:10482   */\n      mstore\n        /* \"#utility.yul\":10518:10520   */\n      0x16\n        /* \"#utility.yul\":10498:10516   */\n      0x24\n      dup3\n      add\n        /* \"#utility.yul\":10491:10521   */\n      mstore\n        /* \"#utility.yul\":10557:10581   */\n      0x496e73756666696369656e74204c697175696469747900000000000000000000\n        /* \"#utility.yul\":10537:10555   */\n      0x44\n      dup3\n      add\n        /* \"#utility.yul\":10530:10582   */\n      mstore\n        /* \"#utility.yul\":10599:10617   */\n      0x64\n      add\n        /* \"contracts/OrderBookDex.sol\":2313:2423  require(... */\n      tag_70\n        /* \"#utility.yul\":10277:10623   */\n      jump\n        /* \"contracts/OrderBookDex.sol\":2313:2423  require(... */\n    tag_118:\n        /* \"contracts/OrderBookDex.sol\":2433:2594  _safeTransferFrom(... */\n      tag_121\n        /* \"contracts/OrderBookDex.sol\":2472:2486  tokenAddresses */\n      0x02\n        /* \"contracts/OrderBookDex.sol\":2487:2501  _fromTokenName */\n      dup6\n        /* \"contracts/OrderBookDex.sol\":2472:2502  tokenAddresses[_fromTokenName] */\n      mload(0x40)\n      tag_122\n      swap2\n      swap1\n      tag_68\n      jump\t// in\n    tag_122:\n      swap1\n      dup2\n      mstore\n      mload(0x40)\n      swap1\n      dup2\n      swap1\n      sub\n      0x20\n      add\n      swap1\n      keccak256\n      sload\n      0xffffffffffffffffffffffffffffffffffffffff\n      and\n        /* \"contracts/OrderBookDex.sol\":2525:2535  msg.sender */\n      caller\n        /* \"contracts/OrderBookDex.sol\":2558:2562  this */\n      address\n        /* \"contracts/OrderBookDex.sol\":2577:2584  _amount */\n      dup6\n        /* \"contracts/OrderBookDex.sol\":2433:2450  _safeTransferFrom */\n      tag_74\n        /* \"contracts/OrderBookDex.sol\":2433:2594  _safeTransferFrom(... */\n      jump\t// in\n    tag_121:\n        /* \"contracts/OrderBookDex.sol\":2604:2737  _safeTransfer(... */\n      tag_123\n        /* \"contracts/OrderBookDex.sol\":2639:2653  tokenAddresses */\n      0x02\n        /* \"contracts/OrderBookDex.sol\":2654:2666  _toTokenName */\n      dup5\n        /* \"contracts/OrderBookDex.sol\":2639:2667  tokenAddresses[_toTokenName] */\n      mload(0x40)\n      tag_124\n      swap2\n      swap1\n      tag_68\n      jump\t// in\n    tag_124:\n      swap1\n      dup2\n      mstore\n      mload(0x40)\n      swap1\n      dup2\n      swap1\n      sub\n      0x20\n      add\n      swap1\n      keccak256\n      sload\n      0xffffffffffffffffffffffffffffffffffffffff\n      and\n        /* \"contracts/OrderBookDex.sol\":2690:2700  msg.sender */\n      caller\n        /* \"contracts/OrderBookDex.sol\":2715:2727  returnAmount */\n      dup4\n        /* \"contracts/OrderBookDex.sol\":2604:2617  _safeTransfer */\n      tag_125\n        /* \"contracts/OrderBookDex.sol\":2604:2737  _safeTransfer(... */\n      jump\t// in\n    tag_123:\n        /* \"contracts/OrderBookDex.sol\":1935:2745  {... */\n      pop\n        /* \"contracts/OrderBookDex.sol\":1809:2745  function swap(... */\n      pop\n      pop\n      pop\n      jump\t// out\n        /* \"contracts/OrderBookDex.sol\":3268:3587  function addTrustedTokensMulti(... */\n    tag_48:\n        /* \"contracts/utils/Ownable.sol\":1087:1100  _checkOwner() */\n      tag_127\n        /* \"contracts/utils/Ownable.sol\":1087:1098  _checkOwner */\n      tag_77\n        /* \"contracts/utils/Ownable.sol\":1087:1100  _checkOwner() */\n      jump\t// in\n    tag_127:\n        /* \"contracts/OrderBookDex.sol\":3424:3430  _names */\n      dup1\n        /* \"contracts/OrderBookDex.sol\":3424:3437  _names.length */\n      mload\n        /* \"contracts/OrderBookDex.sol\":3406:3413  _tokens */\n      dup3\n        /* \"contracts/OrderBookDex.sol\":3406:3420  _tokens.length */\n      mload\n        /* \"contracts/OrderBookDex.sol\":3406:3437  _tokens.length == _names.length */\n      eq\n        /* \"contracts/OrderBookDex.sol\":3398:3462  require(_tokens.length == _names.length, \"Invalid Names/Tokens\") */\n      tag_129\n      jumpi\n      mload(0x40)\n      0x08c379a000000000000000000000000000000000000000000000000000000000\n      dup2\n      mstore\n        /* \"#utility.yul\":10830:10832   */\n      0x20\n        /* \"contracts/OrderBookDex.sol\":3398:3462  require(_tokens.length == _names.length, \"Invalid Names/Tokens\") */\n      0x04\n      dup3\n      add\n        /* \"#utility.yul\":10812:10833   */\n      mstore\n        /* \"#utility.yul\":10869:10871   */\n      0x14\n        /* \"#utility.yul\":10849:10867   */\n      0x24\n      dup3\n      add\n        /* \"#utility.yul\":10842:10872   */\n      mstore\n        /* \"#utility.yul\":10908:10930   */\n      0x496e76616c6964204e616d65732f546f6b656e73000000000000000000000000\n        /* \"#utility.yul\":10888:10906   */\n      0x44\n      dup3\n      add\n        /* \"#utility.yul\":10881:10931   */\n      mstore\n        /* \"#utility.yul\":10948:10966   */\n      0x64\n      add\n        /* \"contracts/OrderBookDex.sol\":3398:3462  require(_tokens.length == _names.length, \"Invalid Names/Tokens\") */\n      tag_70\n        /* \"#utility.yul\":10628:10972   */\n      jump\n        /* \"contracts/OrderBookDex.sol\":3398:3462  require(_tokens.length == _names.length, \"Invalid Names/Tokens\") */\n    tag_129:\n        /* \"contracts/OrderBookDex.sol\":3478:3487  uint256 i */\n      0x00\n        /* \"contracts/OrderBookDex.sol\":3473:3581  for (uint256 i = 0; i < _tokens.length; i++) {... */\n    tag_132:\n        /* \"contracts/OrderBookDex.sol\":3497:3504  _tokens */\n      dup3\n        /* \"contracts/OrderBookDex.sol\":3497:3511  _tokens.length */\n      mload\n        /* \"contracts/OrderBookDex.sol\":3493:3494  i */\n      dup2\n        /* \"contracts/OrderBookDex.sol\":3493:3511  i < _tokens.length */\n      lt\n        /* \"contracts/OrderBookDex.sol\":3473:3581  for (uint256 i = 0; i < _tokens.length; i++) {... */\n      iszero\n      tag_133\n      jumpi\n        /* \"contracts/OrderBookDex.sol\":3560:3567  _tokens */\n      dup3\n        /* \"contracts/OrderBookDex.sol\":3568:3569  i */\n      dup2\n        /* \"contracts/OrderBookDex.sol\":3560:3570  _tokens[i] */\n      dup2\n      mload\n      dup2\n      lt\n      tag_136\n      jumpi\n      tag_136\n      tag_137\n      jump\t// in\n    tag_136:\n      0x20\n      mul\n      0x20\n      add\n      add\n      mload\n        /* \"contracts/OrderBookDex.sol\":3532:3546  tokenAddresses */\n      0x02\n        /* \"contracts/OrderBookDex.sol\":3547:3553  _names */\n      dup4\n        /* \"contracts/OrderBookDex.sol\":3554:3555  i */\n      dup4\n        /* \"contracts/OrderBookDex.sol\":3547:3556  _names[i] */\n      dup2\n      mload\n      dup2\n      lt\n      tag_139\n      jumpi\n      tag_139\n      tag_137\n      jump\t// in\n    tag_139:\n      0x20\n      mul\n      0x20\n      add\n      add\n      mload\n        /* \"contracts/OrderBookDex.sol\":3532:3557  tokenAddresses[_names[i]] */\n      mload(0x40)\n      tag_140\n      swap2\n      swap1\n      tag_68\n      jump\t// in\n    tag_140:\n      swap1\n      dup2\n      mstore\n      mload(0x40)\n      swap1\n      dup2\n      swap1\n      sub\n      0x20\n      add\n      swap1\n      keccak256\n        /* \"contracts/OrderBookDex.sol\":3532:3570  tokenAddresses[_names[i]] = _tokens[i] */\n      dup1\n      sload\n      0xffffffffffffffffffffffffffffffffffffffff\n      swap3\n      swap1\n      swap3\n      and\n      0xffffffffffffffffffffffff0000000000000000000000000000000000000000\n      swap1\n      swap3\n      and\n      swap2\n      swap1\n      swap2\n      or\n      swap1\n      sstore\n        /* \"contracts/OrderBookDex.sol\":3513:3516  i++ */\n      dup1\n      tag_141\n      dup2\n      tag_142\n      jump\t// in\n    tag_141:\n      swap2\n      pop\n      pop\n        /* \"contracts/OrderBookDex.sol\":3473:3581  for (uint256 i = 0; i < _tokens.length; i++) {... */\n      jump(tag_132)\n    tag_133:\n      pop\n        /* \"contracts/OrderBookDex.sol\":3268:3587  function addTrustedTokensMulti(... */\n      pop\n      pop\n      jump\t// out\n        /* \"contracts/OrderBookDex.sol\":3115:3262  function addTrustedTokens(address _token, string memory _name)... */\n    tag_52:\n        /* \"contracts/utils/Ownable.sol\":1087:1100  _checkOwner() */\n      tag_144\n        /* \"contracts/utils/Ownable.sol\":1087:1098  _checkOwner */\n      tag_77\n        /* \"contracts/utils/Ownable.sol\":1087:1100  _checkOwner() */\n      jump\t// in\n    tag_144:\n        /* \"contracts/OrderBookDex.sol\":3249:3255  _token */\n      dup2\n        /* \"contracts/OrderBookDex.sol\":3225:3239  tokenAddresses */\n      0x02\n        /* \"contracts/OrderBookDex.sol\":3240:3245  _name */\n      dup3\n        /* \"contracts/OrderBookDex.sol\":3225:3246  tokenAddresses[_name] */\n      mload(0x40)\n      tag_146\n      swap2\n      swap1\n      tag_68\n      jump\t// in\n    tag_146:\n      swap1\n      dup2\n      mstore\n      mload(0x40)\n      swap1\n      dup2\n      swap1\n      sub\n      0x20\n      add\n      swap1\n      keccak256\n        /* \"contracts/OrderBookDex.sol\":3225:3255  tokenAddresses[_name] = _token */\n      dup1\n      sload\n      0xffffffffffffffffffffffffffffffffffffffff\n      swap3\n      swap1\n      swap3\n      and\n      0xffffffffffffffffffffffff0000000000000000000000000000000000000000\n      swap1\n      swap3\n      and\n      swap2\n      swap1\n      swap2\n      or\n      swap1\n      sstore\n      pop\n      pop\n        /* \"contracts/OrderBookDex.sol\":3115:3262  function addTrustedTokens(address _token, string memory _name)... */\n      jump\t// out\n        /* \"contracts/utils/Ownable.sol\":2074:2272  function transferOwnership(address newOwner) public virtual onlyOwner {... */\n    tag_56:\n        /* \"contracts/utils/Ownable.sol\":1087:1100  _checkOwner() */\n      tag_148\n        /* \"contracts/utils/Ownable.sol\":1087:1098  _checkOwner */\n      tag_77\n        /* \"contracts/utils/Ownable.sol\":1087:1100  _checkOwner() */\n      jump\t// in\n    tag_148:\n        /* \"contracts/utils/Ownable.sol\":2162:2184  newOwner != address(0) */\n      0xffffffffffffffffffffffffffffffffffffffff\n      dup2\n      and\n        /* \"contracts/utils/Ownable.sol\":2154:2227  require(newOwner != address(0), \"Ownable: new owner is the zero address\") */\n      tag_150\n      jumpi\n      mload(0x40)\n      0x08c379a000000000000000000000000000000000000000000000000000000000\n      dup2\n      mstore\n        /* \"#utility.yul\":11568:11570   */\n      0x20\n        /* \"contracts/utils/Ownable.sol\":2154:2227  require(newOwner != address(0), \"Ownable: new owner is the zero address\") */\n      0x04\n      dup3\n      add\n        /* \"#utility.yul\":11550:11571   */\n      mstore\n        /* \"#utility.yul\":11607:11609   */\n      0x26\n        /* \"#utility.yul\":11587:11605   */\n      0x24\n      dup3\n      add\n        /* \"#utility.yul\":11580:11610   */\n      mstore\n        /* \"#utility.yul\":11646:11680   */\n      0x4f776e61626c653a206e6577206f776e657220697320746865207a65726f2061\n        /* \"#utility.yul\":11626:11644   */\n      0x44\n      dup3\n      add\n        /* \"#utility.yul\":11619:11681   */\n      mstore\n        /* \"#utility.yul\":11717:11725   */\n      0x6464726573730000000000000000000000000000000000000000000000000000\n        /* \"#utility.yul\":11697:11715   */\n      0x64\n      dup3\n      add\n        /* \"#utility.yul\":11690:11726   */\n      mstore\n        /* \"#utility.yul\":11743:11762   */\n      0x84\n      add\n        /* \"contracts/utils/Ownable.sol\":2154:2227  require(newOwner != address(0), \"Ownable: new owner is the zero address\") */\n      tag_70\n        /* \"#utility.yul\":11366:11768   */\n      jump\n        /* \"contracts/utils/Ownable.sol\":2154:2227  require(newOwner != address(0), \"Ownable: new owner is the zero address\") */\n    tag_150:\n        /* \"contracts/utils/Ownable.sol\":2237:2265  _transferOwnership(newOwner) */\n      tag_153\n        /* \"contracts/utils/Ownable.sol\":2256:2264  newOwner */\n      dup2\n        /* \"contracts/utils/Ownable.sol\":2237:2255  _transferOwnership */\n      tag_80\n        /* \"contracts/utils/Ownable.sol\":2237:2265  _transferOwnership(newOwner) */\n      jump\t// in\n    tag_153:\n        /* \"contracts/utils/Ownable.sol\":2074:2272  function transferOwnership(address newOwner) public virtual onlyOwner {... */\n      pop\n      jump\t// out\n        /* \"contracts/OrderBookDex.sol\":3593:3804  function _safeTransferFrom(... */\n    tag_74:\n        /* \"contracts/OrderBookDex.sol\":3732:3797  IERC20(token).safeTransferFrom(address(from), address(to), value) */\n      tag_123\n        /* \"contracts/OrderBookDex.sol\":3732:3762  IERC20(token).safeTransferFrom */\n      0xffffffffffffffffffffffffffffffffffffffff\n      dup6\n      and\n        /* \"contracts/OrderBookDex.sol\":3771:3775  from */\n      dup5\n        /* \"contracts/OrderBookDex.sol\":3786:3788  to */\n      dup5\n        /* \"contracts/OrderBookDex.sol\":3791:3796  value */\n      dup5\n        /* \"contracts/OrderBookDex.sol\":3732:3762  IERC20(token).safeTransferFrom */\n      tag_156\n        /* \"contracts/OrderBookDex.sol\":3732:3797  IERC20(token).safeTransferFrom(address(from), address(to), value) */\n      jump\t// in\n        /* \"contracts/utils/Ownable.sol\":1352:1482  function _checkOwner() internal view virtual {... */\n    tag_77:\n        /* \"contracts/utils/Ownable.sol\":1240:1247  address */\n      0x00\n        /* \"contracts/utils/Ownable.sol\":1266:1272  _owner */\n      sload\n        /* \"contracts/utils/Ownable.sol\":1415:1438  owner() == _msgSender() */\n      0xffffffffffffffffffffffffffffffffffffffff\n        /* \"contracts/utils/Ownable.sol\":1266:1272  _owner */\n      and\n        /* \"contracts/utils/Context.sol\":721:731  msg.sender */\n      caller\n        /* \"contracts/utils/Ownable.sol\":1415:1438  owner() == _msgSender() */\n      eq\n        /* \"contracts/utils/Ownable.sol\":1407:1475  require(owner() == _msgSender(), \"Ownable: caller is not the owner\") */\n      tag_79\n      jumpi\n      mload(0x40)\n      0x08c379a000000000000000000000000000000000000000000000000000000000\n      dup2\n      mstore\n        /* \"#utility.yul\":11975:11977   */\n      0x20\n        /* \"contracts/utils/Ownable.sol\":1407:1475  require(owner() == _msgSender(), \"Ownable: caller is not the owner\") */\n      0x04\n      dup3\n      add\n        /* \"#utility.yul\":11957:11978   */\n      dup2\n      swap1\n      mstore\n        /* \"#utility.yul\":11994:12012   */\n      0x24\n      dup3\n      add\n        /* \"#utility.yul\":11987:12017   */\n      mstore\n        /* \"#utility.yul\":12053:12087   */\n      0x4f776e61626c653a2063616c6c6572206973206e6f7420746865206f776e6572\n        /* \"#utility.yul\":12033:12051   */\n      0x44\n      dup3\n      add\n        /* \"#utility.yul\":12026:12088   */\n      mstore\n        /* \"#utility.yul\":12105:12123   */\n      0x64\n      add\n        /* \"contracts/utils/Ownable.sol\":1407:1475  require(owner() == _msgSender(), \"Ownable: caller is not the owner\") */\n      tag_70\n        /* \"#utility.yul\":11773:12129   */\n      jump\n        /* \"contracts/utils/Ownable.sol\":2426:2613  function _transferOwnership(address newOwner) internal virtual {... */\n    tag_80:\n        /* \"contracts/utils/Ownable.sol\":2499:2515  address oldOwner */\n      0x00\n        /* \"contracts/utils/Ownable.sol\":2518:2524  _owner */\n      dup1\n      sload\n      0xffffffffffffffffffffffffffffffffffffffff\n        /* \"contracts/utils/Ownable.sol\":2534:2551  _owner = newOwner */\n      dup4\n      dup2\n      and\n      0xffffffffffffffffffffffff0000000000000000000000000000000000000000\n      dup4\n      and\n      dup2\n      or\n      dup5\n      sstore\n        /* \"contracts/utils/Ownable.sol\":2566:2606  OwnershipTransferred(oldOwner, newOwner) */\n      mload(0x40)\n        /* \"contracts/utils/Ownable.sol\":2518:2524  _owner */\n      swap2\n      swap1\n      swap3\n      and\n      swap3\n      dup4\n      swap2\n        /* \"contracts/utils/Ownable.sol\":2566:2606  OwnershipTransferred(oldOwner, newOwner) */\n      0x8be0079c531659141344cd1fd0a4f28419497f9722a3daafe3b4186f6b6457e0\n      swap2\n        /* \"contracts/utils/Ownable.sol\":2499:2515  address oldOwner */\n      swap1\n        /* \"contracts/utils/Ownable.sol\":2566:2606  OwnershipTransferred(oldOwner, newOwner) */\n      log3\n        /* \"contracts/utils/Ownable.sol\":2489:2613  {... */\n      pop\n        /* \"contracts/utils/Ownable.sol\":2426:2613  function _transferOwnership(address newOwner) internal virtual {... */\n      pop\n      jump\t// out\n        /* \"contracts/OrderBookDex.sol\":3986:4187  function _getBalance(string memory _tokenName)... */\n    tag_117:\n        /* \"contracts/OrderBookDex.sol\":4080:4095  uint256 balance */\n      0x00\n        /* \"contracts/OrderBookDex.sol\":4128:4142  tokenAddresses */\n      0x02\n        /* \"contracts/OrderBookDex.sol\":4143:4153  _tokenName */\n      dup3\n        /* \"contracts/OrderBookDex.sol\":4128:4154  tokenAddresses[_tokenName] */\n      mload(0x40)\n      tag_166\n      swap2\n      swap1\n      tag_68\n      jump\t// in\n    tag_166:\n      swap1\n      dup2\n      mstore\n      mload(0x40)\n      swap1\n      dup2\n      swap1\n      sub\n      0x20\n      add\n      dup2\n      keccak256\n      sload\n        /* \"contracts/OrderBookDex.sol\":4121:4180  IERC20(tokenAddresses[_tokenName]).balanceOf(address(this)) */\n      0x70a0823100000000000000000000000000000000000000000000000000000000\n      dup3\n      mstore\n        /* \"contracts/OrderBookDex.sol\":4174:4178  this */\n      address\n        /* \"contracts/OrderBookDex.sol\":4121:4180  IERC20(tokenAddresses[_tokenName]).balanceOf(address(this)) */\n      0x04\n      dup4\n      add\n        /* \"#utility.yul\":3022:3096   */\n      mstore\n        /* \"contracts/OrderBookDex.sol\":4128:4154  tokenAddresses[_tokenName] */\n      0xffffffffffffffffffffffffffffffffffffffff\n      and\n      swap1\n        /* \"contracts/OrderBookDex.sol\":4121:4165  IERC20(tokenAddresses[_tokenName]).balanceOf */\n      0x70a08231\n      swap1\n        /* \"#utility.yul\":2995:3013   */\n      0x24\n      add\n        /* \"contracts/OrderBookDex.sol\":4121:4180  IERC20(tokenAddresses[_tokenName]).balanceOf(address(this)) */\n      0x20\n      mload(0x40)\n      dup1\n      dup4\n      sub\n      dup2\n      dup7\n      gas\n      staticcall\n      iszero\n      dup1\n      iszero\n      tag_169\n      jumpi\n      returndatasize\n      0x00\n      dup1\n      returndatacopy\n      revert(0x00, returndatasize)\n    tag_169:\n      pop\n      pop\n      pop\n      pop\n      mload(0x40)\n      returndatasize\n      not(0x1f)\n      0x1f\n      dup3\n      add\n      and\n      dup3\n      add\n      dup1\n      0x40\n      mstore\n      pop\n      dup2\n      add\n      swap1\n      tag_57\n      swap2\n      swap1\n      tag_171\n      jump\t// in\n        /* \"contracts/OrderBookDex.sol\":3813:3980  function _safeTransfer(... */\n    tag_125:\n        /* \"contracts/OrderBookDex.sol\":3926:3973  IERC20(token).safeTransfer( address(to), value) */\n      tag_133\n        /* \"contracts/OrderBookDex.sol\":3926:3952  IERC20(token).safeTransfer */\n      0xffffffffffffffffffffffffffffffffffffffff\n      dup5\n      and\n        /* \"contracts/OrderBookDex.sol\":3962:3964  to */\n      dup4\n        /* \"contracts/OrderBookDex.sol\":3967:3972  value */\n      dup4\n        /* \"contracts/OrderBookDex.sol\":3926:3952  IERC20(token).safeTransfer */\n      tag_174\n        /* \"contracts/OrderBookDex.sol\":3926:3973  IERC20(token).safeTransfer( address(to), value) */\n      jump\t// in\n        /* \"contracts/utils/SafeERC20.sol\":874:1115  function safeTransferFrom(... */\n    tag_156:\n        /* \"contracts/utils/SafeERC20.sol\":1039:1107  abi.encodeWithSelector(token.transferFrom.selector, from, to, value) */\n      mload(0x40)\n        /* \"#utility.yul\":12535:12577   */\n      0xffffffffffffffffffffffffffffffffffffffff\n        /* \"#utility.yul\":12604:12619   */\n      dup1\n      dup6\n      and\n        /* \"contracts/utils/SafeERC20.sol\":1039:1107  abi.encodeWithSelector(token.transferFrom.selector, from, to, value) */\n      0x24\n      dup4\n      add\n        /* \"#utility.yul\":12586:12620   */\n      mstore\n        /* \"#utility.yul\":12656:12671   */\n      dup4\n      and\n        /* \"#utility.yul\":12636:12654   */\n      0x44\n      dup3\n      add\n        /* \"#utility.yul\":12629:12672   */\n      mstore\n        /* \"#utility.yul\":12688:12706   */\n      0x64\n      dup2\n      add\n        /* \"#utility.yul\":12681:12715   */\n      dup3\n      swap1\n      mstore\n        /* \"contracts/utils/SafeERC20.sol\":1012:1108  _callOptionalReturn(token, abi.encodeWithSelector(token.transferFrom.selector, from, to, value)) */\n      tag_123\n      swap1\n        /* \"contracts/utils/SafeERC20.sol\":1032:1037  token */\n      dup6\n      swap1\n        /* \"contracts/utils/SafeERC20.sol\":1062:1089  token.transferFrom.selector */\n      0x23b872dd00000000000000000000000000000000000000000000000000000000\n      swap1\n        /* \"#utility.yul\":12498:12516   */\n      0x84\n      add\n        /* \"contracts/utils/SafeERC20.sol\":1039:1107  abi.encodeWithSelector(token.transferFrom.selector, from, to, value) */\n    tag_177:\n      0x40\n      dup1\n      mload\n      0xffffffffffffffffffffffffffffffffffffffffffffffffffffffffffffffe0\n      dup2\n      dup5\n      sub\n      add\n      dup2\n      mstore\n      swap2\n      swap1\n      mstore\n      0x20\n      dup2\n      add\n      dup1\n      mload\n      0xffffffffffffffffffffffffffffffffffffffffffffffffffffffff\n      and\n      0xffffffff00000000000000000000000000000000000000000000000000000000\n      swap1\n      swap4\n      and\n      swap3\n      swap1\n      swap3\n      or\n      swap1\n      swap2\n      mstore\n        /* \"contracts/utils/SafeERC20.sol\":1012:1031  _callOptionalReturn */\n      tag_179\n        /* \"contracts/utils/SafeERC20.sol\":1012:1108  _callOptionalReturn(token, abi.encodeWithSelector(token.transferFrom.selector, from, to, value)) */\n      jump\t// in\n        /* \"contracts/utils/SafeERC20.sol\":663:868  function safeTransfer(... */\n    tag_174:\n        /* \"contracts/utils/SafeERC20.sol\":802:860  abi.encodeWithSelector(token.transfer.selector, to, value) */\n      mload(0x40)\n        /* \"#utility.yul\":12930:12972   */\n      0xffffffffffffffffffffffffffffffffffffffff\n        /* \"#utility.yul\":12918:12973   */\n      dup4\n      and\n        /* \"contracts/utils/SafeERC20.sol\":802:860  abi.encodeWithSelector(token.transfer.selector, to, value) */\n      0x24\n      dup3\n      add\n        /* \"#utility.yul\":12900:12974   */\n      mstore\n        /* \"#utility.yul\":12990:13008   */\n      0x44\n      dup2\n      add\n        /* \"#utility.yul\":12983:13017   */\n      dup3\n      swap1\n      mstore\n        /* \"contracts/utils/SafeERC20.sol\":775:861  _callOptionalReturn(token, abi.encodeWithSelector(token.transfer.selector, to, value)) */\n      tag_133\n      swap1\n        /* \"contracts/utils/SafeERC20.sol\":795:800  token */\n      dup5\n      swap1\n        /* \"contracts/utils/SafeERC20.sol\":825:848  token.transfer.selector */\n      0xa9059cbb00000000000000000000000000000000000000000000000000000000\n      swap1\n        /* \"#utility.yul\":12873:12891   */\n      0x64\n      add\n        /* \"contracts/utils/SafeERC20.sol\":802:860  abi.encodeWithSelector(token.transfer.selector, to, value) */\n      tag_177\n        /* \"#utility.yul\":12726:13023   */\n      jump\n        /* \"contracts/utils/SafeERC20.sol\":2160:3187  function _callOptionalReturn(IERC20 token, bytes memory data) private {... */\n    tag_179:\n        /* \"contracts/utils/SafeERC20.sol\":2809:2821  bool success */\n      0x00\n        /* \"contracts/utils/SafeERC20.sol\":2823:2846  bytes memory returndata */\n      dup1\n        /* \"contracts/utils/SafeERC20.sol\":2858:2863  token */\n      dup4\n        /* \"contracts/utils/SafeERC20.sol\":2850:2869  address(token).call */\n      0xffffffffffffffffffffffffffffffffffffffff\n      and\n        /* \"contracts/utils/SafeERC20.sol\":2870:2874  data */\n      dup4\n        /* \"contracts/utils/SafeERC20.sol\":2850:2875  address(token).call(data) */\n      mload(0x40)\n      tag_186\n      swap2\n      swap1\n      tag_68\n      jump\t// in\n    tag_186:\n      0x00\n      mload(0x40)\n      dup1\n      dup4\n      sub\n      dup2\n      0x00\n      dup7\n      gas\n      call\n      swap2\n      pop\n      pop\n      returndatasize\n      dup1\n      0x00\n      dup2\n      eq\n      tag_190\n      jumpi\n      mload(0x40)\n      swap2\n      pop\n      and(add(returndatasize, 0x3f), not(0x1f))\n      dup3\n      add\n      0x40\n      mstore\n      returndatasize\n      dup3\n      mstore\n      returndatasize\n      0x00\n      0x20\n      dup5\n      add\n      returndatacopy\n      jump(tag_189)\n    tag_190:\n      0x60\n      swap2\n      pop\n    tag_189:\n      pop\n        /* \"contracts/utils/SafeERC20.sol\":2808:2875  (bool success, bytes memory returndata) = address(token).call(data) */\n      swap2\n      pop\n      swap2\n      pop\n        /* \"contracts/utils/SafeERC20.sol\":2893:2900  success */\n      dup2\n        /* \"contracts/utils/SafeERC20.sol\":2885:2937  require(success, \"SafeERC20: low-level call failed\") */\n      tag_191\n      jumpi\n      mload(0x40)\n      0x08c379a000000000000000000000000000000000000000000000000000000000\n      dup2\n      mstore\n        /* \"#utility.yul\":13522:13524   */\n      0x20\n        /* \"contracts/utils/SafeERC20.sol\":2885:2937  require(success, \"SafeERC20: low-level call failed\") */\n      0x04\n      dup3\n      add\n        /* \"#utility.yul\":13504:13525   */\n      dup2\n      swap1\n      mstore\n        /* \"#utility.yul\":13541:13559   */\n      0x24\n      dup3\n      add\n        /* \"#utility.yul\":13534:13564   */\n      mstore\n        /* \"#utility.yul\":13600:13634   */\n      0x5361666545524332303a206c6f772d6c6576656c2063616c6c206661696c6564\n        /* \"#utility.yul\":13580:13598   */\n      0x44\n      dup3\n      add\n        /* \"#utility.yul\":13573:13635   */\n      mstore\n        /* \"#utility.yul\":13652:13670   */\n      0x64\n      add\n        /* \"contracts/utils/SafeERC20.sol\":2885:2937  require(success, \"SafeERC20: low-level call failed\") */\n      tag_70\n        /* \"#utility.yul\":13320:13676   */\n      jump\n        /* \"contracts/utils/SafeERC20.sol\":2885:2937  require(success, \"SafeERC20: low-level call failed\") */\n    tag_191:\n        /* \"contracts/utils/SafeERC20.sol\":2952:2969  returndata.length */\n      dup1\n      mload\n        /* \"contracts/utils/SafeERC20.sol\":2952:2973  returndata.length > 0 */\n      iszero\n        /* \"contracts/utils/SafeERC20.sol\":2948:3181  if (returndata.length > 0) {... */\n      tag_123\n      jumpi\n        /* \"contracts/utils/SafeERC20.sol\":3104:3114  returndata */\n      dup1\n        /* \"contracts/utils/SafeERC20.sol\":3093:3123  abi.decode(returndata, (bool)) */\n      dup1\n      0x20\n      add\n      swap1\n      mload\n      dup2\n      add\n      swap1\n      tag_195\n      swap2\n      swap1\n      tag_196\n      jump\t// in\n    tag_195:\n        /* \"contracts/utils/SafeERC20.sol\":3085:3170  require(abi.decode(returndata, (bool)), \"SafeERC20: ERC20 operation did not succeed\") */\n      tag_123\n      jumpi\n      mload(0x40)\n      0x08c379a000000000000000000000000000000000000000000000000000000000\n      dup2\n      mstore\n        /* \"#utility.yul\":14165:14167   */\n      0x20\n        /* \"contracts/utils/SafeERC20.sol\":3085:3170  require(abi.decode(returndata, (bool)), \"SafeERC20: ERC20 operation did not succeed\") */\n      0x04\n      dup3\n      add\n        /* \"#utility.yul\":14147:14168   */\n      mstore\n        /* \"#utility.yul\":14204:14206   */\n      0x2a\n        /* \"#utility.yul\":14184:14202   */\n      0x24\n      dup3\n      add\n        /* \"#utility.yul\":14177:14207   */\n      mstore\n        /* \"#utility.yul\":14243:14277   */\n      0x5361666545524332303a204552433230206f7065726174696f6e20646964206e\n        /* \"#utility.yul\":14223:14241   */\n      0x44\n      dup3\n      add\n        /* \"#utility.yul\":14216:14278   */\n      mstore\n        /* \"#utility.yul\":14314:14326   */\n      0x6f74207375636365656400000000000000000000000000000000000000000000\n        /* \"#utility.yul\":14294:14312   */\n      0x64\n      dup3\n      add\n        /* \"#utility.yul\":14287:14327   */\n      mstore\n        /* \"#utility.yul\":14344:14363   */\n      0x84\n      add\n        /* \"contracts/utils/SafeERC20.sol\":3085:3170  require(abi.decode(returndata, (bool)), \"SafeERC20: ERC20 operation did not succeed\") */\n      tag_70\n        /* \"#utility.yul\":13963:14369   */\n      jump\n        /* \"#utility.yul\":14:198   */\n    tag_200:\n        /* \"#utility.yul\":66:143   */\n      0x4e487b7100000000000000000000000000000000000000000000000000000000\n        /* \"#utility.yul\":63:64   */\n      0x00\n        /* \"#utility.yul\":56:144   */\n      mstore\n        /* \"#utility.yul\":163:167   */\n      0x41\n        /* \"#utility.yul\":160:161   */\n      0x04\n        /* \"#utility.yul\":153:168   */\n      mstore\n        /* \"#utility.yul\":187:191   */\n      0x24\n        /* \"#utility.yul\":184:185   */\n      0x00\n        /* \"#utility.yul\":177:192   */\n      revert\n        /* \"#utility.yul\":203:537   */\n    tag_201:\n        /* \"#utility.yul\":274:276   */\n      0x40\n        /* \"#utility.yul\":268:277   */\n      mload\n        /* \"#utility.yul\":330:332   */\n      0x1f\n        /* \"#utility.yul\":320:333   */\n      dup3\n      add\n        /* \"#utility.yul\":335:401   */\n      0xffffffffffffffffffffffffffffffffffffffffffffffffffffffffffffffe0\n        /* \"#utility.yul\":316:402   */\n      and\n        /* \"#utility.yul\":304:403   */\n      dup2\n      add\n        /* \"#utility.yul\":433:451   */\n      0xffffffffffffffff\n        /* \"#utility.yul\":418:452   */\n      dup2\n      gt\n        /* \"#utility.yul\":454:476   */\n      dup3\n      dup3\n      lt\n        /* \"#utility.yul\":415:477   */\n      or\n        /* \"#utility.yul\":412:500   */\n      iszero\n      tag_212\n      jumpi\n        /* \"#utility.yul\":480:498   */\n      tag_212\n      tag_200\n      jump\t// in\n    tag_212:\n        /* \"#utility.yul\":516:518   */\n      0x40\n        /* \"#utility.yul\":509:531   */\n      mstore\n        /* \"#utility.yul\":203:537   */\n      swap2\n      swap1\n      pop\n      jump\t// out\n        /* \"#utility.yul\":542:1132   */\n    tag_202:\n        /* \"#utility.yul\":585:590   */\n      0x00\n        /* \"#utility.yul\":638:641   */\n      dup3\n        /* \"#utility.yul\":631:635   */\n      0x1f\n        /* \"#utility.yul\":623:629   */\n      dup4\n        /* \"#utility.yul\":619:636   */\n      add\n        /* \"#utility.yul\":615:642   */\n      slt\n        /* \"#utility.yul\":605:660   */\n      tag_214\n      jumpi\n        /* \"#utility.yul\":656:657   */\n      0x00\n        /* \"#utility.yul\":653:654   */\n      dup1\n        /* \"#utility.yul\":646:658   */\n      revert\n        /* \"#utility.yul\":605:660   */\n    tag_214:\n        /* \"#utility.yul\":692:698   */\n      dup2\n        /* \"#utility.yul\":679:699   */\n      calldataload\n        /* \"#utility.yul\":718:736   */\n      0xffffffffffffffff\n        /* \"#utility.yul\":714:716   */\n      dup2\n        /* \"#utility.yul\":711:737   */\n      gt\n        /* \"#utility.yul\":708:760   */\n      iszero\n      tag_216\n      jumpi\n        /* \"#utility.yul\":740:758   */\n      tag_216\n      tag_200\n      jump\t// in\n    tag_216:\n        /* \"#utility.yul\":784:898   */\n      tag_217\n        /* \"#utility.yul\":892:896   */\n      0x20\n        /* \"#utility.yul\":823:889   */\n      0xffffffffffffffffffffffffffffffffffffffffffffffffffffffffffffffe0\n        /* \"#utility.yul\":816:820   */\n      0x1f\n        /* \"#utility.yul\":812:814   */\n      dup5\n        /* \"#utility.yul\":808:821   */\n      add\n        /* \"#utility.yul\":804:890   */\n      and\n        /* \"#utility.yul\":800:897   */\n      add\n        /* \"#utility.yul\":784:898   */\n      tag_201\n      jump\t// in\n    tag_217:\n        /* \"#utility.yul\":923:925   */\n      dup2\n        /* \"#utility.yul\":914:921   */\n      dup2\n        /* \"#utility.yul\":907:926   */\n      mstore\n        /* \"#utility.yul\":969:972   */\n      dup5\n        /* \"#utility.yul\":962:966   */\n      0x20\n        /* \"#utility.yul\":957:959   */\n      dup4\n        /* \"#utility.yul\":949:955   */\n      dup7\n        /* \"#utility.yul\":945:960   */\n      add\n        /* \"#utility.yul\":941:967   */\n      add\n        /* \"#utility.yul\":938:973   */\n      gt\n        /* \"#utility.yul\":935:990   */\n      iszero\n      tag_218\n      jumpi\n        /* \"#utility.yul\":986:987   */\n      0x00\n        /* \"#utility.yul\":983:984   */\n      dup1\n        /* \"#utility.yul\":976:988   */\n      revert\n        /* \"#utility.yul\":935:990   */\n    tag_218:\n        /* \"#utility.yul\":1051:1053   */\n      dup2\n        /* \"#utility.yul\":1044:1048   */\n      0x20\n        /* \"#utility.yul\":1036:1042   */\n      dup6\n        /* \"#utility.yul\":1032:1049   */\n      add\n        /* \"#utility.yul\":1025:1029   */\n      0x20\n        /* \"#utility.yul\":1016:1023   */\n      dup4\n        /* \"#utility.yul\":1012:1030   */\n      add\n        /* \"#utility.yul\":999:1054   */\n      calldatacopy\n        /* \"#utility.yul\":1099:1100   */\n      0x00\n        /* \"#utility.yul\":1074:1090   */\n      swap2\n      dup2\n      add\n        /* \"#utility.yul\":1092:1096   */\n      0x20\n        /* \"#utility.yul\":1070:1097   */\n      add\n        /* \"#utility.yul\":1063:1101   */\n      swap2\n      swap1\n      swap2\n      mstore\n        /* \"#utility.yul\":1078:1085   */\n      swap4\n        /* \"#utility.yul\":542:1132   */\n      swap3\n      pop\n      pop\n      pop\n      jump\t// out\n        /* \"#utility.yul\":1137:1680   */\n    tag_18:\n        /* \"#utility.yul\":1225:1231   */\n      0x00\n        /* \"#utility.yul\":1233:1239   */\n      dup1\n        /* \"#utility.yul\":1286:1288   */\n      0x40\n        /* \"#utility.yul\":1274:1283   */\n      dup4\n        /* \"#utility.yul\":1265:1272   */\n      dup6\n        /* \"#utility.yul\":1261:1284   */\n      sub\n        /* \"#utility.yul\":1257:1289   */\n      slt\n        /* \"#utility.yul\":1254:1306   */\n      iszero\n      tag_220\n      jumpi\n        /* \"#utility.yul\":1302:1303   */\n      0x00\n        /* \"#utility.yul\":1299:1300   */\n      dup1\n        /* \"#utility.yul\":1292:1304   */\n      revert\n        /* \"#utility.yul\":1254:1306   */\n    tag_220:\n        /* \"#utility.yul\":1342:1351   */\n      dup3\n        /* \"#utility.yul\":1329:1352   */\n      calldataload\n        /* \"#utility.yul\":1371:1389   */\n      0xffffffffffffffff\n        /* \"#utility.yul\":1412:1414   */\n      dup1\n        /* \"#utility.yul\":1404:1410   */\n      dup3\n        /* \"#utility.yul\":1401:1415   */\n      gt\n        /* \"#utility.yul\":1398:1432   */\n      iszero\n      tag_221\n      jumpi\n        /* \"#utility.yul\":1428:1429   */\n      0x00\n        /* \"#utility.yul\":1425:1426   */\n      dup1\n        /* \"#utility.yul\":1418:1430   */\n      revert\n        /* \"#utility.yul\":1398:1432   */\n    tag_221:\n        /* \"#utility.yul\":1451:1501   */\n      tag_222\n        /* \"#utility.yul\":1493:1500   */\n      dup7\n        /* \"#utility.yul\":1484:1490   */\n      dup4\n        /* \"#utility.yul\":1473:1482   */\n      dup8\n        /* \"#utility.yul\":1469:1491   */\n      add\n        /* \"#utility.yul\":1451:1501   */\n      tag_202\n      jump\t// in\n    tag_222:\n        /* \"#utility.yul\":1441:1501   */\n      swap4\n      pop\n        /* \"#utility.yul\":1554:1556   */\n      0x20\n        /* \"#utility.yul\":1543:1552   */\n      dup6\n        /* \"#utility.yul\":1539:1557   */\n      add\n        /* \"#utility.yul\":1526:1558   */\n      calldataload\n        /* \"#utility.yul\":1510:1558   */\n      swap2\n      pop\n        /* \"#utility.yul\":1583:1585   */\n      dup1\n        /* \"#utility.yul\":1573:1581   */\n      dup3\n        /* \"#utility.yul\":1570:1586   */\n      gt\n        /* \"#utility.yul\":1567:1603   */\n      iszero\n      tag_223\n      jumpi\n        /* \"#utility.yul\":1599:1600   */\n      0x00\n        /* \"#utility.yul\":1596:1597   */\n      dup1\n        /* \"#utility.yul\":1589:1601   */\n      revert\n        /* \"#utility.yul\":1567:1603   */\n    tag_223:\n      pop\n        /* \"#utility.yul\":1622:1674   */\n      tag_224\n        /* \"#utility.yul\":1666:1673   */\n      dup6\n        /* \"#utility.yul\":1655:1663   */\n      dup3\n        /* \"#utility.yul\":1644:1653   */\n      dup7\n        /* \"#utility.yul\":1640:1664   */\n      add\n        /* \"#utility.yul\":1622:1674   */\n      tag_202\n      jump\t// in\n    tag_224:\n        /* \"#utility.yul\":1612:1674   */\n      swap2\n      pop\n      pop\n        /* \"#utility.yul\":1137:1680   */\n      swap3\n      pop\n      swap3\n      swap1\n      pop\n      jump\t// out\n        /* \"#utility.yul\":1865:2255   */\n    tag_24:\n        /* \"#utility.yul\":1943:1949   */\n      0x00\n        /* \"#utility.yul\":1951:1957   */\n      dup1\n        /* \"#utility.yul\":2004:2006   */\n      0x40\n        /* \"#utility.yul\":1992:2001   */\n      dup4\n        /* \"#utility.yul\":1983:1990   */\n      dup6\n        /* \"#utility.yul\":1979:2002   */\n      sub\n        /* \"#utility.yul\":1975:2007   */\n      slt\n        /* \"#utility.yul\":1972:2024   */\n      iszero\n      tag_227\n      jumpi\n        /* \"#utility.yul\":2020:2021   */\n      0x00\n        /* \"#utility.yul\":2017:2018   */\n      dup1\n        /* \"#utility.yul\":2010:2022   */\n      revert\n        /* \"#utility.yul\":1972:2024   */\n    tag_227:\n        /* \"#utility.yul\":2060:2069   */\n      dup3\n        /* \"#utility.yul\":2047:2070   */\n      calldataload\n        /* \"#utility.yul\":2093:2111   */\n      0xffffffffffffffff\n        /* \"#utility.yul\":2085:2091   */\n      dup2\n        /* \"#utility.yul\":2082:2112   */\n      gt\n        /* \"#utility.yul\":2079:2129   */\n      iszero\n      tag_228\n      jumpi\n        /* \"#utility.yul\":2125:2126   */\n      0x00\n        /* \"#utility.yul\":2122:2123   */\n      dup1\n        /* \"#utility.yul\":2115:2127   */\n      revert\n        /* \"#utility.yul\":2079:2129   */\n    tag_228:\n        /* \"#utility.yul\":2148:2198   */\n      tag_229\n        /* \"#utility.yul\":2190:2197   */\n      dup6\n        /* \"#utility.yul\":2181:2187   */\n      dup3\n        /* \"#utility.yul\":2170:2179   */\n      dup7\n        /* \"#utility.yul\":2166:2188   */\n      add\n        /* \"#utility.yul\":2148:2198   */\n      tag_202\n      jump\t// in\n    tag_229:\n        /* \"#utility.yul\":2138:2198   */\n      swap6\n        /* \"#utility.yul\":2245:2247   */\n      0x20\n        /* \"#utility.yul\":2230:2248   */\n      swap5\n      swap1\n      swap5\n      add\n        /* \"#utility.yul\":2217:2249   */\n      calldataload\n      swap5\n      pop\n      pop\n      pop\n      pop\n        /* \"#utility.yul\":1865:2255   */\n      jump\t// out\n        /* \"#utility.yul\":2260:2871   */\n    tag_30:\n        /* \"#utility.yul\":2357:2363   */\n      0x00\n        /* \"#utility.yul\":2365:2371   */\n      dup1\n        /* \"#utility.yul\":2373:2379   */\n      0x00\n        /* \"#utility.yul\":2426:2428   */\n      0x60\n        /* \"#utility.yul\":2414:2423   */\n      dup5\n        /* \"#utility.yul\":2405:2412   */\n      dup7\n        /* \"#utility.yul\":2401:2424   */\n      sub\n        /* \"#utility.yul\":2397:2429   */\n      slt\n        /* \"#utility.yul\":2394:2446   */\n      iszero\n      tag_231\n      jumpi\n        /* \"#utility.yul\":2442:2443   */\n      0x00\n        /* \"#utility.yul\":2439:2440   */\n      dup1\n        /* \"#utility.yul\":2432:2444   */\n      revert\n        /* \"#utility.yul\":2394:2446   */\n    tag_231:\n        /* \"#utility.yul\":2482:2491   */\n      dup4\n        /* \"#utility.yul\":2469:2492   */\n      calldataload\n        /* \"#utility.yul\":2511:2529   */\n      0xffffffffffffffff\n        /* \"#utility.yul\":2552:2554   */\n      dup1\n        /* \"#utility.yul\":2544:2550   */\n      dup3\n        /* \"#utility.yul\":2541:2555   */\n      gt\n        /* \"#utility.yul\":2538:2572   */\n      iszero\n      tag_232\n      jumpi\n        /* \"#utility.yul\":2568:2569   */\n      0x00\n        /* \"#utility.yul\":2565:2566   */\n      dup1\n        /* \"#utility.yul\":2558:2570   */\n      revert\n        /* \"#utility.yul\":2538:2572   */\n    tag_232:\n        /* \"#utility.yul\":2591:2641   */\n      tag_233\n        /* \"#utility.yul\":2633:2640   */\n      dup8\n        /* \"#utility.yul\":2624:2630   */\n      dup4\n        /* \"#utility.yul\":2613:2622   */\n      dup9\n        /* \"#utility.yul\":2609:2631   */\n      add\n        /* \"#utility.yul\":2591:2641   */\n      tag_202\n      jump\t// in\n    tag_233:\n        /* \"#utility.yul\":2581:2641   */\n      swap5\n      pop\n        /* \"#utility.yul\":2694:2696   */\n      0x20\n        /* \"#utility.yul\":2683:2692   */\n      dup7\n        /* \"#utility.yul\":2679:2697   */\n      add\n        /* \"#utility.yul\":2666:2698   */\n      calldataload\n        /* \"#utility.yul\":2650:2698   */\n      swap2\n      pop\n        /* \"#utility.yul\":2723:2725   */\n      dup1\n        /* \"#utility.yul\":2713:2721   */\n      dup3\n        /* \"#utility.yul\":2710:2726   */\n      gt\n        /* \"#utility.yul\":2707:2743   */\n      iszero\n      tag_234\n      jumpi\n        /* \"#utility.yul\":2739:2740   */\n      0x00\n        /* \"#utility.yul\":2736:2737   */\n      dup1\n        /* \"#utility.yul\":2729:2741   */\n      revert\n        /* \"#utility.yul\":2707:2743   */\n    tag_234:\n      pop\n        /* \"#utility.yul\":2762:2814   */\n      tag_235\n        /* \"#utility.yul\":2806:2813   */\n      dup7\n        /* \"#utility.yul\":2795:2803   */\n      dup3\n        /* \"#utility.yul\":2784:2793   */\n      dup8\n        /* \"#utility.yul\":2780:2804   */\n      add\n        /* \"#utility.yul\":2762:2814   */\n      tag_202\n      jump\t// in\n    tag_235:\n        /* \"#utility.yul\":2752:2814   */\n      swap3\n      pop\n      pop\n        /* \"#utility.yul\":2861:2863   */\n      0x40\n        /* \"#utility.yul\":2850:2859   */\n      dup5\n        /* \"#utility.yul\":2846:2864   */\n      add\n        /* \"#utility.yul\":2833:2865   */\n      calldataload\n        /* \"#utility.yul\":2823:2865   */\n      swap1\n      pop\n        /* \"#utility.yul\":2260:2871   */\n      swap3\n      pop\n      swap3\n      pop\n      swap3\n      jump\t// out\n        /* \"#utility.yul\":3107:3429   */\n    tag_39:\n        /* \"#utility.yul\":3176:3182   */\n      0x00\n        /* \"#utility.yul\":3229:3231   */\n      0x20\n        /* \"#utility.yul\":3217:3226   */\n      dup3\n        /* \"#utility.yul\":3208:3215   */\n      dup5\n        /* \"#utility.yul\":3204:3227   */\n      sub\n        /* \"#utility.yul\":3200:3232   */\n      slt\n        /* \"#utility.yul\":3197:3249   */\n      iszero\n      tag_238\n      jumpi\n        /* \"#utility.yul\":3245:3246   */\n      0x00\n        /* \"#utility.yul\":3242:3243   */\n      dup1\n        /* \"#utility.yul\":3235:3247   */\n      revert\n        /* \"#utility.yul\":3197:3249   */\n    tag_238:\n        /* \"#utility.yul\":3285:3294   */\n      dup2\n        /* \"#utility.yul\":3272:3295   */\n      calldataload\n        /* \"#utility.yul\":3318:3336   */\n      0xffffffffffffffff\n        /* \"#utility.yul\":3310:3316   */\n      dup2\n        /* \"#utility.yul\":3307:3337   */\n      gt\n        /* \"#utility.yul\":3304:3354   */\n      iszero\n      tag_239\n      jumpi\n        /* \"#utility.yul\":3350:3351   */\n      0x00\n        /* \"#utility.yul\":3347:3348   */\n      dup1\n        /* \"#utility.yul\":3340:3352   */\n      revert\n        /* \"#utility.yul\":3304:3354   */\n    tag_239:\n        /* \"#utility.yul\":3373:3423   */\n      tag_240\n        /* \"#utility.yul\":3415:3422   */\n      dup5\n        /* \"#utility.yul\":3406:3412   */\n      dup3\n        /* \"#utility.yul\":3395:3404   */\n      dup6\n        /* \"#utility.yul\":3391:3413   */\n      add\n        /* \"#utility.yul\":3373:3423   */\n      tag_202\n      jump\t// in\n    tag_240:\n        /* \"#utility.yul\":3363:3423   */\n      swap5\n        /* \"#utility.yul\":3107:3429   */\n      swap4\n      pop\n      pop\n      pop\n      pop\n      jump\t// out\n        /* \"#utility.yul\":3434:3617   */\n    tag_203:\n        /* \"#utility.yul\":3494:3498   */\n      0x00\n        /* \"#utility.yul\":3527:3545   */\n      0xffffffffffffffff\n        /* \"#utility.yul\":3519:3525   */\n      dup3\n        /* \"#utility.yul\":3516:3546   */\n      gt\n        /* \"#utility.yul\":3513:3569   */\n      iszero\n      tag_243\n      jumpi\n        /* \"#utility.yul\":3549:3567   */\n      tag_243\n      tag_200\n      jump\t// in\n    tag_243:\n      pop\n        /* \"#utility.yul\":3594:3595   */\n      0x05\n        /* \"#utility.yul\":3590:3604   */\n      shl\n        /* \"#utility.yul\":3606:3610   */\n      0x20\n        /* \"#utility.yul\":3586:3611   */\n      add\n      swap1\n        /* \"#utility.yul\":3434:3617   */\n      jump\t// out\n        /* \"#utility.yul\":3622:3818   */\n    tag_204:\n        /* \"#utility.yul\":3690:3710   */\n      dup1\n      calldataload\n        /* \"#utility.yul\":3750:3792   */\n      0xffffffffffffffffffffffffffffffffffffffff\n        /* \"#utility.yul\":3739:3793   */\n      dup2\n      and\n        /* \"#utility.yul\":3729:3794   */\n      dup2\n      eq\n        /* \"#utility.yul\":3719:3812   */\n      tag_245\n      jumpi\n        /* \"#utility.yul\":3808:3809   */\n      0x00\n        /* \"#utility.yul\":3805:3806   */\n      dup1\n        /* \"#utility.yul\":3798:3810   */\n      revert\n        /* \"#utility.yul\":3719:3812   */\n    tag_245:\n        /* \"#utility.yul\":3622:3818   */\n      swap2\n      swap1\n      pop\n      jump\t// out\n        /* \"#utility.yul\":3823:4711   */\n    tag_205:\n        /* \"#utility.yul\":3876:3881   */\n      0x00\n        /* \"#utility.yul\":3929:3932   */\n      dup3\n        /* \"#utility.yul\":3922:3926   */\n      0x1f\n        /* \"#utility.yul\":3914:3920   */\n      dup4\n        /* \"#utility.yul\":3910:3927   */\n      add\n        /* \"#utility.yul\":3906:3933   */\n      slt\n        /* \"#utility.yul\":3896:3951   */\n      tag_247\n      jumpi\n        /* \"#utility.yul\":3947:3948   */\n      0x00\n        /* \"#utility.yul\":3944:3945   */\n      dup1\n        /* \"#utility.yul\":3937:3949   */\n      revert\n        /* \"#utility.yul\":3896:3951   */\n    tag_247:\n        /* \"#utility.yul\":3983:3989   */\n      dup2\n        /* \"#utility.yul\":3970:3990   */\n      calldataload\n        /* \"#utility.yul\":4009:4013   */\n      0x20\n        /* \"#utility.yul\":4033:4093   */\n      tag_248\n        /* \"#utility.yul\":4049:4092   */\n      tag_249\n        /* \"#utility.yul\":4089:4091   */\n      dup4\n        /* \"#utility.yul\":4049:4092   */\n      tag_203\n      jump\t// in\n    tag_249:\n        /* \"#utility.yul\":4033:4093   */\n      tag_201\n      jump\t// in\n    tag_248:\n        /* \"#utility.yul\":4127:4142   */\n      dup3\n      dup2\n      mstore\n        /* \"#utility.yul\":4213:4214   */\n      0x05\n        /* \"#utility.yul\":4209:4219   */\n      swap3\n      swap1\n      swap3\n      shl\n        /* \"#utility.yul\":4197:4220   */\n      dup5\n      add\n        /* \"#utility.yul\":4193:4225   */\n      dup2\n      add\n      swap2\n        /* \"#utility.yul\":4158:4170   */\n      dup2\n      dup2\n      add\n      swap1\n        /* \"#utility.yul\":4237:4252   */\n      dup7\n      dup5\n      gt\n        /* \"#utility.yul\":4234:4269   */\n      iszero\n      tag_250\n      jumpi\n        /* \"#utility.yul\":4265:4266   */\n      0x00\n        /* \"#utility.yul\":4262:4263   */\n      dup1\n        /* \"#utility.yul\":4255:4267   */\n      revert\n        /* \"#utility.yul\":4234:4269   */\n    tag_250:\n        /* \"#utility.yul\":4301:4303   */\n      dup3\n        /* \"#utility.yul\":4293:4299   */\n      dup7\n        /* \"#utility.yul\":4289:4304   */\n      add\n        /* \"#utility.yul\":4313:4682   */\n    tag_251:\n        /* \"#utility.yul\":4329:4335   */\n      dup5\n        /* \"#utility.yul\":4324:4327   */\n      dup2\n        /* \"#utility.yul\":4321:4336   */\n      lt\n        /* \"#utility.yul\":4313:4682   */\n      iszero\n      tag_253\n      jumpi\n        /* \"#utility.yul\":4415:4418   */\n      dup1\n        /* \"#utility.yul\":4402:4419   */\n      calldataload\n        /* \"#utility.yul\":4451:4469   */\n      0xffffffffffffffff\n        /* \"#utility.yul\":4438:4449   */\n      dup2\n        /* \"#utility.yul\":4435:4470   */\n      gt\n        /* \"#utility.yul\":4432:4557   */\n      iszero\n      tag_254\n      jumpi\n        /* \"#utility.yul\":4511:4512   */\n      0x00\n        /* \"#utility.yul\":4540:4542   */\n      dup1\n        /* \"#utility.yul\":4536:4538   */\n      dup2\n        /* \"#utility.yul\":4529:4543   */\n      revert\n        /* \"#utility.yul\":4432:4557   */\n    tag_254:\n        /* \"#utility.yul\":4582:4639   */\n      tag_255\n        /* \"#utility.yul\":4635:4638   */\n      dup10\n        /* \"#utility.yul\":4630:4632   */\n      dup7\n        /* \"#utility.yul\":4616:4627   */\n      dup4\n        /* \"#utility.yul\":4608:4614   */\n      dup12\n        /* \"#utility.yul\":4604:4628   */\n      add\n        /* \"#utility.yul\":4600:4633   */\n      add\n        /* \"#utility.yul\":4582:4639   */\n      tag_202\n      jump\t// in\n    tag_255:\n        /* \"#utility.yul\":4570:4640   */\n      dup5\n      mstore\n      pop\n        /* \"#utility.yul\":4660:4672   */\n      swap2\n      dup4\n      add\n      swap2\n        /* \"#utility.yul\":4346:4358   */\n      dup4\n      add\n        /* \"#utility.yul\":4313:4682   */\n      jump(tag_251)\n    tag_253:\n      pop\n        /* \"#utility.yul\":4700:4705   */\n      swap7\n        /* \"#utility.yul\":3823:4711   */\n      swap6\n      pop\n      pop\n      pop\n      pop\n      pop\n      pop\n      jump\t// out\n        /* \"#utility.yul\":4716:5871   */\n    tag_47:\n        /* \"#utility.yul\":4844:4850   */\n      0x00\n        /* \"#utility.yul\":4852:4858   */\n      dup1\n        /* \"#utility.yul\":4905:4907   */\n      0x40\n        /* \"#utility.yul\":4893:4902   */\n      dup4\n        /* \"#utility.yul\":4884:4891   */\n      dup6\n        /* \"#utility.yul\":4880:4903   */\n      sub\n        /* \"#utility.yul\":4876:4908   */\n      slt\n        /* \"#utility.yul\":4873:4925   */\n      iszero\n      tag_257\n      jumpi\n        /* \"#utility.yul\":4921:4922   */\n      0x00\n        /* \"#utility.yul\":4918:4919   */\n      dup1\n        /* \"#utility.yul\":4911:4923   */\n      revert\n        /* \"#utility.yul\":4873:4925   */\n    tag_257:\n        /* \"#utility.yul\":4961:4970   */\n      dup3\n        /* \"#utility.yul\":4948:4971   */\n      calldataload\n        /* \"#utility.yul\":4990:5008   */\n      0xffffffffffffffff\n        /* \"#utility.yul\":5031:5033   */\n      dup1\n        /* \"#utility.yul\":5023:5029   */\n      dup3\n        /* \"#utility.yul\":5020:5034   */\n      gt\n        /* \"#utility.yul\":5017:5051   */\n      iszero\n      tag_258\n      jumpi\n        /* \"#utility.yul\":5047:5048   */\n      0x00\n        /* \"#utility.yul\":5044:5045   */\n      dup1\n        /* \"#utility.yul\":5037:5049   */\n      revert\n        /* \"#utility.yul\":5017:5051   */\n    tag_258:\n        /* \"#utility.yul\":5085:5091   */\n      dup2\n        /* \"#utility.yul\":5074:5083   */\n      dup6\n        /* \"#utility.yul\":5070:5092   */\n      add\n        /* \"#utility.yul\":5060:5092   */\n      swap2\n      pop\n        /* \"#utility.yul\":5130:5137   */\n      dup6\n        /* \"#utility.yul\":5123:5127   */\n      0x1f\n        /* \"#utility.yul\":5119:5121   */\n      dup4\n        /* \"#utility.yul\":5115:5128   */\n      add\n        /* \"#utility.yul\":5111:5138   */\n      slt\n        /* \"#utility.yul\":5101:5156   */\n      tag_259\n      jumpi\n        /* \"#utility.yul\":5152:5153   */\n      0x00\n        /* \"#utility.yul\":5149:5150   */\n      dup1\n        /* \"#utility.yul\":5142:5154   */\n      revert\n        /* \"#utility.yul\":5101:5156   */\n    tag_259:\n        /* \"#utility.yul\":5188:5190   */\n      dup2\n        /* \"#utility.yul\":5175:5191   */\n      calldataload\n        /* \"#utility.yul\":5210:5214   */\n      0x20\n        /* \"#utility.yul\":5234:5294   */\n      tag_260\n        /* \"#utility.yul\":5250:5293   */\n      tag_249\n        /* \"#utility.yul\":5290:5292   */\n      dup4\n        /* \"#utility.yul\":5250:5293   */\n      tag_203\n      jump\t// in\n        /* \"#utility.yul\":5234:5294   */\n    tag_260:\n        /* \"#utility.yul\":5328:5343   */\n      dup3\n      dup2\n      mstore\n        /* \"#utility.yul\":5410:5411   */\n      0x05\n        /* \"#utility.yul\":5406:5416   */\n      swap3\n      swap1\n      swap3\n      shl\n        /* \"#utility.yul\":5398:5417   */\n      dup5\n      add\n        /* \"#utility.yul\":5394:5422   */\n      dup2\n      add\n      swap2\n        /* \"#utility.yul\":5359:5371   */\n      dup2\n      dup2\n      add\n      swap1\n        /* \"#utility.yul\":5434:5453   */\n      dup10\n      dup5\n      gt\n        /* \"#utility.yul\":5431:5470   */\n      iszero\n      tag_262\n      jumpi\n        /* \"#utility.yul\":5466:5467   */\n      0x00\n        /* \"#utility.yul\":5463:5464   */\n      dup1\n        /* \"#utility.yul\":5456:5468   */\n      revert\n        /* \"#utility.yul\":5431:5470   */\n    tag_262:\n        /* \"#utility.yul\":5490:5501   */\n      swap5\n      dup3\n      add\n      swap5\n        /* \"#utility.yul\":5510:5658   */\n    tag_263:\n        /* \"#utility.yul\":5526:5532   */\n      dup4\n        /* \"#utility.yul\":5521:5524   */\n      dup7\n        /* \"#utility.yul\":5518:5533   */\n      lt\n        /* \"#utility.yul\":5510:5658   */\n      iszero\n      tag_265\n      jumpi\n        /* \"#utility.yul\":5592:5615   */\n      tag_266\n        /* \"#utility.yul\":5611:5614   */\n      dup7\n        /* \"#utility.yul\":5592:5615   */\n      tag_204\n      jump\t// in\n    tag_266:\n        /* \"#utility.yul\":5580:5616   */\n      dup3\n      mstore\n        /* \"#utility.yul\":5543:5555   */\n      swap5\n      dup3\n      add\n      swap5\n        /* \"#utility.yul\":5636:5648   */\n      swap1\n      dup3\n      add\n      swap1\n        /* \"#utility.yul\":5510:5658   */\n      jump(tag_263)\n    tag_265:\n        /* \"#utility.yul\":5677:5682   */\n      swap7\n      pop\n      pop\n        /* \"#utility.yul\":5720:5738   */\n      dup7\n      add\n        /* \"#utility.yul\":5707:5739   */\n      calldataload\n      swap3\n      pop\n      pop\n        /* \"#utility.yul\":5751:5767   */\n      dup1\n      dup3\n      gt\n        /* \"#utility.yul\":5748:5784   */\n      iszero\n      tag_267\n      jumpi\n        /* \"#utility.yul\":5780:5781   */\n      0x00\n        /* \"#utility.yul\":5777:5778   */\n      dup1\n        /* \"#utility.yul\":5770:5782   */\n      revert\n        /* \"#utility.yul\":5748:5784   */\n    tag_267:\n      pop\n        /* \"#utility.yul\":5803:5865   */\n      tag_224\n        /* \"#utility.yul\":5857:5864   */\n      dup6\n        /* \"#utility.yul\":5846:5854   */\n      dup3\n        /* \"#utility.yul\":5835:5844   */\n      dup7\n        /* \"#utility.yul\":5831:5855   */\n      add\n        /* \"#utility.yul\":5803:5865   */\n      tag_205\n      jump\t// in\n        /* \"#utility.yul\":5876:6272   */\n    tag_51:\n        /* \"#utility.yul\":5954:5960   */\n      0x00\n        /* \"#utility.yul\":5962:5968   */\n      dup1\n        /* \"#utility.yul\":6015:6017   */\n      0x40\n        /* \"#utility.yul\":6003:6012   */\n      dup4\n        /* \"#utility.yul\":5994:6001   */\n      dup6\n        /* \"#utility.yul\":5990:6013   */\n      sub\n        /* \"#utility.yul\":5986:6018   */\n      slt\n        /* \"#utility.yul\":5983:6035   */\n      iszero\n      tag_270\n      jumpi\n        /* \"#utility.yul\":6031:6032   */\n      0x00\n        /* \"#utility.yul\":6028:6029   */\n      dup1\n        /* \"#utility.yul\":6021:6033   */\n      revert\n        /* \"#utility.yul\":5983:6035   */\n    tag_270:\n        /* \"#utility.yul\":6054:6083   */\n      tag_271\n        /* \"#utility.yul\":6073:6082   */\n      dup4\n        /* \"#utility.yul\":6054:6083   */\n      tag_204\n      jump\t// in\n    tag_271:\n        /* \"#utility.yul\":6044:6083   */\n      swap2\n      pop\n        /* \"#utility.yul\":6134:6136   */\n      0x20\n        /* \"#utility.yul\":6123:6132   */\n      dup4\n        /* \"#utility.yul\":6119:6137   */\n      add\n        /* \"#utility.yul\":6106:6138   */\n      calldataload\n        /* \"#utility.yul\":6161:6179   */\n      0xffffffffffffffff\n        /* \"#utility.yul\":6153:6159   */\n      dup2\n        /* \"#utility.yul\":6150:6180   */\n      gt\n        /* \"#utility.yul\":6147:6197   */\n      iszero\n      tag_272\n      jumpi\n        /* \"#utility.yul\":6193:6194   */\n      0x00\n        /* \"#utility.yul\":6190:6191   */\n      dup1\n        /* \"#utility.yul\":6183:6195   */\n      revert\n        /* \"#utility.yul\":6147:6197   */\n    tag_272:\n        /* \"#utility.yul\":6216:6266   */\n      tag_224\n        /* \"#utility.yul\":6258:6265   */\n      dup6\n        /* \"#utility.yul\":6249:6255   */\n      dup3\n        /* \"#utility.yul\":6238:6247   */\n      dup7\n        /* \"#utility.yul\":6234:6256   */\n      add\n        /* \"#utility.yul\":6216:6266   */\n      tag_202\n      jump\t// in\n        /* \"#utility.yul\":6277:6463   */\n    tag_55:\n        /* \"#utility.yul\":6336:6342   */\n      0x00\n        /* \"#utility.yul\":6389:6391   */\n      0x20\n        /* \"#utility.yul\":6377:6386   */\n      dup3\n        /* \"#utility.yul\":6368:6375   */\n      dup5\n        /* \"#utility.yul\":6364:6387   */\n      sub\n        /* \"#utility.yul\":6360:6392   */\n      slt\n        /* \"#utility.yul\":6357:6409   */\n      iszero\n      tag_275\n      jumpi\n        /* \"#utility.yul\":6405:6406   */\n      0x00\n        /* \"#utility.yul\":6402:6403   */\n      dup1\n        /* \"#utility.yul\":6395:6407   */\n      revert\n        /* \"#utility.yul\":6357:6409   */\n    tag_275:\n        /* \"#utility.yul\":6428:6457   */\n      tag_81\n        /* \"#utility.yul\":6447:6456   */\n      dup3\n        /* \"#utility.yul\":6428:6457   */\n      tag_204\n      jump\t// in\n        /* \"#utility.yul\":6468:6718   */\n    tag_206:\n        /* \"#utility.yul\":6553:6554   */\n      0x00\n        /* \"#utility.yul\":6563:6676   */\n    tag_278:\n        /* \"#utility.yul\":6577:6583   */\n      dup4\n        /* \"#utility.yul\":6574:6575   */\n      dup2\n        /* \"#utility.yul\":6571:6584   */\n      lt\n        /* \"#utility.yul\":6563:6676   */\n      iszero\n      tag_280\n      jumpi\n        /* \"#utility.yul\":6653:6664   */\n      dup2\n      dup2\n      add\n        /* \"#utility.yul\":6647:6665   */\n      mload\n        /* \"#utility.yul\":6634:6645   */\n      dup4\n      dup3\n      add\n        /* \"#utility.yul\":6627:6666   */\n      mstore\n        /* \"#utility.yul\":6599:6601   */\n      0x20\n        /* \"#utility.yul\":6592:6602   */\n      add\n        /* \"#utility.yul\":6563:6676   */\n      jump(tag_278)\n    tag_280:\n      pop\n      pop\n        /* \"#utility.yul\":6710:6711   */\n      0x00\n        /* \"#utility.yul\":6692:6708   */\n      swap2\n      add\n        /* \"#utility.yul\":6685:6712   */\n      mstore\n        /* \"#utility.yul\":6468:6718   */\n      jump\t// out\n        /* \"#utility.yul\":6723:7352   */\n    tag_59:\n        /* \"#utility.yul\":6992:6995   */\n      0x00\n        /* \"#utility.yul\":7030:7036   */\n      dup4\n        /* \"#utility.yul\":7024:7037   */\n      mload\n        /* \"#utility.yul\":7046:7112   */\n      tag_282\n        /* \"#utility.yul\":7105:7111   */\n      dup2\n        /* \"#utility.yul\":7100:7103   */\n      dup5\n        /* \"#utility.yul\":7093:7097   */\n      0x20\n        /* \"#utility.yul\":7085:7091   */\n      dup9\n        /* \"#utility.yul\":7081:7098   */\n      add\n        /* \"#utility.yul\":7046:7112   */\n      tag_206\n      jump\t// in\n    tag_282:\n        /* \"#utility.yul\":7173:7176   */\n      0x5f00000000000000000000000000000000000000000000000000000000000000\n        /* \"#utility.yul\":7134:7150   */\n      swap1\n      dup4\n      add\n        /* \"#utility.yul\":7159:7177   */\n      swap1\n      dup2\n      mstore\n        /* \"#utility.yul\":7202:7215   */\n      dup4\n      mload\n        /* \"#utility.yul\":7224:7302   */\n      tag_283\n        /* \"#utility.yul\":7202:7215   */\n      dup2\n        /* \"#utility.yul\":7289:7290   */\n      0x01\n        /* \"#utility.yul\":7278:7291   */\n      dup5\n      add\n        /* \"#utility.yul\":7271:7275   */\n      0x20\n        /* \"#utility.yul\":7259:7276   */\n      dup9\n      add\n        /* \"#utility.yul\":7224:7302   */\n      tag_206\n      jump\t// in\n    tag_283:\n        /* \"#utility.yul\":7322:7342   */\n      add\n        /* \"#utility.yul\":7344:7345   */\n      0x01\n        /* \"#utility.yul\":7318:7346   */\n      add\n      swap5\n        /* \"#utility.yul\":6723:7352   */\n      swap4\n      pop\n      pop\n      pop\n      pop\n      jump\t// out\n        /* \"#utility.yul\":7357:7812   */\n    tag_61:\n        /* \"#utility.yul\":7506:7508   */\n      0x20\n        /* \"#utility.yul\":7495:7504   */\n      dup2\n        /* \"#utility.yul\":7488:7509   */\n      mstore\n        /* \"#utility.yul\":7469:7473   */\n      0x00\n        /* \"#utility.yul\":7538:7544   */\n      dup3\n        /* \"#utility.yul\":7532:7545   */\n      mload\n        /* \"#utility.yul\":7581:7587   */\n      dup1\n        /* \"#utility.yul\":7576:7578   */\n      0x20\n        /* \"#utility.yul\":7565:7574   */\n      dup5\n        /* \"#utility.yul\":7561:7579   */\n      add\n        /* \"#utility.yul\":7554:7588   */\n      mstore\n        /* \"#utility.yul\":7597:7676   */\n      tag_285\n        /* \"#utility.yul\":7669:7675   */\n      dup2\n        /* \"#utility.yul\":7664:7666   */\n      0x40\n        /* \"#utility.yul\":7653:7662   */\n      dup6\n        /* \"#utility.yul\":7649:7667   */\n      add\n        /* \"#utility.yul\":7644:7646   */\n      0x20\n        /* \"#utility.yul\":7636:7642   */\n      dup8\n        /* \"#utility.yul\":7632:7647   */\n      add\n        /* \"#utility.yul\":7597:7676   */\n      tag_206\n      jump\t// in\n    tag_285:\n        /* \"#utility.yul\":7728:7730   */\n      0x1f\n        /* \"#utility.yul\":7716:7731   */\n      add\n        /* \"#utility.yul\":7733:7799   */\n      0xffffffffffffffffffffffffffffffffffffffffffffffffffffffffffffffe0\n        /* \"#utility.yul\":7712:7800   */\n      and\n        /* \"#utility.yul\":7697:7801   */\n      swap2\n      swap1\n      swap2\n      add\n        /* \"#utility.yul\":7803:7805   */\n      0x40\n        /* \"#utility.yul\":7693:7806   */\n      add\n      swap3\n        /* \"#utility.yul\":7357:7812   */\n      swap2\n      pop\n      pop\n      jump\t// out\n        /* \"#utility.yul\":7817:8061   */\n    tag_65:\n        /* \"#utility.yul\":7895:7901   */\n      0x00\n        /* \"#utility.yul\":7903:7909   */\n      dup1\n        /* \"#utility.yul\":7956:7958   */\n      0x40\n        /* \"#utility.yul\":7944:7953   */\n      dup4\n        /* \"#utility.yul\":7935:7942   */\n      dup6\n        /* \"#utility.yul\":7931:7954   */\n      sub\n        /* \"#utility.yul\":7927:7959   */\n      slt\n        /* \"#utility.yul\":7924:7976   */\n      iszero\n      tag_287\n      jumpi\n        /* \"#utility.yul\":7972:7973   */\n      0x00\n        /* \"#utility.yul\":7969:7970   */\n      dup1\n        /* \"#utility.yul\":7962:7974   */\n      revert\n        /* \"#utility.yul\":7924:7976   */\n    tag_287:\n      pop\n      pop\n        /* \"#utility.yul\":7995:8011   */\n      dup1\n      mload\n        /* \"#utility.yul\":8051:8053   */\n      0x20\n        /* \"#utility.yul\":8036:8054   */\n      swap1\n      swap2\n      add\n        /* \"#utility.yul\":8030:8055   */\n      mload\n        /* \"#utility.yul\":7995:8011   */\n      swap1\n      swap3\n        /* \"#utility.yul\":8030:8055   */\n      swap1\n      swap2\n      pop\n        /* \"#utility.yul\":7817:8061   */\n      jump\t// out\n        /* \"#utility.yul\":8066:8355   */\n    tag_68:\n        /* \"#utility.yul\":8197:8200   */\n      0x00\n        /* \"#utility.yul\":8235:8241   */\n      dup3\n        /* \"#utility.yul\":8229:8242   */\n      mload\n        /* \"#utility.yul\":8251:8317   */\n      tag_289\n        /* \"#utility.yul\":8310:8316   */\n      dup2\n        /* \"#utility.yul\":8305:8308   */\n      dup5\n        /* \"#utility.yul\":8298:8302   */\n      0x20\n        /* \"#utility.yul\":8290:8296   */\n      dup8\n        /* \"#utility.yul\":8286:8303   */\n      add\n        /* \"#utility.yul\":8251:8317   */\n      tag_206\n      jump\t// in\n    tag_289:\n        /* \"#utility.yul\":8333:8349   */\n      swap2\n      swap1\n      swap2\n      add\n      swap3\n        /* \"#utility.yul\":8066:8355   */\n      swap2\n      pop\n      pop\n      jump\t// out\n        /* \"#utility.yul\":8977:9161   */\n    tag_207:\n        /* \"#utility.yul\":9029:9106   */\n      0x4e487b7100000000000000000000000000000000000000000000000000000000\n        /* \"#utility.yul\":9026:9027   */\n      0x00\n        /* \"#utility.yul\":9019:9107   */\n      mstore\n        /* \"#utility.yul\":9126:9130   */\n      0x11\n        /* \"#utility.yul\":9123:9124   */\n      0x04\n        /* \"#utility.yul\":9116:9131   */\n      mstore\n        /* \"#utility.yul\":9150:9154   */\n      0x24\n        /* \"#utility.yul\":9147:9148   */\n      0x00\n        /* \"#utility.yul\":9140:9155   */\n      revert\n        /* \"#utility.yul\":9166:9628   */\n    tag_88:\n        /* \"#utility.yul\":9205:9206   */\n      0x00\n        /* \"#utility.yul\":9231:9232   */\n      dup3\n        /* \"#utility.yul\":9221:9410   */\n      tag_294\n      jumpi\n        /* \"#utility.yul\":9266:9343   */\n      0x4e487b7100000000000000000000000000000000000000000000000000000000\n        /* \"#utility.yul\":9263:9264   */\n      0x00\n        /* \"#utility.yul\":9256:9344   */\n      mstore\n        /* \"#utility.yul\":9367:9371   */\n      0x12\n        /* \"#utility.yul\":9364:9365   */\n      0x04\n        /* \"#utility.yul\":9357:9372   */\n      mstore\n        /* \"#utility.yul\":9395:9399   */\n      0x24\n        /* \"#utility.yul\":9392:9393   */\n      0x00\n        /* \"#utility.yul\":9385:9400   */\n      revert\n        /* \"#utility.yul\":9221:9410   */\n    tag_294:\n        /* \"#utility.yul\":9507:9573   */\n      0xffffffffffffffffffffffffffffffffffffffffffffffffffffffffffffffff\n        /* \"#utility.yul\":9504:9505   */\n      dup4\n        /* \"#utility.yul\":9501:9574   */\n      eq\n        /* \"#utility.yul\":9432:9498   */\n      0x8000000000000000000000000000000000000000000000000000000000000000\n        /* \"#utility.yul\":9429:9430   */\n      dup4\n        /* \"#utility.yul\":9426:9499   */\n      eq\n        /* \"#utility.yul\":9422:9575   */\n      and\n        /* \"#utility.yul\":9419:9598   */\n      iszero\n      tag_296\n      jumpi\n        /* \"#utility.yul\":9578:9596   */\n      tag_296\n      tag_207\n      jump\t// in\n    tag_296:\n      pop\n        /* \"#utility.yul\":9612:9622   */\n      sdiv\n      swap1\n        /* \"#utility.yul\":9166:9628   */\n      jump\t// out\n        /* \"#utility.yul\":9633:9925   */\n    tag_90:\n        /* \"#utility.yul\":9705:9714   */\n      dup1\n      dup3\n      mul\n        /* \"#utility.yul\":9672:9679   */\n      0x00\n        /* \"#utility.yul\":9730:9739   */\n      dup3\n      slt\n        /* \"#utility.yul\":9747:9813   */\n      0x8000000000000000000000000000000000000000000000000000000000000000\n        /* \"#utility.yul\":9741:9814   */\n      dup5\n      eq\n        /* \"#utility.yul\":9726:9815   */\n      and\n        /* \"#utility.yul\":9723:9838   */\n      iszero\n      tag_299\n      jumpi\n        /* \"#utility.yul\":9818:9836   */\n      tag_299\n      tag_207\n      jump\t// in\n    tag_299:\n        /* \"#utility.yul\":9891:9892   */\n      dup2\n        /* \"#utility.yul\":9882:9889   */\n      dup2\n        /* \"#utility.yul\":9877:9893   */\n      sdiv\n        /* \"#utility.yul\":9874:9875   */\n      dup4\n        /* \"#utility.yul\":9871:9894   */\n      eq\n        /* \"#utility.yul\":9867:9868   */\n      dup3\n        /* \"#utility.yul\":9860:9869   */\n      iszero\n        /* \"#utility.yul\":9857:9895   */\n      or\n        /* \"#utility.yul\":9847:9919   */\n      tag_57\n      jumpi\n        /* \"#utility.yul\":9899:9917   */\n      tag_57\n      tag_207\n      jump\t// in\n        /* \"#utility.yul\":10977:11161   */\n    tag_137:\n        /* \"#utility.yul\":11029:11106   */\n      0x4e487b7100000000000000000000000000000000000000000000000000000000\n        /* \"#utility.yul\":11026:11027   */\n      0x00\n        /* \"#utility.yul\":11019:11107   */\n      mstore\n        /* \"#utility.yul\":11126:11130   */\n      0x32\n        /* \"#utility.yul\":11123:11124   */\n      0x04\n        /* \"#utility.yul\":11116:11131   */\n      mstore\n        /* \"#utility.yul\":11150:11154   */\n      0x24\n        /* \"#utility.yul\":11147:11148   */\n      0x00\n        /* \"#utility.yul\":11140:11155   */\n      revert\n        /* \"#utility.yul\":11166:11361   */\n    tag_142:\n        /* \"#utility.yul\":11205:11208   */\n      0x00\n        /* \"#utility.yul\":11236:11302   */\n      0xffffffffffffffffffffffffffffffffffffffffffffffffffffffffffffffff\n        /* \"#utility.yul\":11229:11234   */\n      dup3\n        /* \"#utility.yul\":11226:11303   */\n      sub\n        /* \"#utility.yul\":11223:11326   */\n      tag_308\n      jumpi\n        /* \"#utility.yul\":11306:11324   */\n      tag_308\n      tag_207\n      jump\t// in\n    tag_308:\n      pop\n        /* \"#utility.yul\":11353:11354   */\n      0x01\n        /* \"#utility.yul\":11342:11355   */\n      add\n      swap1\n        /* \"#utility.yul\":11166:11361   */\n      jump\t// out\n        /* \"#utility.yul\":12134:12318   */\n    tag_171:\n        /* \"#utility.yul\":12204:12210   */\n      0x00\n        /* \"#utility.yul\":12257:12259   */\n      0x20\n        /* \"#utility.yul\":12245:12254   */\n      dup3\n        /* \"#utility.yul\":12236:12243   */\n      dup5\n        /* \"#utility.yul\":12232:12255   */\n      sub\n        /* \"#utility.yul\":12228:12260   */\n      slt\n        /* \"#utility.yul\":12225:12277   */\n      iszero\n      tag_312\n      jumpi\n        /* \"#utility.yul\":12273:12274   */\n      0x00\n        /* \"#utility.yul\":12270:12271   */\n      dup1\n        /* \"#utility.yul\":12263:12275   */\n      revert\n        /* \"#utility.yul\":12225:12277   */\n    tag_312:\n      pop\n        /* \"#utility.yul\":12296:12312   */\n      mload\n      swap2\n        /* \"#utility.yul\":12134:12318   */\n      swap1\n      pop\n      jump\t// out\n        /* \"#utility.yul\":13681:13958   */\n    tag_196:\n        /* \"#utility.yul\":13748:13754   */\n      0x00\n        /* \"#utility.yul\":13801:13803   */\n      0x20\n        /* \"#utility.yul\":13789:13798   */\n      dup3\n        /* \"#utility.yul\":13780:13787   */\n      dup5\n        /* \"#utility.yul\":13776:13799   */\n      sub\n        /* \"#utility.yul\":13772:13804   */\n      slt\n        /* \"#utility.yul\":13769:13821   */\n      iszero\n      tag_319\n      jumpi\n        /* \"#utility.yul\":13817:13818   */\n      0x00\n        /* \"#utility.yul\":13814:13815   */\n      dup1\n        /* \"#utility.yul\":13807:13819   */\n      revert\n        /* \"#utility.yul\":13769:13821   */\n    tag_319:\n        /* \"#utility.yul\":13849:13858   */\n      dup2\n        /* \"#utility.yul\":13843:13859   */\n      mload\n        /* \"#utility.yul\":13902:13907   */\n      dup1\n        /* \"#utility.yul\":13895:13908   */\n      iszero\n        /* \"#utility.yul\":13888:13909   */\n      iszero\n        /* \"#utility.yul\":13881:13886   */\n      dup2\n        /* \"#utility.yul\":13878:13910   */\n      eq\n        /* \"#utility.yul\":13868:13928   */\n      tag_81\n      jumpi\n        /* \"#utility.yul\":13924:13925   */\n      0x00\n        /* \"#utility.yul\":13921:13922   */\n      dup1\n        /* \"#utility.yul\":13914:13926   */\n      revert\n\n    auxdata: 0xa26469706673582212205048726c77d152c3d08237dd78796a78f131ea407b7d6a8f500c4d6850918c0064736f6c63430008110033\n}\n",
				"bytecode": {
					"linkReferences": {},
					"object": "608060405234801561001057600080fd5b506040516117af3803806117af83398101604081905261002f916100ad565b6100383361005d565b600180546001600160a01b0319166001600160a01b03929092169190911790556100dd565b600080546001600160a01b038381166001600160a01b0319831681178455604051919092169283917f8be0079c531659141344cd1fd0a4f28419497f9722a3daafe3b4186f6b6457e09190a35050565b6000602082840312156100bf57600080fd5b81516001600160a01b03811681146100d657600080fd5b9392505050565b6116c3806100ec6000396000f3fe608060405234801561001057600080fd5b50600436106100be5760003560e01c8063935b13f611610076578063d7eb64f71161005b578063d7eb64f7146101ac578063e07a8665146101bf578063f2fde38b146101d257600080fd5b8063935b13f614610158578063a451f6021461019957600080fd5b8063715018a6116100a7578063715018a6146100fe57806380770b05146101065780638da5cb5b1461011957600080fd5b80633161a93a146100c3578063433ff288146100e9575b600080fd5b6100d66100d136600461108f565b6101e5565b6040519081526020015b60405180910390f35b6100fc6100f73660046110f3565b6102cf565b005b6100fc6103ce565b6100d6610114366004611138565b6103e2565b60005473ffffffffffffffffffffffffffffffffffffffff165b60405173ffffffffffffffffffffffffffffffffffffffff90911681526020016100e0565b6101336101663660046111a5565b805160208183018101805160028252928201919093012091525473ffffffffffffffffffffffffffffffffffffffff1681565b6100fc6101a7366004611138565b61061a565b6100fc6101ba3660046112bf565b61089a565b6100fc6101cd366004611375565b6109c7565b6100fc6101e03660046113b9565b610a38565b60008083836040516020016101fb9291906113f8565b604080517fffffffffffffffffffffffffffffffffffffffffffffffffffffffffffffffe0818403018152908290526001547fabc4544e00000000000000000000000000000000000000000000000000000000835290925060009173ffffffffffffffffffffffffffffffffffffffff9091169063abc4544e90610283908590600401611450565b6040805180830381865afa15801561029f573d6000803e3d6000fd5b505050506040513d601f19601f820116820180604052508101906102c391906114a1565b50925050505b92915050565b600073ffffffffffffffffffffffffffffffffffffffff166002836040516102f791906114c5565b9081526040519081900360200190205473ffffffffffffffffffffffffffffffffffffffff1603610389576040517f08c379a000000000000000000000000000000000000000000000000000000000815260206004820152601d60248201527f546f6b656e73206e6f7420617661696c61626c6520666f72207377617000000060448201526064015b60405180910390fd5b6103ca60028360405161039c91906114c5565b9081526040519081900360200190205473ffffffffffffffffffffffffffffffffffffffff16333084610aef565b5050565b6103d6610b11565b6103e06000610b92565b565b6040517f75736474000000000000000000000000000000000000000000000000000000006020820152600090602401604051602081830303815290604052805190602001208460405160200161043891906114c5565b60405160208183030381529060405280519060200120036104ab57600061045f84866101e5565b9050600061047582670de0b6b3a7640000611510565b61047f908561159f565b9050670de0b6b3a7640000610498826305f5e10061159f565b6104a29190611510565b92505050610613565b826040516020016104bc91906114c5565b60405160208183030381529060405280519060200120604051602001610505907f7573647400000000000000000000000000000000000000000000000000000000815260040190565b604051602081830303815290604052805190602001200361054a57600061052c85856101e5565b9050600061053a828561159f565b90506104a26305f5e10082611510565b600061058b856040518060400160405280600481526020017f75736474000000000000000000000000000000000000000000000000000000008152506101e5565b905060006105ce856040518060400160405280600481526020017f75736474000000000000000000000000000000000000000000000000000000008152506101e5565b90506000816105e584670de0b6b3a764000061159f565b6105ef9190611510565b6105f9908661159f565b905061060d670de0b6b3a764000082611510565b93505050505b9392505050565b600073ffffffffffffffffffffffffffffffffffffffff1660028460405161064291906114c5565b9081526040519081900360200190205473ffffffffffffffffffffffffffffffffffffffff16148015906106c25750600073ffffffffffffffffffffffffffffffffffffffff1660028360405161069991906114c5565b9081526040519081900360200190205473ffffffffffffffffffffffffffffffffffffffff1614155b610728576040517f08c379a000000000000000000000000000000000000000000000000000000000815260206004820152601d60248201527f546f6b656e73206e6f7420617661696c61626c6520666f7220737761700000006044820152606401610380565b60006107358484846103e2565b9050600081116107a1576040517f08c379a000000000000000000000000000000000000000000000000000000000815260206004820152601260248201527f496e76616c6964207072696365206665656400000000000000000000000000006044820152606401610380565b6107aa83610c07565b811115610813576040517f08c379a000000000000000000000000000000000000000000000000000000000815260206004820152601660248201527f496e73756666696369656e74204c6971756964697479000000000000000000006044820152606401610380565b61085460028560405161082691906114c5565b9081526040519081900360200190205473ffffffffffffffffffffffffffffffffffffffff16333085610aef565b61089460028460405161086791906114c5565b9081526040519081900360200190205473ffffffffffffffffffffffffffffffffffffffff163383610cb3565b50505050565b6108a2610b11565b805182511461090d576040517f08c379a000000000000000000000000000000000000000000000000000000000815260206004820152601460248201527f496e76616c6964204e616d65732f546f6b656e730000000000000000000000006044820152606401610380565b60005b82518110156109c25782818151811061092b5761092b6115eb565b60200260200101516002838381518110610947576109476115eb565b602002602001015160405161095c91906114c5565b908152604051908190036020019020805473ffffffffffffffffffffffffffffffffffffffff929092167fffffffffffffffffffffffff0000000000000000000000000000000000000000909216919091179055806109ba8161161a565b915050610910565b505050565b6109cf610b11565b816002826040516109e091906114c5565b908152604051908190036020019020805473ffffffffffffffffffffffffffffffffffffffff929092167fffffffffffffffffffffffff00000000000000000000000000000000000000009092169190911790555050565b610a40610b11565b73ffffffffffffffffffffffffffffffffffffffff8116610ae3576040517f08c379a000000000000000000000000000000000000000000000000000000000815260206004820152602660248201527f4f776e61626c653a206e6577206f776e657220697320746865207a65726f206160448201527f64647265737300000000000000000000000000000000000000000000000000006064820152608401610380565b610aec81610b92565b50565b61089473ffffffffffffffffffffffffffffffffffffffff8516848484610cd4565b60005473ffffffffffffffffffffffffffffffffffffffff1633146103e0576040517f08c379a000000000000000000000000000000000000000000000000000000000815260206004820181905260248201527f4f776e61626c653a2063616c6c6572206973206e6f7420746865206f776e65726044820152606401610380565b6000805473ffffffffffffffffffffffffffffffffffffffff8381167fffffffffffffffffffffffff0000000000000000000000000000000000000000831681178455604051919092169283917f8be0079c531659141344cd1fd0a4f28419497f9722a3daafe3b4186f6b6457e09190a35050565b6000600282604051610c1991906114c5565b908152604051908190036020018120547f70a0823100000000000000000000000000000000000000000000000000000000825230600483015273ffffffffffffffffffffffffffffffffffffffff16906370a0823190602401602060405180830381865afa158015610c8f573d6000803e3d6000fd5b505050506040513d601f19601f820116820180604052508101906102c99190611652565b6109c273ffffffffffffffffffffffffffffffffffffffff84168383610db0565b60405173ffffffffffffffffffffffffffffffffffffffff808516602483015283166044820152606481018290526108949085907f23b872dd00000000000000000000000000000000000000000000000000000000906084015b604080517fffffffffffffffffffffffffffffffffffffffffffffffffffffffffffffffe08184030181529190526020810180517bffffffffffffffffffffffffffffffffffffffffffffffffffffffff167fffffffff0000000000000000000000000000000000000000000000000000000090931692909217909152610e06565b60405173ffffffffffffffffffffffffffffffffffffffff83166024820152604481018290526109c29084907fa9059cbb0000000000000000000000000000000000000000000000000000000090606401610d2e565b6000808373ffffffffffffffffffffffffffffffffffffffff1683604051610e2e91906114c5565b6000604051808303816000865af19150503d8060008114610e6b576040519150601f19603f3d011682016040523d82523d6000602084013e610e70565b606091505b509150915081610edc576040517f08c379a000000000000000000000000000000000000000000000000000000000815260206004820181905260248201527f5361666545524332303a206c6f772d6c6576656c2063616c6c206661696c65646044820152606401610380565b8051156108945780806020019051810190610ef7919061166b565b610894576040517f08c379a000000000000000000000000000000000000000000000000000000000815260206004820152602a60248201527f5361666545524332303a204552433230206f7065726174696f6e20646964206e60448201527f6f742073756363656564000000000000000000000000000000000000000000006064820152608401610380565b7f4e487b7100000000000000000000000000000000000000000000000000000000600052604160045260246000fd5b604051601f82017fffffffffffffffffffffffffffffffffffffffffffffffffffffffffffffffe016810167ffffffffffffffff81118282101715610ff957610ff9610f83565b604052919050565b600082601f83011261101257600080fd5b813567ffffffffffffffff81111561102c5761102c610f83565b61105d60207fffffffffffffffffffffffffffffffffffffffffffffffffffffffffffffffe0601f84011601610fb2565b81815284602083860101111561107257600080fd5b816020850160208301376000918101602001919091529392505050565b600080604083850312156110a257600080fd5b823567ffffffffffffffff808211156110ba57600080fd5b6110c686838701611001565b935060208501359150808211156110dc57600080fd5b506110e985828601611001565b9150509250929050565b6000806040838503121561110657600080fd5b823567ffffffffffffffff81111561111d57600080fd5b61112985828601611001565b95602094909401359450505050565b60008060006060848603121561114d57600080fd5b833567ffffffffffffffff8082111561116557600080fd5b61117187838801611001565b9450602086013591508082111561118757600080fd5b5061119486828701611001565b925050604084013590509250925092565b6000602082840312156111b757600080fd5b813567ffffffffffffffff8111156111ce57600080fd5b6111da84828501611001565b949350505050565b600067ffffffffffffffff8211156111fc576111fc610f83565b5060051b60200190565b803573ffffffffffffffffffffffffffffffffffffffff8116811461122a57600080fd5b919050565b600082601f83011261124057600080fd5b81356020611255611250836111e2565b610fb2565b82815260059290921b8401810191818101908684111561127457600080fd5b8286015b848110156112b457803567ffffffffffffffff8111156112985760008081fd5b6112a68986838b0101611001565b845250918301918301611278565b509695505050505050565b600080604083850312156112d257600080fd5b823567ffffffffffffffff808211156112ea57600080fd5b818501915085601f8301126112fe57600080fd5b8135602061130e611250836111e2565b82815260059290921b8401810191818101908984111561132d57600080fd5b948201945b838610156113525761134386611206565b82529482019490820190611332565b9650508601359250508082111561136857600080fd5b506110e98582860161122f565b6000806040838503121561138857600080fd5b61139183611206565b9150602083013567ffffffffffffffff8111156113ad57600080fd5b6110e985828601611001565b6000602082840312156113cb57600080fd5b61061382611206565b60005b838110156113ef5781810151838201526020016113d7565b50506000910152565b6000835161140a8184602088016113d4565b7f5f0000000000000000000000000000000000000000000000000000000000000090830190815283516114448160018401602088016113d4565b01600101949350505050565b602081526000825180602084015261146f8160408501602087016113d4565b601f017fffffffffffffffffffffffffffffffffffffffffffffffffffffffffffffffe0169190910160400192915050565b600080604083850312156114b457600080fd5b505080516020909101519092909150565b600082516114d78184602087016113d4565b9190910192915050565b7f4e487b7100000000000000000000000000000000000000000000000000000000600052601160045260246000fd5b600082611546577f4e487b7100000000000000000000000000000000000000000000000000000000600052601260045260246000fd5b7fffffffffffffffffffffffffffffffffffffffffffffffffffffffffffffffff83147f80000000000000000000000000000000000000000000000000000000000000008314161561159a5761159a6114e1565b500590565b808202600082127f8000000000000000000000000000000000000000000000000000000000000000841416156115d7576115d76114e1565b81810583148215176102c9576102c96114e1565b7f4e487b7100000000000000000000000000000000000000000000000000000000600052603260045260246000fd5b60007fffffffffffffffffffffffffffffffffffffffffffffffffffffffffffffffff820361164b5761164b6114e1565b5060010190565b60006020828403121561166457600080fd5b5051919050565b60006020828403121561167d57600080fd5b8151801515811461061357600080fdfea26469706673582212205048726c77d152c3d08237dd78796a78f131ea407b7d6a8f500c4d6850918c0064736f6c63430008110033",
					"opcodes": "PUSH1 0x80 PUSH1 0x40 MSTORE CALLVALUE DUP1 ISZERO PUSH2 0x10 JUMPI PUSH1 0x0 DUP1 REVERT JUMPDEST POP PUSH1 0x40 MLOAD PUSH2 0x17AF CODESIZE SUB DUP1 PUSH2 0x17AF DUP4 CODECOPY DUP2 ADD PUSH1 0x40 DUP2 SWAP1 MSTORE PUSH2 0x2F SWAP2 PUSH2 0xAD JUMP JUMPDEST PUSH2 0x38 CALLER PUSH2 0x5D JUMP JUMPDEST PUSH1 0x1 DUP1 SLOAD PUSH1 0x1 PUSH1 0x1 PUSH1 0xA0 SHL SUB NOT AND PUSH1 0x1 PUSH1 0x1 PUSH1 0xA0 SHL SUB SWAP3 SWAP1 SWAP3 AND SWAP2 SWAP1 SWAP2 OR SWAP1 SSTORE PUSH2 0xDD JUMP JUMPDEST PUSH1 0x0 DUP1 SLOAD PUSH1 0x1 PUSH1 0x1 PUSH1 0xA0 SHL SUB DUP4 DUP2 AND PUSH1 0x1 PUSH1 0x1 PUSH1 0xA0 SHL SUB NOT DUP4 AND DUP2 OR DUP5 SSTORE PUSH1 0x40 MLOAD SWAP2 SWAP1 SWAP3 AND SWAP3 DUP4 SWAP2 PUSH32 0x8BE0079C531659141344CD1FD0A4F28419497F9722A3DAAFE3B4186F6B6457E0 SWAP2 SWAP1 LOG3 POP POP JUMP JUMPDEST PUSH1 0x0 PUSH1 0x20 DUP3 DUP5 SUB SLT ISZERO PUSH2 0xBF JUMPI PUSH1 0x0 DUP1 REVERT JUMPDEST DUP2 MLOAD PUSH1 0x1 PUSH1 0x1 PUSH1 0xA0 SHL SUB DUP2 AND DUP2 EQ PUSH2 0xD6 JUMPI PUSH1 0x0 DUP1 REVERT JUMPDEST SWAP4 SWAP3 POP POP POP JUMP JUMPDEST PUSH2 0x16C3 DUP1 PUSH2 0xEC PUSH1 0x0 CODECOPY PUSH1 0x0 RETURN INVALID PUSH1 0x80 PUSH1 0x40 MSTORE CALLVALUE DUP1 ISZERO PUSH2 0x10 JUMPI PUSH1 0x0 DUP1 REVERT JUMPDEST POP PUSH1 0x4 CALLDATASIZE LT PUSH2 0xBE JUMPI PUSH1 0x0 CALLDATALOAD PUSH1 0xE0 SHR DUP1 PUSH4 0x935B13F6 GT PUSH2 0x76 JUMPI DUP1 PUSH4 0xD7EB64F7 GT PUSH2 0x5B JUMPI DUP1 PUSH4 0xD7EB64F7 EQ PUSH2 0x1AC JUMPI DUP1 PUSH4 0xE07A8665 EQ PUSH2 0x1BF JUMPI DUP1 PUSH4 0xF2FDE38B EQ PUSH2 0x1D2 JUMPI PUSH1 0x0 DUP1 REVERT JUMPDEST DUP1 PUSH4 0x935B13F6 EQ PUSH2 0x158 JUMPI DUP1 PUSH4 0xA451F602 EQ PUSH2 0x199 JUMPI PUSH1 0x0 DUP1 REVERT JUMPDEST DUP1 PUSH4 0x715018A6 GT PUSH2 0xA7 JUMPI DUP1 PUSH4 0x715018A6 EQ PUSH2 0xFE JUMPI DUP1 PUSH4 0x80770B05 EQ PUSH2 0x106 JUMPI DUP1 PUSH4 0x8DA5CB5B EQ PUSH2 0x119 JUMPI PUSH1 0x0 DUP1 REVERT JUMPDEST DUP1 PUSH4 0x3161A93A EQ PUSH2 0xC3 JUMPI DUP1 PUSH4 0x433FF288 EQ PUSH2 0xE9 JUMPI JUMPDEST PUSH1 0x0 DUP1 REVERT JUMPDEST PUSH2 0xD6 PUSH2 0xD1 CALLDATASIZE PUSH1 0x4 PUSH2 0x108F JUMP JUMPDEST PUSH2 0x1E5 JUMP JUMPDEST PUSH1 0x40 MLOAD SWAP1 DUP2 MSTORE PUSH1 0x20 ADD JUMPDEST PUSH1 0x40 MLOAD DUP1 SWAP2 SUB SWAP1 RETURN JUMPDEST PUSH2 0xFC PUSH2 0xF7 CALLDATASIZE PUSH1 0x4 PUSH2 0x10F3 JUMP JUMPDEST PUSH2 0x2CF JUMP JUMPDEST STOP JUMPDEST PUSH2 0xFC PUSH2 0x3CE JUMP JUMPDEST PUSH2 0xD6 PUSH2 0x114 CALLDATASIZE PUSH1 0x4 PUSH2 0x1138 JUMP JUMPDEST PUSH2 0x3E2 JUMP JUMPDEST PUSH1 0x0 SLOAD PUSH20 0xFFFFFFFFFFFFFFFFFFFFFFFFFFFFFFFFFFFFFFFF AND JUMPDEST PUSH1 0x40 MLOAD PUSH20 0xFFFFFFFFFFFFFFFFFFFFFFFFFFFFFFFFFFFFFFFF SWAP1 SWAP2 AND DUP2 MSTORE PUSH1 0x20 ADD PUSH2 0xE0 JUMP JUMPDEST PUSH2 0x133 PUSH2 0x166 CALLDATASIZE PUSH1 0x4 PUSH2 0x11A5 JUMP JUMPDEST DUP1 MLOAD PUSH1 0x20 DUP2 DUP4 ADD DUP2 ADD DUP1 MLOAD PUSH1 0x2 DUP3 MSTORE SWAP3 DUP3 ADD SWAP2 SWAP1 SWAP4 ADD KECCAK256 SWAP2 MSTORE SLOAD PUSH20 0xFFFFFFFFFFFFFFFFFFFFFFFFFFFFFFFFFFFFFFFF AND DUP2 JUMP JUMPDEST PUSH2 0xFC PUSH2 0x1A7 CALLDATASIZE PUSH1 0x4 PUSH2 0x1138 JUMP JUMPDEST PUSH2 0x61A JUMP JUMPDEST PUSH2 0xFC PUSH2 0x1BA CALLDATASIZE PUSH1 0x4 PUSH2 0x12BF JUMP JUMPDEST PUSH2 0x89A JUMP JUMPDEST PUSH2 0xFC PUSH2 0x1CD CALLDATASIZE PUSH1 0x4 PUSH2 0x1375 JUMP JUMPDEST PUSH2 0x9C7 JUMP JUMPDEST PUSH2 0xFC PUSH2 0x1E0 CALLDATASIZE PUSH1 0x4 PUSH2 0x13B9 JUMP JUMPDEST PUSH2 0xA38 JUMP JUMPDEST PUSH1 0x0 DUP1 DUP4 DUP4 PUSH1 0x40 MLOAD PUSH1 0x20 ADD PUSH2 0x1FB SWAP3 SWAP2 SWAP1 PUSH2 0x13F8 JUMP JUMPDEST PUSH1 0x40 DUP1 MLOAD PUSH32 0xFFFFFFFFFFFFFFFFFFFFFFFFFFFFFFFFFFFFFFFFFFFFFFFFFFFFFFFFFFFFFFE0 DUP2 DUP5 SUB ADD DUP2 MSTORE SWAP1 DUP3 SWAP1 MSTORE PUSH1 0x1 SLOAD PUSH32 0xABC4544E00000000000000000000000000000000000000000000000000000000 DUP4 MSTORE SWAP1 SWAP3 POP PUSH1 0x0 SWAP2 PUSH20 0xFFFFFFFFFFFFFFFFFFFFFFFFFFFFFFFFFFFFFFFF SWAP1 SWAP2 AND SWAP1 PUSH4 0xABC4544E SWAP1 PUSH2 0x283 SWAP1 DUP6 SWAP1 PUSH1 0x4 ADD PUSH2 0x1450 JUMP JUMPDEST PUSH1 0x40 DUP1 MLOAD DUP1 DUP4 SUB DUP2 DUP7 GAS STATICCALL ISZERO DUP1 ISZERO PUSH2 0x29F JUMPI RETURNDATASIZE PUSH1 0x0 DUP1 RETURNDATACOPY RETURNDATASIZE PUSH1 0x0 REVERT JUMPDEST POP POP POP POP PUSH1 0x40 MLOAD RETURNDATASIZE PUSH1 0x1F NOT PUSH1 0x1F DUP3 ADD AND DUP3 ADD DUP1 PUSH1 0x40 MSTORE POP DUP2 ADD SWAP1 PUSH2 0x2C3 SWAP2 SWAP1 PUSH2 0x14A1 JUMP JUMPDEST POP SWAP3 POP POP POP JUMPDEST SWAP3 SWAP2 POP POP JUMP JUMPDEST PUSH1 0x0 PUSH20 0xFFFFFFFFFFFFFFFFFFFFFFFFFFFFFFFFFFFFFFFF AND PUSH1 0x2 DUP4 PUSH1 0x40 MLOAD PUSH2 0x2F7 SWAP2 SWAP1 PUSH2 0x14C5 JUMP JUMPDEST SWAP1 DUP2 MSTORE PUSH1 0x40 MLOAD SWAP1 DUP2 SWAP1 SUB PUSH1 0x20 ADD SWAP1 KECCAK256 SLOAD PUSH20 0xFFFFFFFFFFFFFFFFFFFFFFFFFFFFFFFFFFFFFFFF AND SUB PUSH2 0x389 JUMPI PUSH1 0x40 MLOAD PUSH32 0x8C379A000000000000000000000000000000000000000000000000000000000 DUP2 MSTORE PUSH1 0x20 PUSH1 0x4 DUP3 ADD MSTORE PUSH1 0x1D PUSH1 0x24 DUP3 ADD MSTORE PUSH32 0x546F6B656E73206E6F7420617661696C61626C6520666F722073776170000000 PUSH1 0x44 DUP3 ADD MSTORE PUSH1 0x64 ADD JUMPDEST PUSH1 0x40 MLOAD DUP1 SWAP2 SUB SWAP1 REVERT JUMPDEST PUSH2 0x3CA PUSH1 0x2 DUP4 PUSH1 0x40 MLOAD PUSH2 0x39C SWAP2 SWAP1 PUSH2 0x14C5 JUMP JUMPDEST SWAP1 DUP2 MSTORE PUSH1 0x40 MLOAD SWAP1 DUP2 SWAP1 SUB PUSH1 0x20 ADD SWAP1 KECCAK256 SLOAD PUSH20 0xFFFFFFFFFFFFFFFFFFFFFFFFFFFFFFFFFFFFFFFF AND CALLER ADDRESS DUP5 PUSH2 0xAEF JUMP JUMPDEST POP POP JUMP JUMPDEST PUSH2 0x3D6 PUSH2 0xB11 JUMP JUMPDEST PUSH2 0x3E0 PUSH1 0x0 PUSH2 0xB92 JUMP JUMPDEST JUMP JUMPDEST PUSH1 0x40 MLOAD PUSH32 0x7573647400000000000000000000000000000000000000000000000000000000 PUSH1 0x20 DUP3 ADD MSTORE PUSH1 0x0 SWAP1 PUSH1 0x24 ADD PUSH1 0x40 MLOAD PUSH1 0x20 DUP2 DUP4 SUB SUB DUP2 MSTORE SWAP1 PUSH1 0x40 MSTORE DUP1 MLOAD SWAP1 PUSH1 0x20 ADD KECCAK256 DUP5 PUSH1 0x40 MLOAD PUSH1 0x20 ADD PUSH2 0x438 SWAP2 SWAP1 PUSH2 0x14C5 JUMP JUMPDEST PUSH1 0x40 MLOAD PUSH1 0x20 DUP2 DUP4 SUB SUB DUP2 MSTORE SWAP1 PUSH1 0x40 MSTORE DUP1 MLOAD SWAP1 PUSH1 0x20 ADD KECCAK256 SUB PUSH2 0x4AB JUMPI PUSH1 0x0 PUSH2 0x45F DUP5 DUP7 PUSH2 0x1E5 JUMP JUMPDEST SWAP1 POP PUSH1 0x0 PUSH2 0x475 DUP3 PUSH8 0xDE0B6B3A7640000 PUSH2 0x1510 JUMP JUMPDEST PUSH2 0x47F SWAP1 DUP6 PUSH2 0x159F JUMP JUMPDEST SWAP1 POP PUSH8 0xDE0B6B3A7640000 PUSH2 0x498 DUP3 PUSH4 0x5F5E100 PUSH2 0x159F JUMP JUMPDEST PUSH2 0x4A2 SWAP2 SWAP1 PUSH2 0x1510 JUMP JUMPDEST SWAP3 POP POP POP PUSH2 0x613 JUMP JUMPDEST DUP3 PUSH1 0x40 MLOAD PUSH1 0x20 ADD PUSH2 0x4BC SWAP2 SWAP1 PUSH2 0x14C5 JUMP JUMPDEST PUSH1 0x40 MLOAD PUSH1 0x20 DUP2 DUP4 SUB SUB DUP2 MSTORE SWAP1 PUSH1 0x40 MSTORE DUP1 MLOAD SWAP1 PUSH1 0x20 ADD KECCAK256 PUSH1 0x40 MLOAD PUSH1 0x20 ADD PUSH2 0x505 SWAP1 PUSH32 0x7573647400000000000000000000000000000000000000000000000000000000 DUP2 MSTORE PUSH1 0x4 ADD SWAP1 JUMP JUMPDEST PUSH1 0x40 MLOAD PUSH1 0x20 DUP2 DUP4 SUB SUB DUP2 MSTORE SWAP1 PUSH1 0x40 MSTORE DUP1 MLOAD SWAP1 PUSH1 0x20 ADD KECCAK256 SUB PUSH2 0x54A JUMPI PUSH1 0x0 PUSH2 0x52C DUP6 DUP6 PUSH2 0x1E5 JUMP JUMPDEST SWAP1 POP PUSH1 0x0 PUSH2 0x53A DUP3 DUP6 PUSH2 0x159F JUMP JUMPDEST SWAP1 POP PUSH2 0x4A2 PUSH4 0x5F5E100 DUP3 PUSH2 0x1510 JUMP JUMPDEST PUSH1 0x0 PUSH2 0x58B DUP6 PUSH1 0x40 MLOAD DUP1 PUSH1 0x40 ADD PUSH1 0x40 MSTORE DUP1 PUSH1 0x4 DUP2 MSTORE PUSH1 0x20 ADD PUSH32 0x7573647400000000000000000000000000000000000000000000000000000000 DUP2 MSTORE POP PUSH2 0x1E5 JUMP JUMPDEST SWAP1 POP PUSH1 0x0 PUSH2 0x5CE DUP6 PUSH1 0x40 MLOAD DUP1 PUSH1 0x40 ADD PUSH1 0x40 MSTORE DUP1 PUSH1 0x4 DUP2 MSTORE PUSH1 0x20 ADD PUSH32 0x7573647400000000000000000000000000000000000000000000000000000000 DUP2 MSTORE POP PUSH2 0x1E5 JUMP JUMPDEST SWAP1 POP PUSH1 0x0 DUP2 PUSH2 0x5E5 DUP5 PUSH8 0xDE0B6B3A7640000 PUSH2 0x159F JUMP JUMPDEST PUSH2 0x5EF SWAP2 SWAP1 PUSH2 0x1510 JUMP JUMPDEST PUSH2 0x5F9 SWAP1 DUP7 PUSH2 0x159F JUMP JUMPDEST SWAP1 POP PUSH2 0x60D PUSH8 0xDE0B6B3A7640000 DUP3 PUSH2 0x1510 JUMP JUMPDEST SWAP4 POP POP POP POP JUMPDEST SWAP4 SWAP3 POP POP POP JUMP JUMPDEST PUSH1 0x0 PUSH20 0xFFFFFFFFFFFFFFFFFFFFFFFFFFFFFFFFFFFFFFFF AND PUSH1 0x2 DUP5 PUSH1 0x40 MLOAD PUSH2 0x642 SWAP2 SWAP1 PUSH2 0x14C5 JUMP JUMPDEST SWAP1 DUP2 MSTORE PUSH1 0x40 MLOAD SWAP1 DUP2 SWAP1 SUB PUSH1 0x20 ADD SWAP1 KECCAK256 SLOAD PUSH20 0xFFFFFFFFFFFFFFFFFFFFFFFFFFFFFFFFFFFFFFFF AND EQ DUP1 ISZERO SWAP1 PUSH2 0x6C2 JUMPI POP PUSH1 0x0 PUSH20 0xFFFFFFFFFFFFFFFFFFFFFFFFFFFFFFFFFFFFFFFF AND PUSH1 0x2 DUP4 PUSH1 0x40 MLOAD PUSH2 0x699 SWAP2 SWAP1 PUSH2 0x14C5 JUMP JUMPDEST SWAP1 DUP2 MSTORE PUSH1 0x40 MLOAD SWAP1 DUP2 SWAP1 SUB PUSH1 0x20 ADD SWAP1 KECCAK256 SLOAD PUSH20 0xFFFFFFFFFFFFFFFFFFFFFFFFFFFFFFFFFFFFFFFF AND EQ ISZERO JUMPDEST PUSH2 0x728 JUMPI PUSH1 0x40 MLOAD PUSH32 0x8C379A000000000000000000000000000000000000000000000000000000000 DUP2 MSTORE PUSH1 0x20 PUSH1 0x4 DUP3 ADD MSTORE PUSH1 0x1D PUSH1 0x24 DUP3 ADD MSTORE PUSH32 0x546F6B656E73206E6F7420617661696C61626C6520666F722073776170000000 PUSH1 0x44 DUP3 ADD MSTORE PUSH1 0x64 ADD PUSH2 0x380 JUMP JUMPDEST PUSH1 0x0 PUSH2 0x735 DUP5 DUP5 DUP5 PUSH2 0x3E2 JUMP JUMPDEST SWAP1 POP PUSH1 0x0 DUP2 GT PUSH2 0x7A1 JUMPI PUSH1 0x40 MLOAD PUSH32 0x8C379A000000000000000000000000000000000000000000000000000000000 DUP2 MSTORE PUSH1 0x20 PUSH1 0x4 DUP3 ADD MSTORE PUSH1 0x12 PUSH1 0x24 DUP3 ADD MSTORE PUSH32 0x496E76616C696420707269636520666565640000000000000000000000000000 PUSH1 0x44 DUP3 ADD MSTORE PUSH1 0x64 ADD PUSH2 0x380 JUMP JUMPDEST PUSH2 0x7AA DUP4 PUSH2 0xC07 JUMP JUMPDEST DUP2 GT ISZERO PUSH2 0x813 JUMPI PUSH1 0x40 MLOAD PUSH32 0x8C379A000000000000000000000000000000000000000000000000000000000 DUP2 MSTORE PUSH1 0x20 PUSH1 0x4 DUP3 ADD MSTORE PUSH1 0x16 PUSH1 0x24 DUP3 ADD MSTORE PUSH32 0x496E73756666696369656E74204C697175696469747900000000000000000000 PUSH1 0x44 DUP3 ADD MSTORE PUSH1 0x64 ADD PUSH2 0x380 JUMP JUMPDEST PUSH2 0x854 PUSH1 0x2 DUP6 PUSH1 0x40 MLOAD PUSH2 0x826 SWAP2 SWAP1 PUSH2 0x14C5 JUMP JUMPDEST SWAP1 DUP2 MSTORE PUSH1 0x40 MLOAD SWAP1 DUP2 SWAP1 SUB PUSH1 0x20 ADD SWAP1 KECCAK256 SLOAD PUSH20 0xFFFFFFFFFFFFFFFFFFFFFFFFFFFFFFFFFFFFFFFF AND CALLER ADDRESS DUP6 PUSH2 0xAEF JUMP JUMPDEST PUSH2 0x894 PUSH1 0x2 DUP5 PUSH1 0x40 MLOAD PUSH2 0x867 SWAP2 SWAP1 PUSH2 0x14C5 JUMP JUMPDEST SWAP1 DUP2 MSTORE PUSH1 0x40 MLOAD SWAP1 DUP2 SWAP1 SUB PUSH1 0x20 ADD SWAP1 KECCAK256 SLOAD PUSH20 0xFFFFFFFFFFFFFFFFFFFFFFFFFFFFFFFFFFFFFFFF AND CALLER DUP4 PUSH2 0xCB3 JUMP JUMPDEST POP POP POP POP JUMP JUMPDEST PUSH2 0x8A2 PUSH2 0xB11 JUMP JUMPDEST DUP1 MLOAD DUP3 MLOAD EQ PUSH2 0x90D JUMPI PUSH1 0x40 MLOAD PUSH32 0x8C379A000000000000000000000000000000000000000000000000000000000 DUP2 MSTORE PUSH1 0x20 PUSH1 0x4 DUP3 ADD MSTORE PUSH1 0x14 PUSH1 0x24 DUP3 ADD MSTORE PUSH32 0x496E76616C6964204E616D65732F546F6B656E73000000000000000000000000 PUSH1 0x44 DUP3 ADD MSTORE PUSH1 0x64 ADD PUSH2 0x380 JUMP JUMPDEST PUSH1 0x0 JUMPDEST DUP3 MLOAD DUP2 LT ISZERO PUSH2 0x9C2 JUMPI DUP3 DUP2 DUP2 MLOAD DUP2 LT PUSH2 0x92B JUMPI PUSH2 0x92B PUSH2 0x15EB JUMP JUMPDEST PUSH1 0x20 MUL PUSH1 0x20 ADD ADD MLOAD PUSH1 0x2 DUP4 DUP4 DUP2 MLOAD DUP2 LT PUSH2 0x947 JUMPI PUSH2 0x947 PUSH2 0x15EB JUMP JUMPDEST PUSH1 0x20 MUL PUSH1 0x20 ADD ADD MLOAD PUSH1 0x40 MLOAD PUSH2 0x95C SWAP2 SWAP1 PUSH2 0x14C5 JUMP JUMPDEST SWAP1 DUP2 MSTORE PUSH1 0x40 MLOAD SWAP1 DUP2 SWAP1 SUB PUSH1 0x20 ADD SWAP1 KECCAK256 DUP1 SLOAD PUSH20 0xFFFFFFFFFFFFFFFFFFFFFFFFFFFFFFFFFFFFFFFF SWAP3 SWAP1 SWAP3 AND PUSH32 0xFFFFFFFFFFFFFFFFFFFFFFFF0000000000000000000000000000000000000000 SWAP1 SWAP3 AND SWAP2 SWAP1 SWAP2 OR SWAP1 SSTORE DUP1 PUSH2 0x9BA DUP2 PUSH2 0x161A JUMP JUMPDEST SWAP2 POP POP PUSH2 0x910 JUMP JUMPDEST POP POP POP JUMP JUMPDEST PUSH2 0x9CF PUSH2 0xB11 JUMP JUMPDEST DUP2 PUSH1 0x2 DUP3 PUSH1 0x40 MLOAD PUSH2 0x9E0 SWAP2 SWAP1 PUSH2 0x14C5 JUMP JUMPDEST SWAP1 DUP2 MSTORE PUSH1 0x40 MLOAD SWAP1 DUP2 SWAP1 SUB PUSH1 0x20 ADD SWAP1 KECCAK256 DUP1 SLOAD PUSH20 0xFFFFFFFFFFFFFFFFFFFFFFFFFFFFFFFFFFFFFFFF SWAP3 SWAP1 SWAP3 AND PUSH32 0xFFFFFFFFFFFFFFFFFFFFFFFF0000000000000000000000000000000000000000 SWAP1 SWAP3 AND SWAP2 SWAP1 SWAP2 OR SWAP1 SSTORE POP POP JUMP JUMPDEST PUSH2 0xA40 PUSH2 0xB11 JUMP JUMPDEST PUSH20 0xFFFFFFFFFFFFFFFFFFFFFFFFFFFFFFFFFFFFFFFF DUP2 AND PUSH2 0xAE3 JUMPI PUSH1 0x40 MLOAD PUSH32 0x8C379A000000000000000000000000000000000000000000000000000000000 DUP2 MSTORE PUSH1 0x20 PUSH1 0x4 DUP3 ADD MSTORE PUSH1 0x26 PUSH1 0x24 DUP3 ADD MSTORE PUSH32 0x4F776E61626C653A206E6577206F776E657220697320746865207A65726F2061 PUSH1 0x44 DUP3 ADD MSTORE PUSH32 0x6464726573730000000000000000000000000000000000000000000000000000 PUSH1 0x64 DUP3 ADD MSTORE PUSH1 0x84 ADD PUSH2 0x380 JUMP JUMPDEST PUSH2 0xAEC DUP2 PUSH2 0xB92 JUMP JUMPDEST POP JUMP JUMPDEST PUSH2 0x894 PUSH20 0xFFFFFFFFFFFFFFFFFFFFFFFFFFFFFFFFFFFFFFFF DUP6 AND DUP5 DUP5 DUP5 PUSH2 0xCD4 JUMP JUMPDEST PUSH1 0x0 SLOAD PUSH20 0xFFFFFFFFFFFFFFFFFFFFFFFFFFFFFFFFFFFFFFFF AND CALLER EQ PUSH2 0x3E0 JUMPI PUSH1 0x40 MLOAD PUSH32 0x8C379A000000000000000000000000000000000000000000000000000000000 DUP2 MSTORE PUSH1 0x20 PUSH1 0x4 DUP3 ADD DUP2 SWAP1 MSTORE PUSH1 0x24 DUP3 ADD MSTORE PUSH32 0x4F776E61626C653A2063616C6C6572206973206E6F7420746865206F776E6572 PUSH1 0x44 DUP3 ADD MSTORE PUSH1 0x64 ADD PUSH2 0x380 JUMP JUMPDEST PUSH1 0x0 DUP1 SLOAD PUSH20 0xFFFFFFFFFFFFFFFFFFFFFFFFFFFFFFFFFFFFFFFF DUP4 DUP2 AND PUSH32 0xFFFFFFFFFFFFFFFFFFFFFFFF0000000000000000000000000000000000000000 DUP4 AND DUP2 OR DUP5 SSTORE PUSH1 0x40 MLOAD SWAP2 SWAP1 SWAP3 AND SWAP3 DUP4 SWAP2 PUSH32 0x8BE0079C531659141344CD1FD0A4F28419497F9722A3DAAFE3B4186F6B6457E0 SWAP2 SWAP1 LOG3 POP POP JUMP JUMPDEST PUSH1 0x0 PUSH1 0x2 DUP3 PUSH1 0x40 MLOAD PUSH2 0xC19 SWAP2 SWAP1 PUSH2 0x14C5 JUMP JUMPDEST SWAP1 DUP2 MSTORE PUSH1 0x40 MLOAD SWAP1 DUP2 SWAP1 SUB PUSH1 0x20 ADD DUP2 KECCAK256 SLOAD PUSH32 0x70A0823100000000000000000000000000000000000000000000000000000000 DUP3 MSTORE ADDRESS PUSH1 0x4 DUP4 ADD MSTORE PUSH20 0xFFFFFFFFFFFFFFFFFFFFFFFFFFFFFFFFFFFFFFFF AND SWAP1 PUSH4 0x70A08231 SWAP1 PUSH1 0x24 ADD PUSH1 0x20 PUSH1 0x40 MLOAD DUP1 DUP4 SUB DUP2 DUP7 GAS STATICCALL ISZERO DUP1 ISZERO PUSH2 0xC8F JUMPI RETURNDATASIZE PUSH1 0x0 DUP1 RETURNDATACOPY RETURNDATASIZE PUSH1 0x0 REVERT JUMPDEST POP POP POP POP PUSH1 0x40 MLOAD RETURNDATASIZE PUSH1 0x1F NOT PUSH1 0x1F DUP3 ADD AND DUP3 ADD DUP1 PUSH1 0x40 MSTORE POP DUP2 ADD SWAP1 PUSH2 0x2C9 SWAP2 SWAP1 PUSH2 0x1652 JUMP JUMPDEST PUSH2 0x9C2 PUSH20 0xFFFFFFFFFFFFFFFFFFFFFFFFFFFFFFFFFFFFFFFF DUP5 AND DUP4 DUP4 PUSH2 0xDB0 JUMP JUMPDEST PUSH1 0x40 MLOAD PUSH20 0xFFFFFFFFFFFFFFFFFFFFFFFFFFFFFFFFFFFFFFFF DUP1 DUP6 AND PUSH1 0x24 DUP4 ADD MSTORE DUP4 AND PUSH1 0x44 DUP3 ADD MSTORE PUSH1 0x64 DUP2 ADD DUP3 SWAP1 MSTORE PUSH2 0x894 SWAP1 DUP6 SWAP1 PUSH32 0x23B872DD00000000000000000000000000000000000000000000000000000000 SWAP1 PUSH1 0x84 ADD JUMPDEST PUSH1 0x40 DUP1 MLOAD PUSH32 0xFFFFFFFFFFFFFFFFFFFFFFFFFFFFFFFFFFFFFFFFFFFFFFFFFFFFFFFFFFFFFFE0 DUP2 DUP5 SUB ADD DUP2 MSTORE SWAP2 SWAP1 MSTORE PUSH1 0x20 DUP2 ADD DUP1 MLOAD PUSH28 0xFFFFFFFFFFFFFFFFFFFFFFFFFFFFFFFFFFFFFFFFFFFFFFFFFFFFFFFF AND PUSH32 0xFFFFFFFF00000000000000000000000000000000000000000000000000000000 SWAP1 SWAP4 AND SWAP3 SWAP1 SWAP3 OR SWAP1 SWAP2 MSTORE PUSH2 0xE06 JUMP JUMPDEST PUSH1 0x40 MLOAD PUSH20 0xFFFFFFFFFFFFFFFFFFFFFFFFFFFFFFFFFFFFFFFF DUP4 AND PUSH1 0x24 DUP3 ADD MSTORE PUSH1 0x44 DUP2 ADD DUP3 SWAP1 MSTORE PUSH2 0x9C2 SWAP1 DUP5 SWAP1 PUSH32 0xA9059CBB00000000000000000000000000000000000000000000000000000000 SWAP1 PUSH1 0x64 ADD PUSH2 0xD2E JUMP JUMPDEST PUSH1 0x0 DUP1 DUP4 PUSH20 0xFFFFFFFFFFFFFFFFFFFFFFFFFFFFFFFFFFFFFFFF AND DUP4 PUSH1 0x40 MLOAD PUSH2 0xE2E SWAP2 SWAP1 PUSH2 0x14C5 JUMP JUMPDEST PUSH1 0x0 PUSH1 0x40 MLOAD DUP1 DUP4 SUB DUP2 PUSH1 0x0 DUP7 GAS CALL SWAP2 POP POP RETURNDATASIZE DUP1 PUSH1 0x0 DUP2 EQ PUSH2 0xE6B JUMPI PUSH1 0x40 MLOAD SWAP2 POP PUSH1 0x1F NOT PUSH1 0x3F RETURNDATASIZE ADD AND DUP3 ADD PUSH1 0x40 MSTORE RETURNDATASIZE DUP3 MSTORE RETURNDATASIZE PUSH1 0x0 PUSH1 0x20 DUP5 ADD RETURNDATACOPY PUSH2 0xE70 JUMP JUMPDEST PUSH1 0x60 SWAP2 POP JUMPDEST POP SWAP2 POP SWAP2 POP DUP2 PUSH2 0xEDC JUMPI PUSH1 0x40 MLOAD PUSH32 0x8C379A000000000000000000000000000000000000000000000000000000000 DUP2 MSTORE PUSH1 0x20 PUSH1 0x4 DUP3 ADD DUP2 SWAP1 MSTORE PUSH1 0x24 DUP3 ADD MSTORE PUSH32 0x5361666545524332303A206C6F772D6C6576656C2063616C6C206661696C6564 PUSH1 0x44 DUP3 ADD MSTORE PUSH1 0x64 ADD PUSH2 0x380 JUMP JUMPDEST DUP1 MLOAD ISZERO PUSH2 0x894 JUMPI DUP1 DUP1 PUSH1 0x20 ADD SWAP1 MLOAD DUP2 ADD SWAP1 PUSH2 0xEF7 SWAP2 SWAP1 PUSH2 0x166B JUMP JUMPDEST PUSH2 0x894 JUMPI PUSH1 0x40 MLOAD PUSH32 0x8C379A000000000000000000000000000000000000000000000000000000000 DUP2 MSTORE PUSH1 0x20 PUSH1 0x4 DUP3 ADD MSTORE PUSH1 0x2A PUSH1 0x24 DUP3 ADD MSTORE PUSH32 0x5361666545524332303A204552433230206F7065726174696F6E20646964206E PUSH1 0x44 DUP3 ADD MSTORE PUSH32 0x6F74207375636365656400000000000000000000000000000000000000000000 PUSH1 0x64 DUP3 ADD MSTORE PUSH1 0x84 ADD PUSH2 0x380 JUMP JUMPDEST PUSH32 0x4E487B7100000000000000000000000000000000000000000000000000000000 PUSH1 0x0 MSTORE PUSH1 0x41 PUSH1 0x4 MSTORE PUSH1 0x24 PUSH1 0x0 REVERT JUMPDEST PUSH1 0x40 MLOAD PUSH1 0x1F DUP3 ADD PUSH32 0xFFFFFFFFFFFFFFFFFFFFFFFFFFFFFFFFFFFFFFFFFFFFFFFFFFFFFFFFFFFFFFE0 AND DUP2 ADD PUSH8 0xFFFFFFFFFFFFFFFF DUP2 GT DUP3 DUP3 LT OR ISZERO PUSH2 0xFF9 JUMPI PUSH2 0xFF9 PUSH2 0xF83 JUMP JUMPDEST PUSH1 0x40 MSTORE SWAP2 SWAP1 POP JUMP JUMPDEST PUSH1 0x0 DUP3 PUSH1 0x1F DUP4 ADD SLT PUSH2 0x1012 JUMPI PUSH1 0x0 DUP1 REVERT JUMPDEST DUP2 CALLDATALOAD PUSH8 0xFFFFFFFFFFFFFFFF DUP2 GT ISZERO PUSH2 0x102C JUMPI PUSH2 0x102C PUSH2 0xF83 JUMP JUMPDEST PUSH2 0x105D PUSH1 0x20 PUSH32 0xFFFFFFFFFFFFFFFFFFFFFFFFFFFFFFFFFFFFFFFFFFFFFFFFFFFFFFFFFFFFFFE0 PUSH1 0x1F DUP5 ADD AND ADD PUSH2 0xFB2 JUMP JUMPDEST DUP2 DUP2 MSTORE DUP5 PUSH1 0x20 DUP4 DUP7 ADD ADD GT ISZERO PUSH2 0x1072 JUMPI PUSH1 0x0 DUP1 REVERT JUMPDEST DUP2 PUSH1 0x20 DUP6 ADD PUSH1 0x20 DUP4 ADD CALLDATACOPY PUSH1 0x0 SWAP2 DUP2 ADD PUSH1 0x20 ADD SWAP2 SWAP1 SWAP2 MSTORE SWAP4 SWAP3 POP POP POP JUMP JUMPDEST PUSH1 0x0 DUP1 PUSH1 0x40 DUP4 DUP6 SUB SLT ISZERO PUSH2 0x10A2 JUMPI PUSH1 0x0 DUP1 REVERT JUMPDEST DUP3 CALLDATALOAD PUSH8 0xFFFFFFFFFFFFFFFF DUP1 DUP3 GT ISZERO PUSH2 0x10BA JUMPI PUSH1 0x0 DUP1 REVERT JUMPDEST PUSH2 0x10C6 DUP7 DUP4 DUP8 ADD PUSH2 0x1001 JUMP JUMPDEST SWAP4 POP PUSH1 0x20 DUP6 ADD CALLDATALOAD SWAP2 POP DUP1 DUP3 GT ISZERO PUSH2 0x10DC JUMPI PUSH1 0x0 DUP1 REVERT JUMPDEST POP PUSH2 0x10E9 DUP6 DUP3 DUP7 ADD PUSH2 0x1001 JUMP JUMPDEST SWAP2 POP POP SWAP3 POP SWAP3 SWAP1 POP JUMP JUMPDEST PUSH1 0x0 DUP1 PUSH1 0x40 DUP4 DUP6 SUB SLT ISZERO PUSH2 0x1106 JUMPI PUSH1 0x0 DUP1 REVERT JUMPDEST DUP3 CALLDATALOAD PUSH8 0xFFFFFFFFFFFFFFFF DUP2 GT ISZERO PUSH2 0x111D JUMPI PUSH1 0x0 DUP1 REVERT JUMPDEST PUSH2 0x1129 DUP6 DUP3 DUP7 ADD PUSH2 0x1001 JUMP JUMPDEST SWAP6 PUSH1 0x20 SWAP5 SWAP1 SWAP5 ADD CALLDATALOAD SWAP5 POP POP POP POP JUMP JUMPDEST PUSH1 0x0 DUP1 PUSH1 0x0 PUSH1 0x60 DUP5 DUP7 SUB SLT ISZERO PUSH2 0x114D JUMPI PUSH1 0x0 DUP1 REVERT JUMPDEST DUP4 CALLDATALOAD PUSH8 0xFFFFFFFFFFFFFFFF DUP1 DUP3 GT ISZERO PUSH2 0x1165 JUMPI PUSH1 0x0 DUP1 REVERT JUMPDEST PUSH2 0x1171 DUP8 DUP4 DUP9 ADD PUSH2 0x1001 JUMP JUMPDEST SWAP5 POP PUSH1 0x20 DUP7 ADD CALLDATALOAD SWAP2 POP DUP1 DUP3 GT ISZERO PUSH2 0x1187 JUMPI PUSH1 0x0 DUP1 REVERT JUMPDEST POP PUSH2 0x1194 DUP7 DUP3 DUP8 ADD PUSH2 0x1001 JUMP JUMPDEST SWAP3 POP POP PUSH1 0x40 DUP5 ADD CALLDATALOAD SWAP1 POP SWAP3 POP SWAP3 POP SWAP3 JUMP JUMPDEST PUSH1 0x0 PUSH1 0x20 DUP3 DUP5 SUB SLT ISZERO PUSH2 0x11B7 JUMPI PUSH1 0x0 DUP1 REVERT JUMPDEST DUP2 CALLDATALOAD PUSH8 0xFFFFFFFFFFFFFFFF DUP2 GT ISZERO PUSH2 0x11CE JUMPI PUSH1 0x0 DUP1 REVERT JUMPDEST PUSH2 0x11DA DUP5 DUP3 DUP6 ADD PUSH2 0x1001 JUMP JUMPDEST SWAP5 SWAP4 POP POP POP POP JUMP JUMPDEST PUSH1 0x0 PUSH8 0xFFFFFFFFFFFFFFFF DUP3 GT ISZERO PUSH2 0x11FC JUMPI PUSH2 0x11FC PUSH2 0xF83 JUMP JUMPDEST POP PUSH1 0x5 SHL PUSH1 0x20 ADD SWAP1 JUMP JUMPDEST DUP1 CALLDATALOAD PUSH20 0xFFFFFFFFFFFFFFFFFFFFFFFFFFFFFFFFFFFFFFFF DUP2 AND DUP2 EQ PUSH2 0x122A JUMPI PUSH1 0x0 DUP1 REVERT JUMPDEST SWAP2 SWAP1 POP JUMP JUMPDEST PUSH1 0x0 DUP3 PUSH1 0x1F DUP4 ADD SLT PUSH2 0x1240 JUMPI PUSH1 0x0 DUP1 REVERT JUMPDEST DUP2 CALLDATALOAD PUSH1 0x20 PUSH2 0x1255 PUSH2 0x1250 DUP4 PUSH2 0x11E2 JUMP JUMPDEST PUSH2 0xFB2 JUMP JUMPDEST DUP3 DUP2 MSTORE PUSH1 0x5 SWAP3 SWAP1 SWAP3 SHL DUP5 ADD DUP2 ADD SWAP2 DUP2 DUP2 ADD SWAP1 DUP7 DUP5 GT ISZERO PUSH2 0x1274 JUMPI PUSH1 0x0 DUP1 REVERT JUMPDEST DUP3 DUP7 ADD JUMPDEST DUP5 DUP2 LT ISZERO PUSH2 0x12B4 JUMPI DUP1 CALLDATALOAD PUSH8 0xFFFFFFFFFFFFFFFF DUP2 GT ISZERO PUSH2 0x1298 JUMPI PUSH1 0x0 DUP1 DUP2 REVERT JUMPDEST PUSH2 0x12A6 DUP10 DUP7 DUP4 DUP12 ADD ADD PUSH2 0x1001 JUMP JUMPDEST DUP5 MSTORE POP SWAP2 DUP4 ADD SWAP2 DUP4 ADD PUSH2 0x1278 JUMP JUMPDEST POP SWAP7 SWAP6 POP POP POP POP POP POP JUMP JUMPDEST PUSH1 0x0 DUP1 PUSH1 0x40 DUP4 DUP6 SUB SLT ISZERO PUSH2 0x12D2 JUMPI PUSH1 0x0 DUP1 REVERT JUMPDEST DUP3 CALLDATALOAD PUSH8 0xFFFFFFFFFFFFFFFF DUP1 DUP3 GT ISZERO PUSH2 0x12EA JUMPI PUSH1 0x0 DUP1 REVERT JUMPDEST DUP2 DUP6 ADD SWAP2 POP DUP6 PUSH1 0x1F DUP4 ADD SLT PUSH2 0x12FE JUMPI PUSH1 0x0 DUP1 REVERT JUMPDEST DUP2 CALLDATALOAD PUSH1 0x20 PUSH2 0x130E PUSH2 0x1250 DUP4 PUSH2 0x11E2 JUMP JUMPDEST DUP3 DUP2 MSTORE PUSH1 0x5 SWAP3 SWAP1 SWAP3 SHL DUP5 ADD DUP2 ADD SWAP2 DUP2 DUP2 ADD SWAP1 DUP10 DUP5 GT ISZERO PUSH2 0x132D JUMPI PUSH1 0x0 DUP1 REVERT JUMPDEST SWAP5 DUP3 ADD SWAP5 JUMPDEST DUP4 DUP7 LT ISZERO PUSH2 0x1352 JUMPI PUSH2 0x1343 DUP7 PUSH2 0x1206 JUMP JUMPDEST DUP3 MSTORE SWAP5 DUP3 ADD SWAP5 SWAP1 DUP3 ADD SWAP1 PUSH2 0x1332 JUMP JUMPDEST SWAP7 POP POP DUP7 ADD CALLDATALOAD SWAP3 POP POP DUP1 DUP3 GT ISZERO PUSH2 0x1368 JUMPI PUSH1 0x0 DUP1 REVERT JUMPDEST POP PUSH2 0x10E9 DUP6 DUP3 DUP7 ADD PUSH2 0x122F JUMP JUMPDEST PUSH1 0x0 DUP1 PUSH1 0x40 DUP4 DUP6 SUB SLT ISZERO PUSH2 0x1388 JUMPI PUSH1 0x0 DUP1 REVERT JUMPDEST PUSH2 0x1391 DUP4 PUSH2 0x1206 JUMP JUMPDEST SWAP2 POP PUSH1 0x20 DUP4 ADD CALLDATALOAD PUSH8 0xFFFFFFFFFFFFFFFF DUP2 GT ISZERO PUSH2 0x13AD JUMPI PUSH1 0x0 DUP1 REVERT JUMPDEST PUSH2 0x10E9 DUP6 DUP3 DUP7 ADD PUSH2 0x1001 JUMP JUMPDEST PUSH1 0x0 PUSH1 0x20 DUP3 DUP5 SUB SLT ISZERO PUSH2 0x13CB JUMPI PUSH1 0x0 DUP1 REVERT JUMPDEST PUSH2 0x613 DUP3 PUSH2 0x1206 JUMP JUMPDEST PUSH1 0x0 JUMPDEST DUP4 DUP2 LT ISZERO PUSH2 0x13EF JUMPI DUP2 DUP2 ADD MLOAD DUP4 DUP3 ADD MSTORE PUSH1 0x20 ADD PUSH2 0x13D7 JUMP JUMPDEST POP POP PUSH1 0x0 SWAP2 ADD MSTORE JUMP JUMPDEST PUSH1 0x0 DUP4 MLOAD PUSH2 0x140A DUP2 DUP5 PUSH1 0x20 DUP9 ADD PUSH2 0x13D4 JUMP JUMPDEST PUSH32 0x5F00000000000000000000000000000000000000000000000000000000000000 SWAP1 DUP4 ADD SWAP1 DUP2 MSTORE DUP4 MLOAD PUSH2 0x1444 DUP2 PUSH1 0x1 DUP5 ADD PUSH1 0x20 DUP9 ADD PUSH2 0x13D4 JUMP JUMPDEST ADD PUSH1 0x1 ADD SWAP5 SWAP4 POP POP POP POP JUMP JUMPDEST PUSH1 0x20 DUP2 MSTORE PUSH1 0x0 DUP3 MLOAD DUP1 PUSH1 0x20 DUP5 ADD MSTORE PUSH2 0x146F DUP2 PUSH1 0x40 DUP6 ADD PUSH1 0x20 DUP8 ADD PUSH2 0x13D4 JUMP JUMPDEST PUSH1 0x1F ADD PUSH32 0xFFFFFFFFFFFFFFFFFFFFFFFFFFFFFFFFFFFFFFFFFFFFFFFFFFFFFFFFFFFFFFE0 AND SWAP2 SWAP1 SWAP2 ADD PUSH1 0x40 ADD SWAP3 SWAP2 POP POP JUMP JUMPDEST PUSH1 0x0 DUP1 PUSH1 0x40 DUP4 DUP6 SUB SLT ISZERO PUSH2 0x14B4 JUMPI PUSH1 0x0 DUP1 REVERT JUMPDEST POP POP DUP1 MLOAD PUSH1 0x20 SWAP1 SWAP2 ADD MLOAD SWAP1 SWAP3 SWAP1 SWAP2 POP JUMP JUMPDEST PUSH1 0x0 DUP3 MLOAD PUSH2 0x14D7 DUP2 DUP5 PUSH1 0x20 DUP8 ADD PUSH2 0x13D4 JUMP JUMPDEST SWAP2 SWAP1 SWAP2 ADD SWAP3 SWAP2 POP POP JUMP JUMPDEST PUSH32 0x4E487B7100000000000000000000000000000000000000000000000000000000 PUSH1 0x0 MSTORE PUSH1 0x11 PUSH1 0x4 MSTORE PUSH1 0x24 PUSH1 0x0 REVERT JUMPDEST PUSH1 0x0 DUP3 PUSH2 0x1546 JUMPI PUSH32 0x4E487B7100000000000000000000000000000000000000000000000000000000 PUSH1 0x0 MSTORE PUSH1 0x12 PUSH1 0x4 MSTORE PUSH1 0x24 PUSH1 0x0 REVERT JUMPDEST PUSH32 0xFFFFFFFFFFFFFFFFFFFFFFFFFFFFFFFFFFFFFFFFFFFFFFFFFFFFFFFFFFFFFFFF DUP4 EQ PUSH32 0x8000000000000000000000000000000000000000000000000000000000000000 DUP4 EQ AND ISZERO PUSH2 0x159A JUMPI PUSH2 0x159A PUSH2 0x14E1 JUMP JUMPDEST POP SDIV SWAP1 JUMP JUMPDEST DUP1 DUP3 MUL PUSH1 0x0 DUP3 SLT PUSH32 0x8000000000000000000000000000000000000000000000000000000000000000 DUP5 EQ AND ISZERO PUSH2 0x15D7 JUMPI PUSH2 0x15D7 PUSH2 0x14E1 JUMP JUMPDEST DUP2 DUP2 SDIV DUP4 EQ DUP3 ISZERO OR PUSH2 0x2C9 JUMPI PUSH2 0x2C9 PUSH2 0x14E1 JUMP JUMPDEST PUSH32 0x4E487B7100000000000000000000000000000000000000000000000000000000 PUSH1 0x0 MSTORE PUSH1 0x32 PUSH1 0x4 MSTORE PUSH1 0x24 PUSH1 0x0 REVERT JUMPDEST PUSH1 0x0 PUSH32 0xFFFFFFFFFFFFFFFFFFFFFFFFFFFFFFFFFFFFFFFFFFFFFFFFFFFFFFFFFFFFFFFF DUP3 SUB PUSH2 0x164B JUMPI PUSH2 0x164B PUSH2 0x14E1 JUMP JUMPDEST POP PUSH1 0x1 ADD SWAP1 JUMP JUMPDEST PUSH1 0x0 PUSH1 0x20 DUP3 DUP5 SUB SLT ISZERO PUSH2 0x1664 JUMPI PUSH1 0x0 DUP1 REVERT JUMPDEST POP MLOAD SWAP2 SWAP1 POP JUMP JUMPDEST PUSH1 0x0 PUSH1 0x20 DUP3 DUP5 SUB SLT ISZERO PUSH2 0x167D JUMPI PUSH1 0x0 DUP1 REVERT JUMPDEST DUP2 MLOAD DUP1 ISZERO ISZERO DUP2 EQ PUSH2 0x613 JUMPI PUSH1 0x0 DUP1 REVERT INVALID LOG2 PUSH5 0x6970667358 0x22 SLT KECCAK256 POP BASEFEE PUSH19 0x6C77D152C3D08237DD78796A78F131EA407B7D PUSH11 0x8F500C4D6850918C006473 PUSH16 0x6C634300081100330000000000000000 "
				},
				"gasEstimates": {
					"creation": {
						"codeDepositCost": "1165400",
						"executionCost": "infinite",
						"totalCost": "infinite"
					},
					"external": {
						"addLiquidity(string,uint256)": "infinite",
						"addTrustedTokens(address,string)": "infinite",
						"addTrustedTokensMulti(address[],string[])": "infinite",
						"owner()": "2363",
						"queryAmountOut(string,string,uint256)": "infinite",
						"ratio(string,string)": "infinite",
						"renounceOwnership()": "infinite",
						"swap(string,string,uint256)": "infinite",
						"tokenAddresses(string)": "infinite",
						"transferOwnership(address)": "28336"
					},
					"internal": {
						"_getBalance(string memory)": "infinite",
						"_safeTransfer(address,address,uint256)": "infinite",
						"_safeTransferFrom(address,address,address,uint256)": "infinite"
					}
				},
				"methodIdentifiers": {
					"addLiquidity(string,uint256)": "433ff288",
					"addTrustedTokens(address,string)": "e07a8665",
					"addTrustedTokensMulti(address[],string[])": "d7eb64f7",
					"owner()": "8da5cb5b",
					"queryAmountOut(string,string,uint256)": "80770b05",
					"ratio(string,string)": "3161a93a",
					"renounceOwnership()": "715018a6",
					"swap(string,string,uint256)": "a451f602",
					"tokenAddresses(string)": "935b13f6",
					"transferOwnership(address)": "f2fde38b"
				}
			},
			"storageLayout": {
				"storage": [
					{
						"astId": 574,
						"contract": "contracts/OrderBookDex.sol:OrderBookDex",
						"label": "_owner",
						"offset": 0,
						"slot": "0",
						"type": "t_address"
					},
					{
						"astId": 15,
						"contract": "contracts/OrderBookDex.sol:OrderBookDex",
						"label": "pricefeed",
						"offset": 0,
						"slot": "1",
						"type": "t_contract(ISupraOracle)566"
					},
					{
						"astId": 19,
						"contract": "contracts/OrderBookDex.sol:OrderBookDex",
						"label": "tokenAddresses",
						"offset": 0,
						"slot": "2",
						"type": "t_mapping(t_string_memory_ptr,t_address)"
					}
				],
				"types": {
					"t_address": {
						"encoding": "inplace",
						"label": "address",
						"numberOfBytes": "20"
					},
					"t_contract(ISupraOracle)566": {
						"encoding": "inplace",
						"label": "contract ISupraOracle",
						"numberOfBytes": "20"
					},
					"t_mapping(t_string_memory_ptr,t_address)": {
						"encoding": "mapping",
						"key": "t_string_memory_ptr",
						"label": "mapping(string => address)",
						"numberOfBytes": "32",
						"value": "t_address"
					},
					"t_string_memory_ptr": {
						"encoding": "bytes",
						"label": "string",
						"numberOfBytes": "32"
					}
				}
			},
			"userdoc": {
				"kind": "user",
				"methods": {},
				"version": 1
			}
		}
	}
}