{
	"abi": [
		{
			"inputs": [
				{
					"internalType": "string",
					"name": "s",
					"type": "string"
				}
			],
			"name": "eval",
			"outputs": [
				{
					"internalType": "uint256",
					"name": "",
					"type": "uint256"
				},
				{
					"internalType": "int256",
					"name": "",
					"type": "int256"
				}
			],
			"stateMutability": "pure",
			"type": "function"
		}
	],
	"bytecode": {
		"object": "0x608060405234801561001057600080fd5b506105af806100206000396000f3fe608060405234801561001057600080fd5b506004361061002b5760003560e01c8063d6d8ac5b14610030575b600080fd5b61004361003e3660046103ad565b61005c565b6040805192835260208301919091520160405180910390f35b60008061006a836000610073565b91509150915091565b600080600080600080602b60f81b90506000885190505b8088101561021d5760008989815181106100a6576100a661045e565b01602001516001600160f81b03191690506100c08161023a565b156100e6576100ce8161026e565b6100d987600a61048a565b6100e391906104ba565b95505b6100ef8161023a565b158061010457506101016001836104e2565b89145b1561020a576001600160f81b03198116600560fb1b03610138576101328a61012d8b60016104f5565b610073565b90995095505b6001600160f81b03198316602b60f81b036101615761015784866104ba565b94508593506101d3565b6001600160f81b03198316602d60f81b036101925761018084866104ba565b945061018b86610508565b93506101d3565b6001600160f81b03198316601560f91b036101b15761018b868561048a565b6001600160f81b03198316602f60f81b036101d3576101d08685610524565b93505b6001600160f81b03198116602960f81b0361020257886101f385876104ba565b97509750505050505050610233565b600095508092505b508761021581610560565b98505061008a565b61022783856104ba565b60009650965050505050505b9250929050565b6000600360fc1b6001600160f81b03198316108015906102685750603960f81b6001600160f81b0319831611155b92915050565b60006001600160f81b03198216600360fc1b0361028d57506000919050565b6001600160f81b03198216603160f81b036102aa57506001919050565b6001600160f81b03198216601960f91b036102c757506002919050565b6001600160f81b03198216603360f81b036102e457506003919050565b6001600160f81b03198216600d60fa1b0361030157506004919050565b6001600160f81b03198216603560f81b0361031e57506005919050565b6001600160f81b03198216601b60f91b0361033b57506006919050565b6001600160f81b03198216603760f81b0361035857506007919050565b6001600160f81b03198216600760fb1b0361037557506008919050565b6001600160f81b03198216603960f81b0361039257506009919050565b919050565b634e487b7160e01b600052604160045260246000fd5b6000602082840312156103bf57600080fd5b813567ffffffffffffffff808211156103d757600080fd5b818401915084601f8301126103eb57600080fd5b8135818111156103fd576103fd610397565b604051601f8201601f19908116603f0116810190838211818310171561042557610425610397565b8160405282815287602084870101111561043e57600080fd5b826020860160208301376000928101602001929092525095945050505050565b634e487b7160e01b600052603260045260246000fd5b634e487b7160e01b600052601160045260246000fd5b80820260008212600160ff1b841416156104a6576104a6610474565b818105831482151761026857610268610474565b80820182811260008312801582168215821617156104da576104da610474565b505092915050565b8181038181111561026857610268610474565b8082018082111561026857610268610474565b6000600160ff1b820161051d5761051d610474565b5060000390565b60008261054157634e487b7160e01b600052601260045260246000fd5b600160ff1b82146000198414161561055b5761055b610474565b500590565b60006001820161057257610572610474565b506001019056fea2646970667358221220c354545caa6330baecbaf9c179809aa4dece5a0a3deca5eb83ce56ad22ba147664736f6c63430008130033",
		"linkReferences": {}
	},
	"methodIdentifiers": {
		"eval(string)": "d6d8ac5b"
	},
	"id": 16
}