{
  "_format": "hh-sol-artifact-1",
  "contractName": "TurboVerifier",
  "sourceName": "src/plonk_vk.sol",
  "abi": [
    {
      "inputs": [
        {
          "internalType": "bytes",
          "name": "",
          "type": "bytes"
        }
      ],
      "name": "verify",
      "outputs": [
        {
          "internalType": "bool",
          "name": "result",
          "type": "bool"
        }
      ],
      "stateMutability": "view",
      "type": "function"
    }
  ],
  "bytecode": "0x608060405234801561001057600080fd5b50613737806100206000396000f3fe608060405234801561001057600080fd5b506004361061002b5760003560e01c80638e760afe14610030575b600080fd5b61004361003e366004613557565b610057565b604051901515815260200160405180910390f35b60006100816040518060400160405280600781526020016674657374696e6760c81b8152506102dc565b600061008b610322565b6020810151909150600061009f8284610893565b604080516020810190915260008152909150835160208501516100c3918391610bdc565b61014a60405180610220016040528060008152602001600081526020016000815260200160008152602001600081526020016000815260200160008152602001600081526020016000815260200160008152602001600081526020016000815260200160008152602001600081526020016000815260200160008152602001600081525090565b602085015161015c9083908390610c34565b608083015182516040805191825260208084015181840152925190820152606090206000805160206136c2833981519152810691830182905290825282526101c6818460a001518560c001518660e0015187610100015187610ca79095949392919063ffffffff16565b6000806101d4858885610d14565b6103808701829052602089015191935091506101f39085908590610d9f565b6103008501516103208601518551604080519182526020808501518184015293519082015291810151606083015251608082015260a0908190206000805160206136c2833981519152810691850191909152845260208301518352600061025c84838a89610edc565b9050600061026c858a848a611063565b9050600061027a888761157a565b90506102898282888b8e611720565b9a508a6102cc5760405162461bcd60e51b815260206004820152600c60248201526b141c9bdbd98819985a5b195960a21b60448201526064015b60405180910390fd5b5050505050505050505092915050565b61031f816040516024016102f091906135c9565b60408051601f198184030181529190526020810180516001600160e01b031663104c13eb60e21b179052611a05565b50565b61032a6130ac565b6103326130ac565b60106000820152600160208201527f21082ca216cbbf4e1c6e4f4594dd508c996dfbe1174efb98b11509c6e306460b60408201527f2d5e098bb31e86271ccb415b196942d755b0a9c3f21dd9882fa3d63ab100000160608201527f02e40daf409556c02bfc85eb303402b774954d30aeb0337eb85a71e6373428de60808201527e78134b2c1fcc0d04717529ecb3ddd24b384202347c2e68a54f16995421d9be60a0820151527f2007c919d478f3da743e50ccc7a5e0588284035c5204d53468586c4990ef16ee602060a083015101527f217d6d4ff4a765326fa1ceb0bad64445bdb8b9c06379269b407d8f41049ce1d460c0820151527f2e2b0cb1e072d25e95e0bafd2ee947f80c4c6f958a0a36421d172206ea1770b2602060c083015101527f2618abe7e3877f7df354d615487020bdb2c548f9a0833f6fd2033d434447235860e0820151527f0e9ed39ef792eb3208c2cd4bfd73f00073e6a13979402fcc7629451392bf0c7c602060e083015101526000805160206136e2833981519152610100820151526000805160206136a2833981519152602061010083015101526000805160206136e2833981519152610120820151526000805160206136a2833981519152602061012083015101527f0efe5ad29f99fce939416b6638dff26c845044cca9a2d9dbf94039a11d999aaa610140820151527f0a44bf49517a4b66ae6b51eee6ac68587f768022c11ac8e37cd9dce243d01ef2602061014083015101527e1cf4fbd27f1d93535c5fbcc892576c67c253ff0f01b07d154cad398584f8dc610160820151527f1442f3ed7beb24cd24138b14407237e675f4d9877ac8f42a2b30a96e04beedbf602061016083015101527f2b1a3a73b9aed8610a3401992b1a06ef3f4a8d811006ec1b5d92c8048e601ed0610180820151527f0a71df8d5dab7da96f0362d55c0018f15a859bcb6314fdbc975f150a12d3a66c602061018083015101526000805160206136e28339815191526101a0820151526000805160206136a283398151915260206101a083015101526000805160206136e28339815191526101c0820151526000805160206136a283398151915260206101c083015101526000805160206136e28339815191526101e0820151526000805160206136a283398151915260206101e083015101527f161031d05f386fcd1402b74150c072eb1c7654d278499b8b0554dbb1fcbc3fdd610200820151527f084e2f9e234c806519ab19e5b6841b35c0f4fb82d82e38176356fa5b92dd85e8602061020083015101527f06f0e066b03f3dd3852a38f7a5cc377f9d4f67d52a50dcfabb665542e98ed3a3610220820151527f1381459b75a6ce64256bbe708588fa314f3a10bfd3d1b1272309126f826ba3df602061022083015101527f2313a194c0b55e41d2f3c3509e6e85bdba8433ca55e12e35230f067eda4e27ed610240820151527f1e847839b8d6b4edfba261b89b0697b6bcbf6416c8410775496cb19ef050f195602061024083015101527f18569b0d49bb1eed835a633a18565d72c2f943a81e880b598341eeb459fd7310610260820151527f19e0db9a254eb1fecddbd114723ef005d118083ce7d8f9ad3e2fbc6055f22e3e60206102608301510152600061028082015260006102a08201527f260e01b251f6f1c7e7ff4e580791dee8ea51d87a358e038b4efe30fac09383c16102c0820151527f0118c4d5b837bcc2bc89b5b398b5974e9f5944073b32078b7e231fec938883b060206102c083015101527f04fc6369f7110fe3d25156c1bb9a72859cf2a04641f99ba4ee413c80da6a5fe460406102c083015101527f22febda3c0c0632a56475b4214e5615e11e6dd3f96e6cea2854a87d4dacc5e5560606102c083015101528091505090565b61089b613328565b6102808201516000805160206136c2833981519152907f30644e72e131a029b85045b68181585d97816a916871ca8d3c208c16d87cfd4790600435602401908490156109ad576000866102a0015160206108f59190613634565b83019050606081013560cc90811b6040830135608890811b6020850135604490811b86350191909101929092019260e0850135811b60c0860135831b60a0870135851b608088013501010192610160860135821b610140870135841b610120880135831b610100890135010101926101e087013590921b6101c087013590921b6101a087013590911b6101808701350101016109918484611a26565b6103408b01526109a18282611a26565b6103608b015250505050505b602087028083019250508260208301350681515282823506602082510152826060830135066020820151528260408301350660208083015101528260a083013506604082015152826080830135066020604083015101528260e0830135066060820151528260c08301350660206060830151015282610120830135066080820151528261010083013506602060808301510152826101608301350660a0820151528261014083013506602060a08301510152826101a08301350660c0820151528261018083013506602060c08301510152826101e08301350660e082015152826101c083013506602060e08301510152826102208301350661010082015152826102008301350660206101008301510152836102408301350661012082015283610260830135066101408201528361028083013506610160820152836102a083013506610180820152836102c0830135066101a0820152836102e0830135066101c082015283610300830135066101e08201528361032083013506610200820152836103408301350661022082015283610360830135066102408201528361038083013506610260820152836103a083013506610280820152836103c0830135066102a0820152836103e0830135066102c082015283610400830135066102e08201528261044083013506610300820151528261042083013506602061030083015101528261048083013506610320820151528261046083013506602061032083015101525050505092915050565b60006040518360181c60208201538360101c60218201538360081c60228201538360238201538260181c60248201538260101c60258201538260081c6026820153826027820153600860209190910120909352505050565b8251604051818152600091906000805160206136c283398151915290839060209081019060246004350190870261010001808284376040516020918201902085810660608b0181905260008290529097509350600192509050535060216000209081066080909501949094525050509052565b85516040805191825260208681015181840152955182820152848601516060830152935160808201528285015160a0820152915160c08301529283015160e082015291516101008301526101209091206000805160206136c2833981519152810692909101919091529052565b600080600080600080600080610d2a898b611a65565b915091506000806000806000610d448f8f60400151611bf6565b94509450945094509450610d5d87878787878787611cd7565b809b50819c50829e50839d5050505050898f610300018181525050505050505050506000610d8f84868a86868f611df6565b9a92995091975050505050505050565b82516040518181526000805160206136c2833981519152919060009081906102646020878102600435019190910191906101e0908390830137610200902085810660c08901819052600082905290935091506001905060205350602160002083900660e08601819052600260205350602160002083900661010086018190526003602053506021600020839006610120860181905260046020535060216000208390066101408601819052600560205350602160002083900661016086018190526006602053506021600020839006610180860181905260076020535060216000208390066101a0860181905260086020535060216000208390066101c08601819052600960205350602160009081208490066101e0870181905290600a6020535050602160002092830661020090950194909452509092525050565b60408051808201909152600080825260208201526000610efe83858888611e4c565b90506000610f0d8486896120ab565b90506000610f1b8589612603565b90506000610f29868a61276f565b6101c08801516101e089015191925090610f428261298e565b610f4b8161298e565b6000604051835181526020840151602082015285604082015260408160608360075afa9150875160408201526020880151606082015260408160808360065afa821691508251604082015260208301516060820152846080820152604080820160606040840160075afa8216915060408160808360065afa82169150865160408201526020870151606082015260408860808360065afa8216915050806110535760405162461bcd60e51b815260206004820152603660248201527f636f6d707574655f6c696e656172697365645f6f70656e696e675f7465726d736044820152750819dc9bdd5c081bdc195c985d1a5bdb9cc819985a5b60521b60648201526084016102c3565b50949a9950505050505050505050565b60408051808201909152600080825260208201526040805160a08101909152610300850151600091906000805160206136c28339815191529083906110a89083613653565b60a08701519091506110b98161298e565b805184526020810151602085015281604085015260408460608660075afa6102e08a015160c0890151919650909150806110f28361298e565b8251604087015260208301516060870152848483096080870152604080870160608160075afa965060408660808860065afa60e08a015197169692506111378361298e565b8482830991508251604087015260208301516060870152848483096080870152604080870160608160075afa8716965060408660808860065afa6101008a015197169692506111858361298e565b8481830991508251604087015260208301516060870152848483096080870152604080870160608160075afa8716965060408660808860065afa871696508992506111cf8361298e565b8951604087015260208a0151606087015260408660808860065afa60a08d015160c08e01518b5199909216989450906112078561298e565b8660018308915086828209935084516040890152602085015160608901528360808901526040808901606060408b0160075afa8916985060408860808a60065afa891698508d60e0015190508a6020015194506112638561298e565b86828209935084516040890152602085015160608901528360808901526040808901606060408b0160075afa8916985060408860808a60065afa891698508d610100015190508a6040015194506112b98561298e565b86828209935084516040890152602085015160608901528360808901526040808901606060408b0160075afa8916985060408860808a60065afa891698508d610120015190508a60600151945061130f8561298e565b86828209935084516040890152602085015160608901528360808901526040808901606060408b0160075afa8916985060408860808a60065afa891698508d610140015193508c610200015194506113668561298e565b84516040890152602085015160608901528360808901526040808901606060408b0160075afa8916985060408860808a60065afa891698508d610160015193508c610220015194506113b78561298e565b84516040890152602085015160608901528360808901526040808901606060408b0160075afa8916985060408860808a60065afa891698508d610180015193508c610240015194506114088561298e565b84516040890152602085015160608901528360808901526040808901606060408b0160075afa8916985060408860808a60065afa891698508d6101a0015193508c610180015194506114598561298e565b84516040890152602085015160608901528360808901526040808901606060408b0160075afa8916985060408860808a60065afa60408051808201909152600080825260208201529916988e6101c0015194508d6101a0015195506114bd8661298e565b855160408a0152602086015160608a01528460808a01526040808a01606060408c0160075afa8a16995060408160808b60065afa8a169950896115685760405162461bcd60e51b815260206004820152603760248201527f636f6d707574655f62617463685f6f70656e696e675f636f6d6d69746d656e7460448201527f2067726f7570206f7065726174696f6e73206572726f7200000000000000000060648201526084016102c3565b9e9d5050505050505050505050505050565b60c08101516101208301516000916000805160206136c2833981519152918391908380828409840892508560e001519150866101400151905083848284098408925085610100015191508661016001519050838482840984089250856101200151915086610180015190508384828409840892508561014001519150866101a0015190508384828409840892508561016001519150866101c0015190508384828409840892508561018001519150866101e001519050838482840984089250856101a0015191508661020001519050838482840984089250856101c0015191508661022001519050838482840984089250856101e0015191508661024001519050838482840984089250866103800151905083818503840892508560c001519150866102800151905060008482840990508660e001519250876102a0015191508485838509820890508661010001519250876102c0015191508485838509820890508661012001519250876102e00151915084858385098208905087610260015192508483820890508660a0015192508483820990508481850898975050505050505050565b60a083015160408051808201909152600080825260208201819052919082906000805160206136c2833981519152906103208701516103008801516117648161298e565b61176d8261298e565b6040808b0151908901518582820990508588820990508c86039c506040518e51815260208f015160208201528351604082015260208401516060820152826080820152604080820160606040840160075afa975060408160808360065afa881697508451604082015260208501516060820152816080820152604080820160606040840160075afa8816975060408160808360065afa8816975060016040820152600260608201528d6080820152604080820160606040840160075afa8816975060408660808360065afa8816975050505061185c604051806040016040528060008152602001600081525090565b60405182518152602083015160208201528351604082015260208401516060820152876080820152604080820160606040840160075afa8716965060408260808360065afa871696505060007f30644e72e131a029b85045b68181585d97816a916871ca8d3c208c16d87cfd4790506020820151810360208301528961028001511561198c576103408b01516103608c01516118f78261298e565b6119008161298e565b6040518251815260208301516020820152888b8c09604082015260406060820160608360075afa8a169950815181526020820151602082015260408160608360075afa8a169950875160a0820152602088015160c082015260408860806060840160065afa8a169950845160408201526020850151606082015260408560808360065afa8a1699505050505b866119ed5760405162461bcd60e51b815260206004820152602b60248201527f706572666f726d5f70616972696e67204731206f7065726174696f6e7320707260448201526a19585b589b194819985a5b60aa1b60648201526084016102c3565b611568856119f9612a45565b848d6102c00151612b16565b80516a636f6e736f6c652e6c6f67602083016000808483855afa5050505050565b604080518082019091526000808252602082015250604080518082019091526000805160206136c2833981519152928390068152919006602082015290565b6000806000846080015190506000846040015190506000602086602001516020611a8f9190613634565b611a999190613653565b6060880151909150600090806001806000805160206136c2833981519152818160058609955081600786099450602460043501965086880197505b87871015611b375786358a81018701808701848c8a099850848c8909975060208a01358d81018a01868a8201888a860909975086898886840909985050858d8b099950858d8a099850858110868510168516945050505050604087019650611ad4565b6020880197505b87871015611b7f57863582811082169150828b8208905082818801860994508281878901018509935050818987099550818986099450602087019650611b3e565b80611be35760405162461bcd60e51b815260206004820152602e60248201527f7075626c696320696e70757473206172652067726561746572207468616e206360448201526d697263756974206d6f64756c757360901b60648201526084016102c3565b50919c909b509950505050505050505050565b6000806000806000806000805160206136c283398151915290506000611c21888a6000015184612c02565b6102e08a018190529050816000198101820860808a015160608b015191925090819060009081808d88868103820894508887870995508889878b038308860994508887870995508889878b038308860994508887870995508889878b038308860994508f604001519550600089858a0990508960018b03830893508987880997508988890997508987890997508960018b038b848b0908989e50949c50939a509098509496505050505050509295509295909350565b6000806000806000806000805160206136c28339815191529050600060019050604051925061020083016040528c83528a6020840152886040840152876060840152806080840152818351820990508060a0840152816020840151820990508060c0840152816040840151820990508060e084015281606084015182099050611d5f81612c3e565b90508160e08401518209826060850151830991508060608501528260c085015183099050826040850151830991508060408501528260a08501518309905082602085015183099150806020850152826080850151830990508284518309818552915082908f0995508160208401518d0996508160408401518b0994508160608401518b099350505050975097509750979350505050565b600080611e068787878787612ce7565b90506000611e148785612df1565b90506000611e228886612e7c565b905060006000805160206136c2833981519152808084860886089c9b505050505050505050505050565b60408051808201909152600080825260208201526060830151604084015160808501516101208801516101a08901516000805160206136c283398151915291600091829190848683088581878a8c090894508581878b850908935050505060008b6101400151905060008c6101c00151905084868308858682888c8a60058e09090886099450858682888c8609088509935050505060008b6101600151905060008c6101e00151905084868308858682888c8a60068e09090886099450858682888c8609088509935050505060008b610180015190508384828688888c8a60078e09090808840992505060008960000151905060008a60200151905060008b60a00151905060008e6102600151905060008c9050878588099650878b89878b868b09098a030995508784898688090994508783898a8885098a08089650878486098e5250505060808d01516102608d015160408051808201909152600080825260208201529193509150611fbf8361298e565b611fc88261298e565b6000604051845181526020850151602082015286604082015260408160608360075afa91508351604082015260208401516060820152856080820152604080820160606040840160075afa8216915060408360808360065afa8216915050806120995760405162461bcd60e51b815260206004820152603d60248201527f636f6d707574655f6772616e645f70726f647563745f6f70656e696e675f736360448201527f616c61722067726f7570206f7065726174696f6e73206661696c75726500000060648201526084016102c3565b509d9c50505050505050505050505050565b6040805180820190915260008082526020820152610200840151610220850151835160208501516040805160a081019091526101808901516102e08a01518493926000805160206136c283398151915292600092839190858060048409870382089250505060008d61012001519050809350848885099350848a8509935084868809965084868809965084868809965084828309858a820990508588820990508581860860a08f015190955090506121628161298e565b6000604051825181526020830151602082015286604082015260408660608360075afa915050806121a55760405162461bcd60e51b81526004016102c39061366a565b5050506101408d0151925082848882099350848a85099350848988098581860860c08f015190955090506121d88161298e565b60006040518251815260208301516020820152866040820152604080870160608360075afa91505060408560808760065afa16806122285760405162461bcd60e51b81526004016102c39061366a565b5050506101608d0151925082848882099350848a85096102c08f0151909450600091508581840991505060008e61014001519050858789099750858183099150858883099150858283089150858a83099150858286089450505060008d6102800151905060008e6101200151905085878909975085818703830891508583830991505060008e6102c001519050858183099150858883099150858a83099150858286089450505060008c60e0015190506122e18161298e565b60006040518251815260208301516020820152856040820152604080860160608360075afa91505060408460808660065afa16806123315760405162461bcd60e51b81526004016102c39061366a565b5050506101608c01516101808d01516102408e01519093508390858983099450858b86099450858688890989099750858a84098682820990508689820990508681870895505060008e6101000151905061238a8161298e565b60006040518251815260208301516020820152876040820152604080880160608360075afa91505060408660808860065afa16806123da5760405162461bcd60e51b81526004016102c39061366a565b505050506101808d01516102408e0151909150818503858380099450858186089450858660028803850886099450858986099450858786099450858b8609945085816001089050858a82099050858282099050858882099050858186086101208f0151909550905061244b8161298e565b60006040518251815260208301516020820152866040820152604080870160608360075afa91505060408560808760065afa168061249b5760405162461bcd60e51b81526004016102c39061366a565b505050506101208c01516101408d0151848183099350848885099350848a85099350505060008c6101600151905060008d6102400151905084868809965084898309858282099050858882099050858186086101408f015190955090506125018161298e565b60006040518251815260208301516020820152866040820152604080870160608360075afa91505060408560808760065afa16806125515760405162461bcd60e51b81526004016102c39061366a565b50505050612572604051806040016040528060008152602001600081525090565b6101e08b0151879350848a85099350848185089350848688096101608e015190985061259d8161298e565b60006040518251815260208301516020820152866040820152604080870160608360075afa91505060408460808760065afa16806125ed5760405162461bcd60e51b81526004016102c39061366a565b5050509590995250929998505050505050505050565b6101208201516101408301516101608401516101808501516102e086015160208601518651600096959493929190876000805160206136c283398151915280806004880982038808818260048a0983038a08828360048c0984038c08838460048e098503890884848509858587038208905085600287038608868183099150866003880387089050868183099150868983099150819750868a8a0998508685860991508685880383089150866002880386089050868183099150866003880386089050868183099150868983099150868289089750868a8a0998508684850991508684880383089150866002880385089050868183099150866003880385089050868183099150868983099150868289089750868a8a099850868384099150868388038308915086600288038408905086818309915086600388038408905086818309915050858882099050858188089650505050505080848409909a529a9950505050505050505050565b61028082015161012083015160009182916000805160206136c283398151915291839182918291829182918291908880600483098a0383086102a08e01516101408f0151919750925090508880600483098a038308945088858708975088868709935088858609925088838508965088888909995088878a038b0860208d01516101608f0151919b506000935091508960028209925089838b038c089a5089828c099a505088828308915088868a03850893508860048709955088868a03850895508860068708955088848709955088868b08995088818b09995088858a03840892508860048609945088858a03840894508860068608945088838609945088858b08995088818b099950886003890995508860038709945088858608975088600489099350888486089450886003880993508860068509965088888a03830897508860518908975088858a038808945088605386086101608e015190955089818a09985089868a08985089818a096101808f0151909950905089600482096102e08f015190955090508985810382086102408f0151909550905089858008935089848608945089858608935089858508935089878b038508935089818509935089878608945089898a08985089898b038608945089848608945089858c088d51909b50905089818c098d5160208f0151919c509950975089965087955085945050505050099050828182099050828183099095525090949350505050565b805160208201516000917f30644e72e131a029b85045b68181585d97816a916871ca8d3c208c16d87cfd4791826003818085800985090883828309148115831517198483108585101616169350505081612a405760405162461bcd60e51b815260206004820152602d60248201527f426e3235343a20473120706f696e74206e6f74206f6e2063757276652c206f7260448201526c081a5cc81b585b199bdc9b5959609a1b60648201526084016102c3565b505050565b612a706040518060800160405280600081526020016000815260200160008152602001600081525090565b60405180608001604052807f198e9393920d483a7260bfb731fb5d25f1aa493335a9e71297e485b7aef312c281526020017f1800deef121f1e76426a00665e5c4479674322d4f75edadd46debd5cd992f6ed81526020017f090689d0585ff075ec9e99ad690c3395bc4b313370b38ef355acdadcd122975b81526020017f12c85ea5db8c6deb4aab71808dcb408fe3d1e7690c43d37b4ce6cc0166fa7daa815250905090565b6000612b218561298e565b612b2a8361298e565b6000806040518751815260208801516020820152865160408201526020870151606082015260408701516080820152606087015160a0820152855160c0820152602086015160e08201528451610100820152602085015161012082015260408501516101408201526060850151610160820152602060006101808360085afa925050600051905081612bf65760405162461bcd60e51b815260206004820152601560248201527450616972696e6720636865636b206661696c65642160581b60448201526064016102c3565b15159695505050505050565b6000600184818581015b80821015612c325781871615612c23578583850993505b85838409925090800190612c0c565b50919695505050505050565b6000806000806000805160206136c2833981519152905060405160208152602080820152602060408201528560608201526002820360808201528160a08201526020600060c08360055afa925050600051925081612cde5760405162461bcd60e51b815260206004820152601b60248201527f706f7720707265636f6d70696c652063616c6c206661696c656421000000000060448201526064016102c3565b50909392505050565b6020840151606085015161026083015160808701516101208501516101408601516101608701516101808801516101a08901516101c08a01516101e08b015160009a8b9a909990986000805160206136c28339815191529891979096919590949193909289838c09888801018a838d09898801018b838e098a8801018c8d8284098409925050508a898601820990508a8a820990508a8d82099050808b039d5050505050505050505060008a60000151905060008a905060008a905060008e90508588890986818a098781860988838609925088848a0389088981850993505088818a038d089b505087828c089a5087818709909f5250979e9d5050505050505050505050505050565b6102008101516101608201516101808301518451602086015160009493929190856000805160206136c28339815191528087810381898009089150808682600488098303088160028383840909826009830983846007860384870308820890508381840992505050818583838609099250508083850993508083850990995298975050505050505050565b602082015182516101808301516102e08401516102c085015160009493859390926000805160206136c2833981519152928592919082850385806004830984089450508486866003880387018860018a0389018a60038b0160018c010909090996508488870995508485878309860388089650848887096102208b01516101208c01516102808d01516101408e01516102c08f0151949a509196509450925090600080808980858a088808925089888b0385089150898283099150898284099250898a858609850991508986870990508960118b038b838508088a03915089858b888c09099050898182089050898b8b8c848608860809925089838d089b50898d8c099a508e610120015197508e6102a0015196508e610140015195508e6102c00151935060008f610280015190508a8b8a8d0387088c898b080993508a818c038a0892508a878c8c89098d030891508a8b8d8d8587098701098e089c508a8e8d099b508f610240015195508f610180015197508f610160015196508a60018c0389088b888d03820893508b8c8e8609820990508b87820990508b818f089d50508a8e8d099b508a8b8d89098c888c09098b038b818f089d50508a8e8d099b508f610140015198508f610160015197508f610180015196508a86888d03600101098b898b098c0393508b8c888f098583010990508b818f089d50508a8e8d099b508f610220015195508a868e099c5050505050505050505050508086600001818152505081935050505092915050565b60405180610320016040528060008152602001600081526020016000815260200160008152602001600081526020016130f8604051806040016040528060008152602001600081525090565b815260200161311a604051806040016040528060008152602001600081525090565b815260200161313c604051806040016040528060008152602001600081525090565b815260200161315e604051806040016040528060008152602001600081525090565b8152602001613180604051806040016040528060008152602001600081525090565b81526020016131a2604051806040016040528060008152602001600081525090565b81526020016131c4604051806040016040528060008152602001600081525090565b81526020016131e6604051806040016040528060008152602001600081525090565b8152602001613208604051806040016040528060008152602001600081525090565b815260200161322a604051806040016040528060008152602001600081525090565b815260200161324c604051806040016040528060008152602001600081525090565b815260200161326e604051806040016040528060008152602001600081525090565b8152602001613290604051806040016040528060008152602001600081525090565b81526020016132b2604051806040016040528060008152602001600081525090565b81526020016132d4604051806040016040528060008152602001600081525090565b8152602001600015158152602001600081526020016133146040518060800160405280600081526020016000815260200160008152602001600081525090565b815260200160008152602001600081525090565b604080516103e0810190915260006103a082018181526103c08301919091528190815260200161336b604051806040016040528060008152602001600081525090565b815260200161338d604051806040016040528060008152602001600081525090565b81526020016133af604051806040016040528060008152602001600081525090565b81526020016133d1604051806040016040528060008152602001600081525090565b81526020016133f3604051806040016040528060008152602001600081525090565b8152602001613415604051806040016040528060008152602001600081525090565b8152602001613437604051806040016040528060008152602001600081525090565b8152602001613459604051806040016040528060008152602001600081525090565b81526020016000815260200160008152602001600081526020016000815260200160008152602001600081526020016000815260200160008152602001600081526020016000815260200160008152602001600081526020016000815260200160008152602001600081526020016134e4604051806040016040528060008152602001600081525090565b8152602001613506604051806040016040528060008152602001600081525090565b8152602001613528604051806040016040528060008152602001600081525090565b815260200161354a604051806040016040528060008152602001600081525090565b8152602001600081525090565b6000806020838503121561356a57600080fd5b823567ffffffffffffffff8082111561358257600080fd5b818501915085601f83011261359657600080fd5b8135818111156135a557600080fd5b8660208285010111156135b757600080fd5b60209290920196919550909350505050565b600060208083528351808285015260005b818110156135f6578581018301518582016040015282016135da565b81811115613608576000604083870101525b50601f01601f1916929092016040019392505050565b634e487b7160e01b600052601160045260246000fd5b600081600019048311821515161561364e5761364e61361e565b500290565b6000828210156136655761366561361e565b500390565b6020808252601f908201527f473120706f696e74206d756c7469706c69636174696f6e206661696c6564210060408201526060019056fe2e4e3e272c7b78ad894559812d7766e05615a8f7050a43d7ed1367adf30a931930644e72e131a029b85045b68181585d2833e84879b9709143e1f593f00000012950076760523510abcfe90fa550b964e84b338f73af5222cdbbaefdacd4484ea2646970667358221220781ce730a5737a2e1bdc46b9d351e8cd7ecb2b1cb7891406aa946b6fb6d04c2964736f6c634300080d0033",
  "linkReferences": {},
  "deployedLinkReferences": {}
}